:1000000002000375817D120206E582600302006F23
:10001000780079007A007B007C007D00EC4D601C4C
:1000200088828983E493A3A882A9838A828B83F040
:10003000A3AA82AB831CBCFFE31D80E07582007520
:1000400083007C007D00EC4D600AE4F0A31CBCFF43
:10005000F51D80F27582007583007C007D00EC4DFB
:10006000600AE4F0A31CBCFFF51D80F21202051229
:10007000050580FE1B5B324A0041444320746573D2
:10008000742070726F6772616D0A46696C653A2000
:1000900025730A436F6D70696C65643A2025732C73
:1000A0002025730A0A00433A5C55736572735C63DA
:1000B0006F7372335C446F63756D656E74735C4708
:1000C00069744875625C454C45432D3239312D4C7D
:1000D0006162355C45464D385F4144432E63004DB7
:1000E000617220203720323032340031353A3535D4
:1000F0003A313100506572696F642854293A2020E2
:1001000025372E3666206D7320204672657128666D
:10011000293A202025372E366620487A200A0031D9
:100120002F3420506572696F643A2025372E366669
:10013000206D730A0056726D732028726566293A25
:10014000202025342E34662056202056726D7320D0
:100150002873706C293A2025342E34662056200AE4
:1001600000506861736520446966666572656E63F8
:10017000653A2025372E366620646567726565739B
:100180002020506861736520646966662074696D1B
:10019000653A2025372E36662073200A001B5B4106
:1001A00000463A20253364487A20543A20253264A8
:1001B0006D73005068617365206469663A20253369
:1001C0002E3266206465670056726D732873293A73
:1001D0002025322E326620560056726D7328722901
:1001E0003A2025322E3266205600436F6E6E6563CC
:1001F000742047756964650053414D504C45207C1F
:1002000020524546002275A7007597DE7597AD759B
:10021000FF8075EF0675A71075C12075A70075A939
:100220000075A900E5A930E7FB75A90375A903E5E9
:10023000A930E7FB43A41075E10175E20075E340C6
:10024000759810758DE6858D8B53890F438920D263
:100250008ED2997582002275A700C2EF75B28075A3
:10026000BC2075B91E75E80075DF3F75B300D2EF8D
:1002700022AA82438E407592B87593FF8592948529
:1002800093957591047B00C3EB9A500BE59130E791
:10029000FB53917F0B80F075910022AA82AB837C87
:1002A000007D00C3EC9AED9B502B7E00BE040050F5
:1002B0001D7582FAC002C003C004C005C006120248
:1002C00071D006D005D004D003D0020E80DE0CBC65
:1002D00000D10D80CE22AA82AB83ACF0FD7E007FE0
:1002E0000078007900C3EE9AEF9BE89CE99D5035B9
:1002F000758264C002C003C004C005C006C007C048
:1003000000C001120271D001D000D007D006D00584
:10031000D004D003D0020EBE00CB0FBF00C708B878
:1003200000C30980C0225389F0438901C28C22AAEC
:10033000828511F005F07401800225E0D5F0FBFB09
:1003400075A720BA0002800ABA0102800FBA021E05
:100350008014EBF4FA52F1EB42D48012EBF4FA522F
:10036000F2EB42D58008EBF4FA52F3EB42CC75A7DE
:1003700000228582BBC2EDD2EC30EDFD85BD8285C9
:10038000BE8322120372120F4BAA82AB83ACF0FD24
:10039000C002C003C004C005906C8B75F05374405C
:1003A000121038AA82AB83ACF0FDE58124FCF58104
:1003B000E4C0E074FCC0E0747FC0E07446C0E08A32
:1003C000828B838CF0ED12127FAA82AB83ACF0FD9E
:1003D000E58124FCF5818A828B838CF0ED22D2A00A
:1003E000758228120271C2A022AA828AE0A2E79234
:1003F00090A2E69291A2E59292A2E49293C0021298
:1004000003DE758228120271D0028AE0A2E3929084
:10041000A2E29291A2E19292A2E092930203DEAA5A
:1004200082D2978A821203E990000202029BAA827A
:10043000C2978A821203E990000502029BC2A09033
:10044000001412029B75823312042E75823312043B
:100450002E75823212042E75822812042E75820C9B
:1004600012042E75820112042E90001402029BAA1F
:1004700082AB83ACF07402B523047DC080027D8022
:100480008D82C002C003C00412042E900005120227
:100490009BD004D003D0027D007E00ED2AFFEE3B0E
:1004A000F88C018F82888389F0120F2FFF60208FD4
:1004B00082C002C003C004C005C00612041FD006DB
:1004C000D005D004D003D0020DBD00CF0E80CC30BB
:1004D00000248D028E03C3EA9410EB648094805054
:1004E00015758220C002C00312041FD003D0020A77
:1004F000BA00E30B80E022C2EDD2EC30EDFD85BD09
:100500008285BE8322E4F538F539753A01E4F53B7E
:1005100012043D1203269001F412029B7474C0E091
:100520007400C0E07480C0E012115415811581156B
:100530008174EBC0E07400C0E07480C0E074DFC080
:10054000E07400C0E07480C0E074A6C0E07400C035
:10055000E07480C0E07479C0E07400C0E07480C0D2
:10056000E0121154E58124F4F581751102758202BF
:1005700012032F75110375820212032F7511047572
:10058000820212032F75110575820212032F751155
:100590000175820012032F120257754800754940F9
:1005A000754A1C754B4675BB12C2EDD2EC30EDFDA1
:1005B0001204F7E5828583F045F070F41204F7E544
:1005C000828583F045F060F4752200758A00758C91
:1005D00000D28C1204F7E5828583F045F0600910A3
:1005E0008D0280EF052280EBC28C8522821210DB07
:1005F000AE82AF83A8F0F9C006C007C000C001906A
:10060000000075F0807447121038AE82AF83A8F0F6
:10061000F9E58124FCF581858C82C006C007C00005
:10062000C0011210DBAC82AD83AAF0FBC004C00590
:10063000C002C00390000075F0807443121038AA05
:1006400082AB83ACF0FDE58124FCF581D001D000C4
:10065000D007D006C002C003C004C0058E828F83BD
:1006600088F0E91210E6AA82AB83ACF0FDE58124A4
:10067000FCF581AE8A7F008E828F83C002C003C0EA
:1006800004C005121272AE82AF83A8F0F9D005D073
:1006900004D003D002C006C007C000C0018A828B0C
:1006A000838CF0ED1210E6AA82AB83ACF0FDE581FD
:1006B00024FCF581C002C003C004C00590F4FC75A1
:1006C000F0327434121038AA82AB83ACF0FDE581AD
:1006D00024FCF581752200758A00758C00C002C06B
:1006E00003C004C005900000E4F5F0744012103817
:1006F00085823C85833D85F03EF53FE58124FCF510
:10070000817417C0E074B7C0E07451C0E07439C0A0
:10071000E0853C82853D83853EF0E53F120F57AE74
:1007200082E58124FCF581EE700E85483C85493DCB
:10073000854A3E854B3F800C853C48853D49853E3A
:100740004A853F4BC03CC03DC03EC03F9000007555
:10075000F080743F12127F85824085834185F0428C
:10076000F543E58124FCF581E4C0E0C0E07480C07D
:10077000E07440C0E0853C82853D83853EF0E53FE6
:1007800012127F85824485834585F046F547E581D1
:1007900024FCF581C2EDD2EC30EDFD1204F7E582C8
:1007A0008583F045F070F41204F7E5828583F04507
:1007B000F060F47582141202711204F7E5828583E9
:1007C000F045F060D6C044C045C046C047904000E8
:1007D00075F01C7446121038AE82AF83A8F0F9E5AC
:1007E0008124FCF5818E828F8388F0E91211ABAEF3
:1007F00082AF83A8F0F9C006C007C000C001120292
:10080000D6758212120383AA82AB83ACF0FDC002BC
:10081000C003C004C0059004F375F035743F121096
:100820003885825085835185F052F553E58124FC4B
:10083000F58190003212029BD001D000D007D00683
:1008400075BB11C2EDD2EC30EDFDC006C007C00093
:10085000C0011204F7E5828583F0D001D000D007F3
:10086000D00645F070E4C006C007C000C001120405
:10087000F7E5828583F0D001D000D007D00645F09F
:1008800060E4758214C006C007C000C00112027186
:100890001204F7E5828583F0D001D000D007D0069E
:1008A00045F060A68E828F8388F0E91202D67582A9
:1008B00011120383AE82AF83A8F0F9C006C007C04F
:1008C00000C0019004F375F035743F121038858232
:1008D0004C85834D85F04EF54FE58124FCF581C2B2
:1008E000EDD2EC30EDFD1204F7E5828583F045F0A2
:1008F00070F41204F7E5828583F045F060F47582A8
:10090000141202711204F7E5828583F045F060D677
:10091000752200758A00758C00D28C75BB12C2EDF1
:10092000D2EC30EDFD1204F7E5828583F045F070DE
:10093000F41204F7E5828583F045F07009108D020A
:1009400080EF052280EB1204F7E5828583F045F005
:1009500060D3C28C8522821210DBAE82AF83A8F0F6
:10096000F9C006C007C000C00190000075F0807497
:1009700047121038AE82AF83A8F0F9E58124FCF568
:1009800081858C82C006C007C000C0011210DBAA9E
:1009900082AB83ACF0FDC002C003C004C005900070
:1009A0000075F0807443121038AA82AB83ACF0FD5E
:1009B000E58124FCF581D001D000D007D006C0022B
:1009C000C003C004C0058E828F8388F0E91210E650
:1009D000AA82AB83ACF0FDE58124FCF581AE8A7F71
:1009E000008E828F83C002C003C004C00512127241
:1009F000AE82AF83A8F0F9D005D004D003D002C0F6
:100A000006C007C000C0018A828B838CF0ED1210F3
:100A1000E6AA82AB83ACF0FDE58124FCF581C0023F
:100A2000C003C004C00590F4FC75F0327434121099
:100A30003885825885835985F05AF55BE58124FC19
:100A4000F581C058C059C05AC05B90000075F0B421
:100A50007443121038AE82AF83A8F0F9E58124FC0C
:100A6000F581C03CC03DC03EC03F8E828F8388F080
:100A7000E912127F85825485835585F056F557E536
:100A80008124FCF581758A00758C00752200E4C014
:100A9000E0C0E07434C0E074C3C0E0855482855582
:100AA000838556F0E557121008AA82E58124FCF5EB
:100AB00081EA602EE4C0E0C0E074B4C0E07443C0DA
:100AC000E08554828555838556F0E5571210E685FA
:100AD000825485835585F056F557E58124FCF581D0
:100AE00080ACE4C0E0C0E07434C0E07443C0E08592
:100AF00054828555838556F0E557120F57AA82E533
:100B00008124FCF581EA602EE4C0E0C0E074B4C04A
:100B1000E07443C0E08554828555838556F0E557DF
:100B200012126785825485835585F056F557E58105
:100B300024FCF58180ACE4C0E0C0E0C0E0C0E0850A
:100B400054828555838556F0E557120F57AA82E5E2
:100B50008124FCF581EA602CE4C0E0C0E0C0E074D0
:100B60003FC0E08554828555838556F0E5571210C5
:100B7000E685825485835585F056F557E58124FC3A
:100B8000F581804EE4C0E0C0E0C0E0C0E085548262
:100B90008555838556F0E557121008AA82E5812411
:100BA000FCF581EA602CE4C0E0C0E074C0C0E074F1
:100BB0003FC0E08554828555838556F0E557121273
:100BC0006785825485835585F056F557E58124FC69
:100BD000F58120B30EE53845397008753801E4F524
:100BE00039802D20B3157401B53806E4B53902807B
:100BF000028008753802E4F539801520B3127402BA
:100C0000B53806E4B5390280028005E4F538F539D7
:100C100020B00EE53A453B7008753A01E4F53B809B
:100C20001520B0127401B53A06E4B53B028002808B
:100C300005E4F53AF53BC03CC03DC03EC03F9000E6
:100C40000075F07A7444121038AA82AB83ACF0FDC0
:100C5000E58124FCF581C002C003C004C005C0408A
:100C6000C041C042C043C002C003C004C00574F408
:100C7000C0E07400C0E07480C0E0121154E581242B
:100C8000F5F581C044C045C046C04790000075F0EE
:100C90007A7444121038AE82AF83A8F0F9E581244B
:100CA000FCF581C006C007C000C001741FC0E0741D
:100CB00001C0E07480C0E0121154E58124F9F5818F
:100CC000C04CC04DC04EC04FC050C051C052C053A8
:100CD0007435C0E07401C0E07480C0E0121154E5C6
:100CE0008124F5F581C058C059C05AC05BC054C0BA
:100CF00055C056C0577461C0E07401C0E07480C034
:100D0000E0121154E58124F5F581749DC0E0740171
:100D1000C0E07480C0E012115415811581158174F2
:100D20009DC0E07401C0E07480C0E01211541581D0
:100D300015811581749DC0E07401C0E07480C0E02D
:100D4000121154158115811581749DC0E07401C084
:100D5000E07480C0E0121154158115811581D00511
:100D6000D004D003D002E53845396003020E128A60
:100D7000828B838CF0ED120FD47511E8751203127B
:100D80001175AA82AB838540828541838542F0E557
:100D900043C002C003120FD47511E875120312117B
:100DA00075AC82AD83C004C00574A1C0E07401C0FD
:100DB000E07480C0E07424C0E07400C0E07440C0FF
:100DC000E0121221E58124F6F581752301D200900D
:100DD000002475F04012046FC054C055C056C0576F
:100DE00074B3C0E07401C0E07480C0E07424C0E05B
:100DF0007400C0E07440C0E0121221E58124F6F5D1
:100E000081752302D20090002475F04012046F0215
:100E10000EFA7401B53806E4B5390280028070C05C
:100E20004CC04DC04EC04F74C8C0E07401C0E074E7
:100E300080C0E07424C0E07400C0E07440C0E012E0
:100E40001221E58124F6F581752301D2009000245A
:100E500075F04012046FC050C051C052C05374D9D5
:100E6000C0E07401C0E07480C0E07424C0E074008D
:100E7000C0E07440C0E0121221E58124F6F58175CE
:100E80002302D20090002475F04012046F806B742E
:100E900002B53806E4B539028002805E74EAC0E02B
:100EA0007401C0E07480C0E07424C0E07400C0E04D
:100EB0007440C0E0121221E58124FAF58175230106
:100EC000D20090002475F04012046F74F8C0E074F2
:100ED00001C0E07480C0E07424C0E07400C0E0741D
:100EE00040C0E0121221E58124FAF581752302D277
:100EF0000090002475F04012046FE4C0E0C0E0C030
:100F0000E0C0E08554828555838556F0E557121080
:100F100008AA82E58124FCF581EA6006C283D282B8
:100F20008004D283C2829001F412029B0205A620A3
:100F3000F71430F6148883A88220F507E6A8837595
:100F4000830022E280F7E49322E022E4AC83AB82C8
:100F5000FAF9748E0213A7FFA88118181213CFD2C2
:100F6000D133E6400730E70B7582012220E7067592
:100F7000820022C2D11213B1E97003F5822230D16E
:100F800001B3E433F58222E511451260467A01E5AA
:100F90001125E0F511E512334012F512E5829511A5
:100FA000E583951240030A80E6C3E51213F512E5C6
:100FB0001113F511C3E5829511F5F0E58395124003
:100FC00005F58385F082C3E51213F512E51113F5DB
:100FD00011DAE1221213FA700AE582458345F070B6
:100FE0000122E430D112F4700BE5F0F47006E583D1
:100FF00030E7012290800022700AE5F07006E58358
:1010000020E70122907FFF22FFA88118181213CF3A
:10101000D2D133E6400730E70B7582002220E70685
:1010200075820122C2D11213B1E97003F582222028
:10103000D101B3E433F582221214D7BC00030214A9
:1010400076EF60FA30D502B2D1E583B4FF03021423
:101050008CE582B4FF0302148C2583400724824070
:101060000B021476248314500302148CF582EA8D4B
:10107000F0A4A8F0EA8EF0A428F8E435F0F9EB8D9E
:10108000F0A428E935F0F9E433CA8FF0A429F9EA8D
:1010900035F0FAEBF88EF0A429F9EA35F0FAE433EA
:1010A000FBEC8DF0A429F9EA35F0FAE43BFBE88F7C
:1010B000F0A42AFAEB35F0FBE433CCFD8EF0A42A41
:1010C000FAEB35F0FBE43CFCED8FF0A42BFBEC35A8
:1010D000F0FC20E7031214A4021455E4AC82FBFADE
:1010E000F974860213A71214D77900E583B582023A
:1010F000800D5003121505E583C3958212151FE577
:10110000D0C465D020E117EA2DFAEB3EFBEC3FFCA2
:101110005009740112151FEC4480FC021455C3EAF7
:101120009DFAEB9EFBEC9FFC500FC3E499F9E49A07
:10113000FAE49BFBE49CFCB2D11214A40214550205
:101140001EEE85826A85836B85F06C85106D90112B
:101150003F021941C008858108E50824FBF56DE5CB
:101160000824FBF8866A08866B08866C90113F128B
:101170001941D00822C2D5E58330E70DD2D5E4C3AA
:101180009582F582E49583F583E51230E70BE4C39D
:101190009511F511E49512F512120F8730D50BE475
:1011A000C39582F582E49583F583227F9E121F0307
:1011B00030D103021476C3EF9582500974FFF5F025
:1011C000F583F58222790012151F89828A838BF0BC
:1011D000EC22AA82AB09AC0AAD0B8B828C838DF01A
:1011E000EA121F150509E4B50902050A22858209DC
:1011F00085830A85F00B850C6A850D6B850E6C85E1
:101200000F6D9011D2121941AA82AB83AC09AD0ABD
:10121000AE0B8C828D838EF0E4121F158A828B8335
:1012200022C008858108E50824F8F56DE50824FB4F
:10123000F8860908860A08860BE50824F8F8866A05
:1012400008866B08866C9011D2121941AA82AB8372
:10125000AC09AD0AAE0B8C828D838EF0E4121F15A3
:101260008A828B83D00822A8811818C6B2E7C602EA
:1012700010E6AC83AB827A007900748E021F3712BD
:1012800014D730D502B2D1BF0009BC0003021499B3
:1012900002148CBC0003021476E583B4FF0BE582D4
:1012A000B4FF03021499021476E582B4FF0302141A
:1012B0008CC395835007247F400B0214762480143E
:1012C000500302148CC0E0E4CCCBCAF98D118E120D
:1012D0008F13EF54F0C4F5147583068514F0EB8476
:1012E000F582E9C4F9EAC4FAEBC4FBEC540FC47804
:1012F00003D6FC18EBD6FB18EAD6FA8582F0EDA4EB
:10130000A8F0FD8582F0EEA428FEE435F0F8858291
:10131000F0EFA428FFE435F0F8E99DF9EA9EFAEB36
:101320009FFBEC98FCAD11AE12AF1330E7101582A5
:10133000E92DF9EA3EFAEB3FFBE43CFC80EDC0828C
:10134000D58398C3E933F9EA33FAEB33FBEC33FC8A
:10135000C3E99DEA9EEB9FEC9400B3E413F9D0023D
:10136000D0E0C44AFAD003D0E0C44BFBD004D0E0B4
:10137000F5F0540FC44CFCD082158230F40FD3EC3E
:1013800013FCEB13FBEA13FAE913F90582E930E7E2
:101390000A74012AFAE43BFBE43CFC02146DFCAB4A
:1013A000F0AA83A982749EC2D1F5821214A40214F9
:1013B000557901AA82E68F82B5821318E6B5F00E40
:1013C00018E6B5830918E68A82B58202790022B44C
:1013D000800FE5F0700AE5837006E58270027F00F9
:1013E000EFB6801518B6001018B6000B18B6000638
:1013F00008080876002208080822121F03C3749EFA
:1014000095824039790012151F30D126E9F4240164
:10141000F582EAF43400F583EBF43400F5F0ECF4F3
:101420003400700AE582458345F0700122E430E71C
:101430000F22EC20E71489828A838BF02230D10AB4
:10144000E4F582F583F5F074802274FFF582F5836C
:10145000F5F0747F22B98003EA13B34010EA240147
:10146000FAE43BFBE43CFC50047C800582BC000EAB
:10147000BB000BBA0008E4F5F0F583F58222A2D197
:10148000E582138CF092F78B838A8222E4F583F550
:101490008275F080F4A2D11322E4F583F58275F011
:1014A000C0747F227804EC7011E58224F8500AF5AC
:1014B00082E4C9CACBFCD8EF22EC7820058220E771
:1014C00013D5820122C3E933F9EA33FAEB33FBEC9B
:1014D00033FCD8EA158222AA82AB83A2F73392D1D9
:1014E0006002D2F7F582ACF0E58124F9F8E6FD0858
:1014F000E6FE0886F008E6A2F73392D56002D2F73E
:10150000F583AFF022E582C583F582A2D133A2D55F
:1015100092D11392D5ECCFFCEBCEFBEACDFA226050
:1015200040F82582500274FFF582E824F8501ECC62
:10153000CBCAF9E4CC24F85014CBCAF9E4CB24F894
:10154000500BCAF9E4CA24F8500379002224086039
:1015500010F8C3EC13FCEB13FBEA13FAE913F9D808
:10156000F122AA827473C0E07415C0E0C05CC05D53
:101570008A82220563E4B56302056422AA8274307C
:101580002AFA24C6500A74072AFA300103430220BB
:101590008A82021562E582FAC4540FF582C00212F3
:1015A000157CD002740F5AF58202157CAA5EAB5FDF
:1015B000AC60AD61AE62756920EE2EFEED23540184
:1015C000FF4206EA2AFAEB33FBEC33FCED33FDC3B2
:1015D000EE95654008EEC39565FE430201D569D9D5
:1015E0008A5E8B5F8C608D618E6222787AE624D071
:1015F00075F00AA4FA787BE624D02AFA7879860373
:10160000BB2D04C3E49AFA756501C3E464808AF0D3
:1016100063F08095F050297569038A0374F6256993
:10162000401C0565E56914246EF8E569246EF987A8
:1016300004A604772E1BEBFA6004056980DE8B029A
:10164000EA30E70D786F86037870A603786F762E00
:101650000AE567600AE56704FB2565F565800530E6
:101660000C020565786E8603E4BB2D0104FB700651
:1016700020070330080205653005030217323006E3
:1016800057EB600C75822DC002121562D002801CCF
:1016900030070C75822BC002121562D002800D300B
:1016A000080A758220C002121562D002786F860483
:1016B000BC2E0C758230C002121562D0021566ACC9
:1016C000661566C3E5659C4003021776758230C0D7
:1016D00002121562D00280E7AC661566C3E5659C10
:1016E000500C758220C002121562D00280EA786E1A
:1016F0008604BC2D0C75822DC002121562D00280AA
:101700001C30070C75822BC002121562D002800DAE
:1017100030080A758220C002121562D002786F86E6
:1017200004BC2E52758230C002121562D0021566BA
:101730008044EB600E75822DC002121562D0021536
:1017400066802030070E75822BC002121562D0020F
:101750001566800F30080C758220C002121562D009
:10176000021566786F8603BB2E0C758230C002129C
:101770001562D0021566756901C20EE569246EF81E
:101780008603BB4503021833BB2E348A03C3E464CB
:10179000808BF063F08095F0500F758230C003129B
:1017A0001562D0031B8B0280E48B02D20EE56770BA
:1017B00038200C0302183375822E121562807430A3
:1017C0000E278A03EB30E71FC3E464808567F0636C
:1017D000F08095F0500C758230C003121562D00372
:1017E00015670B8B0280DD8B02300E0EC3E4648024
:1017F0008567F063F08095F05021E569246EF886E6
:10180000038B82C002121562D002300E0EE56924ED
:101810006EF88603BB2E02800215671566C3E4646A
:10182000808567F063F08095F04003200E05056920
:1018300002177BC3E464808567F063F08095F05005
:101840000A758230121562156780E830050FAA66A6
:101850001566EA600875822012156280F122E5673C
:101860007003300C0D74072567FAE566C39AF566B8
:101870008006E56624FAF566756900786E8602BA18
:101880002B0F20070C786E7620200805756901055E
:1018900066200519AA66C3E464808AF063F0809527
:1018A000F0500A758220121562156680E7C20EE5B7
:1018B00069246EF88602BA00028069BA451F3001B9
:1018C000027665C3E464808567F063F08095F0502C
:1018D0000A758230121562156780E8D20EC3E56979
:1018E0009402E433FA7014EA700EC3E464808567EE
:1018F000F063F08095F04003300E16E569246EF831
:1019000086028A82121562E56924FD5012156780ED
:101910000E7402B56909300C0675822E1215620527
:10192000690218AF300519AA66C3E464808AF063BF
:10193000F08095F0500A758220121562156680E7D6
:101940002285825C85835DE4F563F564AA6AAB6BEE
:10195000AC6C8A828B838CF0120F2FFD74012AF5F8
:101960006AE43BF56B8C6CEDFA7003021EE7BA2556
:10197000028003021EDFC205C206C207C208C209F6
:10198000C20AC20BC20CC202C203C2047565007552
:1019900066007567FFAB6AAC6BAD6C8B828C838D18
:1019A000F0120F2FFAA3AB82AC838B6A8C6B8D6C19
:1019B000BA25078A8212156280928A06BE300040DC
:1019C0002E8A06EE24C6402774FFB56713E56675B8
:1019D000F00AA4FEEA24D02EF56670BFD20680BBC2
:1019E000E56775F00AA4FEEA24D02EF56780ACBA4C
:1019F0002E0A74FFB567A4756700809F8A06BE61D2
:101A000000400E8A06EE248540075302DFD2018093
:101A100002C201BA20028075BA2303021A9CBA2AB4
:101A200003021AA1BA2B02805FBA2D028055BA4276
:101A300002805FBA4303021AE6BA4403021C21BAC9
:101A40004503021C3BBA4603021C37BA4703021C7B
:101A50003FBA4903021C21BA4C02803BBA4E030232
:101A60001C43BA4F03021C28BA5003021BBABA53D4
:101A700003021B0ABA5503021C2DBA5803021C327A
:101A8000021C6DD20502199BD20702199BD20802D3
:101A9000199BD20A02199BD20B02199BD20C021974
:101AA0009B74FFB56720300A0BE56D14F8886D86CE
:101AB0006602199BE56D24FEF8886D860608860788
:101AC000188E6602199B300A0BE56D14F8886D8636
:101AD0006702199BE56D24FEF8886D860608860767
:101AE000188E6702199B300A0AE56D14F8886D8616
:101AF00002800FE56D24FEF8886D860308860418C1
:101B00008B028A82121562021C72E56D24FDF88830
:101B10006D860308860408860518188B5E8C5F8D19
:101B2000608B828C838DF012207AAB82AC838B68C1
:101B300074FFB5670385686720051DC3E568956672
:101B40005016E566C39568F566AB661566EB6008EA
:101B500075822012156280F1855E82855F838560C3
:101B6000F0120F2FFBFA6029AB671567C3E464809E
:101B70008BF063F08095F050188A82121562AB5E8C
:101B8000AC5FAD600BBB00010C8B5E8C5F8D608029
:101B9000C7200503021C72C3E56895664003021C5A
:101BA00072E566C39568F566AB661566EB70030271
:101BB0001C7275822012156280EEE56D24FDF88896
:101BC0006D860308860408860518188B5E8C5F8D69
:101BD00060E560FB30E7047A438013EB54606004F7
:101BE0007A50800AEB30E6047A4980027A588A8279
:101BF000C00212156275823A121562758230121592
:101C000062758278121562D002BA4902800BBA500E
:101C1000028006855F82121595855E821215958079
:101C200051D20975650A804A756508804575650A4F
:101C30008040756510803BD2028037D2038033D25A
:101C400004802FE56D24FDF8886D8603088604085E
:101C5000860518188B5E8C5F8D608B828C838DF06F
:101C6000E563121F15A3E564121F1580058A821211
:101C70001562200206200303300470E56D24FCF891
:101C8000886D8603088604088605088606181818D5
:101C90008B5E8C5F8D608E61E55EE55FE560E56182
:101CA0008B828C838DF0EE121F5B74FFB56703751A
:101CB0006706300427747F5561FB8B62E562EB2B6E
:101CC000FB8B62E56030E70674014562F562E56210
:101CD00024684006749925624002D203300306123C
:101CE000185E02194C1215EB02194CE565700302DF
:101CF000194C7B73300A2BE56D14F8886DE6FC33C4
:101D000095E0FDFEFF8C5E8D5F8E608F6120095E29
:101D1000AC5E7D007E007F008C5E8D5F8E608F618B
:101D2000804C300B1FE56D24FCF8886D8604088616
:101D3000050886060886071818188C5E8D5F8E6069
:101D40008F61802AE56D24FEF8886D86040886057B
:101D500018ED3395E0FEFF8C5E8D5F8E608F612005
:101D6000090CAC5EAD5F7E007F008E608F61300C31
:101D700043E55E455F4560456160397408B5650CB3
:101D8000758230C003121562D00380287410B565C7
:101D900023758230C003121562D00330010C7582A6
:101DA00078C003121562D003800A758258C00312EE
:101DB0001562D003300925AC5EAD5FAE60E561FF12
:101DC00030E717C3E49CFCE49DFDE49EFEE49FFF26
:101DD0008C5E8D5F8E608F618002C209756800D253
:101DE0000D8B00756200C0001215ACD000200D0DE7
:101DF000E562C4FCE6FD4CF61888038002A6620585
:101E000068B20DE55E455F4560456170D68803E5C3
:101E100066700375660120061A200517E56804FC44
:101E2000C39566500E758220C003121562D003154B
:101E30006680E930090E75822DC003121562D00349
:101E400015668024E568602030070E75822BC0037C
:101E5000121562D0031566800F30080C758220C001
:101E600003121562D003156620051EAC661566C305
:101E7000E5689C50273006047C3080027C208C82F0
:101E8000C003121562D00380E2C3E568956650096D
:101E9000E566C39568F56680037566008B00AB68E0
:101EA0001568EB6022B20D200D0A08E6C4540FFB42
:101EB0008B6280078603740F5BF562856282C000C7
:101EC00012157CD00080D720050302194CAB661593
:101ED00066EB700302194C75822012156280EE8A3F
:101EE0008212156202194C85638285648322AA825C
:101EF000BA0A0810990280FB75990D10990280FBAF
:101F00008A9922AA82AB83A2F73392D16002D2F7D8
:101F1000F582ACF02220F71030F6118883A88220D9
:101F2000F507F6A88375830022F280F7F022FCAB58
:101F3000F0AA83A982749EF582C2D1EC30E716D252
:101F4000D1E9F42401F9EAF43400FAEBF43400FBAB
:101F5000ECF43400FC1214A4021455C0E0F84582DD
:101F6000458345F07009F5F0FBFCFDFE022029E8F1
:101F700023A2F792E0F8A982AA83D2F7ABF07C0003
:101F80007E07C3749798404074FF2EFE740A89F050
:101F9000A4F985F082740A8AF0A4FA85F083740AA1
:101FA0008BF0A4FB740529F9EA3582FAEB3583FB43
:101FB000740035F0FCC3EC13FCEB13FBEA13FAE9F5
:101FC00013F908EC70EF80BAE8C3947FF88B838E26
:101FD000F0E4FBFCFDFEFF08C3E933F9EA33FAE560
:101FE0008333F583EB3BD4FBEC3CD4FCED3DD4FDDB
:101FF000EE3ED4FEEF3FD4FF602D05F074052BD4E8
:10200000FBE43CD4FCE43DD4FDE43ED4FEE43FD408
:10201000FF758204C3EF13FFEE13FEED13FDEC1307
:10202000FCEB13FBD582EDD8AF786ED0E020E7044F
:10203000762B8002762D087906E7C4540F4430F6DB
:1020400008B90603762E08E7540F4430F60819B98C
:1020500002E7764508E5F020E704762B8004762D2C
:10206000F4040875F00A844430F608E5F04430F6CC
:1020700008E4F690006E75F04022AA82AB83ACF0C3
:102080007D007E008A828B838CF0120F2FFFA3AA23
:1020900082AB83EF60070DBD00EA0E80E78D828E74
:1020A000832200000000000000000000000000008B
:00000001FF
