:100000000200037581751201BDE582600302006F75
:10001000780079007A007B007C007D00EC4D601C4C
:1000200088828983E493A3A882A9838A828B83F040
:10003000A3AA82AB831CBCFFE31D80E07582007520
:1000400083007C007D00EC4D600AE4F0A31CBCFF43
:10005000F51D80F27582007583007C007D00EC4DFB
:10006000600AE4F0A31CBCFFF51D80F21201BC1273
:1000700004BC80FE1B5B324A00414443207465731C
:10008000742070726F6772616D0A46696C653A2000
:1000900025730A436F6D70696C65643A2025732C73
:1000A0002025730A0A00433A5C55736572735C63DA
:1000B0006F7372335C446F63756D656E74735C4708
:1000C00069744875625C454C45432D3239312D4C7D
:1000D0006162355C45464D385F4144432E63004DB7
:1000E000617220203520323032340030343A3130E1
:1000F0003A303000506572696F642854293A2020E4
:1001000025372E3666206D7320204672657128666D
:10011000293A202025372E36662073200A00312FF9
:100120003420506572696F643A2025372E36662078
:100130006D730A0056726D732028726566293A2025
:100140002025342E34662056202056726D732028C8
:1001500073706C293A2025342E34662056200A000C
:10016000506861736520446966666572656E636593
:100170003A2025372E3666206465677265657320E0
:1001800020506861736520646966662074696D65D6
:100190003A2025372E36662073200A001B5B41006B
:1001A00052663A2532642053703A25326420487AE8
:1001B0000056723A25342E34662056002275A70068
:1001C0007597DE7597AD75FF8075EF0675A710758D
:1001D000C12075A70075A90075A900E5A930E7FB46
:1001E00075A90375A903E5A930E7FB43A41075E1E0
:1001F0000175E20075E340759810758DE6858D8B6D
:1002000053890F438920D28ED2997582002275A717
:1002100000C2EF75B28075BC2075B91E75E8007517
:10022000DF3F75B300D2EF22AA82438E407592B8A9
:100230007593FF8592948593957591047B00C3EB2C
:100240009A500BE59130E7FB53917F0B80F075914D
:100250000022AA82AB837C007D00C3EC9AED9B5008
:100260002B7E00BE0400501D7582FAC002C003C080
:1002700004C005C006120228D006D005D004D00361
:10028000D0020E80DE0CBC00D10D80CE22AA82AB43
:1002900083ACF0FD7E007F0078007900C3EE9AEF1A
:1002A0009BE89CE99D5035758264C002C003C00480
:1002B000C005C006C007C000C001120228D001D08E
:1002C00000D007D006D005D004D003D0020EBE0067
:1002D000CB0FBF00C708B800C30980C0225389F004
:1002E000438901C28C22AA828511F005F074018035
:1002F0000225E0D5F0FBFB75A720BA0002800ABA00
:100300000102800FBA021E8014EBF4FA52F1EB42A4
:10031000D48012EBF4FA52F2EB42D58008EBF4FAF7
:1003200052F3EB42CC75A700228582BBC2EDD2EC22
:1003300030EDFD85BD8285BE8322120329120CF5A6
:10034000AA82AB83ACF0FDC002C003C004C005901C
:100350006C8B75F0537440120DE2AA82AB83ACF043
:10036000FDE58124FCF581E4C0E074FCC0E0747F0D
:10037000C0E07446C0E08A828B838CF0ED121029B5
:10038000AA82AB83ACF0FDE58124FCF5818A828BE7
:10039000838CF0ED22D2A0758228120228C2A022FE
:1003A000AA828AE0A2E79290A2E69291A2E59292B6
:1003B000A2E49293C002120395758228120228D0FB
:1003C000028AE0A2E39290A2E29291A2E19292A22A
:1003D000E09293020395AA82D2978A821203A09098
:1003E0000002020252AA82C2978A821203A09000DF
:1003F00005020252C2A090001412025275823312FA
:1004000003E57582331203E57582321203E57582C6
:10041000281203E575820C1203E57582011203E5CB
:10042000900014020252AA82AB83ACF07402B5238E
:10043000047DC080027D808D82C002C003C0041292
:1004400003E5900005120252D004D003D0027D00D3
:100450007E00ED2AFFEE3BF88C018F82888389F0C5
:10046000120CD9FF60208F82C002C003C004C005F7
:10047000C0061203D6D006D005D004D003D0020D9A
:10048000BD00CF0E80CC3000248D028E03C3EA94D1
:1004900010EB648094805015758220C002C0031256
:1004A00003D6D003D0020ABA00E30B80E022C2EDEB
:1004B000D2EC30EDFD85BD8285BE83221203F4129D
:1004C00002DD9001F41202527474C0E07400C0E0C6
:1004D0007480C0E0120EFE15811581158174EBC089
:1004E000E07400C0E07480C0E074DFC0E07400C05D
:1004F000E07480C0E074A6C0E07400C0E07480C006
:10050000E07479C0E07400C0E07480C0E0120EFEB8
:10051000E58124F4F5817511027582021202E675F7
:1005200011037582021202E675110475820212022D
:10053000E67511057582021202E6751101758200D9
:100540001202E612020E75440075454075461C7590
:10055000474675BB12C2EDD2EC30EDFD1204AEE59C
:10056000828583F045F070F41204AEE5828583F055
:1005700045F060F4752200758A00758C00D28C12EB
:1005800004AEE5828583F045F06009108D0280EFAE
:10059000052280EBC28C852282120E85AE82AF834B
:1005A000A8F0F9C006C007C000C00190000075F0B7
:1005B000807447120DE2AE82AF83A8F0F9E5812482
:1005C000FCF581858C82C006C007C000C001120EF8
:1005D00085AA82AB83ACF0FDC002C003C004C00595
:1005E00090000075F0807443120DE2AA82AB83ACD8
:1005F000F0FDE58124FCF581D001D000D007D006C4
:10060000C002C003C004C0058E828F8388F0E91247
:100610000E90AA82AB83ACF0FDE58124FCF581AE9F
:100620008A7F008E828F83C002C003C004C005127F
:10063000101CAE82AF83A8F0F9D005D004D003D04F
:1006400002C006C007C000C0018A828B838CF0ED17
:10065000120E90AA82AB83ACF0FDE58124FCF581FB
:10066000C002C003C004C00590F4FC75F0327434BD
:10067000120DE2AA82AB83ACF0FDE58124FCF5818A
:10068000752200758A00758C00C002C003C004C0CA
:1006900005900000E4F5F07440120DE28582388583
:1006A000833985F03AF53BE58124FCF5817417C068
:1006B000E074B7C0E07451C0E07439C0E08538829E
:1006C000853983853AF0E53B120D01AE82E5812440
:1006D000FCF581EE700E85443885453985463A85AE
:1006E000473B800C853844853945853A46853B47EC
:1006F000C038C039C03AC03B90000075F080743FEC
:1007000012102985823C85833D85F03EF53FE581C9
:1007100024FCF581E4C0E0C0E07480C0E07440C017
:10072000E0853882853983853AF0E53B12102985CA
:10073000824085834185F042F543E58124FCF581C3
:10074000C2EDD2EC30EDFD1204AEE5828583F045BA
:10075000F070F41204AEE5828583F045F060F47524
:1007600082141202281204AEE5828583F045F060FF
:10077000D6C040C041C042C04390400075F01C74D8
:1007800046120DE2AE82AF83A8F0F9E58124FCF5B4
:10079000818E828F8388F0E9120F55AE82AF83A8D5
:1007A000F0F9C006C007C000C00112028D758212A8
:1007B00012033AAA82AB83ACF0FDC002C003C004AE
:1007C000C0059004F375F035743F120DE285824C3C
:1007D00085834D85F04EF54FE58124FCF581900031
:1007E00032120252D001D000D007D00675BB11C220
:1007F000EDD2EC30EDFDC006C007C000C001120410
:10080000AEE5828583F0D001D000D007D00645F058
:1008100070E4C006C007C000C0011204AEE58285C6
:1008200083F0D001D000D007D00645F060E4758297
:1008300014C006C007C000C0011202281204AEE5B1
:10084000828583F0D001D000D007D00645F060A6A5
:100850008E828F8388F0E912028D75821112033A1D
:10086000AE82AF83A8F0F9C006C007C000C00190F7
:1008700004F375F035743F120DE285824885834993
:1008800085F04AF54BE58124FCF581C2EDD2EC30D0
:10089000EDFD1204AEE5828583F045F070F412049C
:1008A000AEE5828583F045F060F47582141202286B
:1008B0001204AEE5828583F045F060D6752200759E
:1008C0008A00758C00D28CD28075BB12C2EDD2EC3E
:1008D00030EDFD1204AEE5828583F045F070F41230
:1008E00004AEE5828583F045F07009108D0280EF3B
:1008F000052280EB7582141202281204AEE582856F
:1009000083F045F060CDC28CC280852282120E85B4
:10091000AE82AF83A8F0F9C006C007C000C0019046
:10092000000075F0807447120DE2AE82AF83A8F02C
:10093000F9E58124FCF581858C82C006C007C000E2
:10094000C001120E85AA82AB83ACF0FDC002C003C9
:10095000C004C00590000075F0807443120DE2AA37
:1009600082AB83ACF0FDE58124FCF581D001D000A1
:10097000D007D006C002C003C004C0058E828F839A
:1009800088F0E9120E90AA82AB83ACF0FDE58124D9
:10099000FCF581AE8A7F008E828F83C002C003C0C7
:1009A00004C00512101CAE82AF83A8F0F9D005D0A8
:1009B00004D003D002C006C007C000C0018A828BE9
:1009C000838CF0ED120E90AA82AB83ACF0FDE58132
:1009D00024FCF581C002C003C004C00590F4FC757E
:1009E000F0327434120DE2AA82AB83ACF0FDE581E3
:1009F00024FCF58174ACC0E074C5C0E074A7C0E00D
:100A00007437C0E08A828B838CF0ED120E90858261
:100A10005085835185F052F553E58124FCF581C062
:100A200050C051C052C05390000075F0B4744312CE
:100A30000DE2AE82AF83A8F0F9E58124FCF581C018
:100A400038C039C03AC03B8E828F8388F0E91210DB
:100A500029AE82AF83A8F0F9E58124FCF581758A7F
:100A600000758C00752200C006C007C000C001E4FC
:100A7000C0E0C0E07434C0E074C3C0E08E828F83F5
:100A800088F0E9120DB2AA82E58124FCF581D0013B
:100A9000D000D007D006EA6026E4C0E0C0E074B41D
:100AA000C0E07443C0E08E828F8388F0E9120E901C
:100AB000AE82AF83A8F0F9E58124FCF58180A8C05F
:100AC00006C007C000C001E4C0E0C0E07434C0E06C
:100AD0007443C0E08E828F8388F0E9120D01AA82F0
:100AE000E58124FCF581D001D000D007D006EA6072
:100AF00026E4C0E0C0E074B4C0E07443C0E08E827D
:100B00008F8388F0E9121011AE82AF83A8F0F9E567
:100B10008124FCF58180A8C006C007C000C001C0C8
:100B200038C039C03AC03B90000075F07A74441266
:100B30000DE2AA82AB83ACF0FDE58124FCF581C017
:100B40003CC03DC03EC03FC002C003C004C00574ED
:100B5000F4C0E07400C0E07480C0E0120EFEE581D5
:100B600024F5F581C040C041C042C04390000075EB
:100B7000F07A7444120DE2AA82AB83ACF0FDE581F9
:100B800024FCF581C002C003C004C005741EC0E08F
:100B90007401C0E07480C0E0120EFEE58124F9F516
:100BA00081C048C049C04AC04BC04CC04DC04EC0B7
:100BB0004F7434C0E07401C0E07480C0E0120EFED7
:100BC000E58124F5F581D001D000D007D006C050D2
:100BD000C051C052C053C006C007C000C0017460FD
:100BE000C0E07401C0E07480C0E0120EFEE5812414
:100BF000F5F581749CC0E07401C0E07480C0E0121F
:100C00000EFE158115811581749CC0E07401C0E051
:100C10007480C0E0120EFE158115811581749CC090
:100C2000E07401C0E07480C0E0120EFE15811581F1
:100C30001581749CC0E07401C0E07480C0E0120EA5
:100C4000FE158115811581853C82853D83853EF0A9
:100C5000E53F120D7E7511E8751203120F1FAA826F
:100C6000AB83C002C003C002C00374A0C0E0740123
:100C7000C0E07480C0E07424C0E07400C0E0744040
:100C8000C0E0120FCBE58124F6F581752301D20077
:100C900090002475F040120426C04CC04DC04EC0D8
:100CA0004F74B1C0E07401C0E07480C0E07424C02F
:100CB000E07400C0E07440C0E0120FCBE58124F680
:100CC000F581752302D20090002475F040120426AD
:100CD0009001F412025202055220F71430F61488E3
:100CE00083A88220F507E6A88375830022E280F7B7
:100CF000E49322E022E4AC83AB82FAF9748E021111
:100D000051FFA8811818121179D2D133E64007306B
:100D1000E70B7582012220E70675820022C2D112FC
:100D2000115BE97003F5822230D101B3E433F5821F
:100D300022E511451260467A01E51125E0F511E53D
:100D400012334012F512E5829511E58395124003A6
:100D50000A80E6C3E51213F512E51113F511C3E598
:100D6000829511F5F0E58395124005F58385F082B3
:100D7000C3E51213F512E51113F511DAE122121190
:100D8000A4700AE582458345F0700122E430D11257
:100D9000F4700BE5F0F47006E58330E701229080F3
:100DA0000022700AE5F07006E58320E70122907FBB
:100DB000FF22FFA8811818121179D2D133E640071B
:100DC00030E70B7582002220E70675820122C2D12E
:100DD00012115BE97003F5822220D101B3E433F5EF
:100DE0008222121281BC0003021220EF60FA30D579
:100DF00002B2D1E583B4FF03021236E582B4FF03E9
:100E0000021236258340072482400B0212202483DD
:100E1000145003021236F582EA8DF0A4A8F0EA8E8F
:100E2000F0A428F8E435F0F9EB8DF0A428E935F0CA
:100E3000F9E433CA8FF0A429F9EA35F0FAEBF88E19
:100E4000F0A429F9EA35F0FAE433FBEC8DF0A4299B
:100E5000F9EA35F0FAE43BFBE88FF0A42AFAEB3527
:100E6000F0FBE433CCFD8EF0A42AFAEB35F0FBE482
:100E70003CFCED8FF0A42BFBEC35F0FC20E70312DB
:100E8000124E0211FFE4AC82FBFAF9748602115192
:100E90001212817900E583B58202800D500312128F
:100EA000AFE583C395821212C9E5D0C465D020E1B5
:100EB00017EA2DFAEB3EFBEC3FFC500974011212CD
:100EC000C9EC4480FC0211FFC3EA9DFAEB9EFBECE7
:100ED0009FFC500FC3E499F9E49AFAE49BFBE49C6D
:100EE000FCB2D112124E0211FF021C98858262855B
:100EF000836385F064851065900EE90216EBC008E7
:100F0000858108E50824FBF565E50824FBF8866281
:100F1000088663088664900EE91216EBD00822C298
:100F2000D5E58330E70DD2D5E4C39582F582E4950B
:100F300083F583E51230E70BE4C39511F511E495D1
:100F400012F512120D3130D50BE4C39582F582E40F
:100F50009583F583227F9E121CAD30D103021220AF
:100F6000C3EF9582500974FFF5F0F583F58222797D
:100F7000001212C989828A838BF0EC22AA82AB0903
:100F8000AC0AAD0B8B828C838DF0EA121CBF050975
:100F9000E4B50902050A2285820985830A85F00BDA
:100FA000850C62850D63850E64850F65900F7C123C
:100FB00016EBAA82AB83AC09AD0AAE0B8C828D8393
:100FC0008EF0E4121CBF8A828B8322C008858108C0
:100FD000E50824F8F565E50824FBF8860908860A83
:100FE00008860BE50824F8F886620886630886649C
:100FF000900F7C1216EBAA82AB83AC09AD0AAE0B44
:101000008C828D838EF0E4121CBF8A828B83D00881
:1010100022A8811818C6B2E7C6020E90AC83AB8234
:101020007A007900748E021CE112128130D502B26E
:10103000D1BF0009BC0003021243021236BC0003F8
:10104000021220E583B4FF0BE582B4FF03021243D2
:10105000021220E582B4FF03021236C395835007C3
:10106000247F400B0212202480145003021236C049
:10107000E0E4CCCBCAF98D118E128F13EF54F0C47B
:10108000F5147583068514F0EB84F582E9C4F9EA5A
:10109000C4FAEBC4FBEC540FC47803D6FC18EBD6AF
:1010A000FB18EAD6FA8582F0EDA4A8F0FD8582F05F
:1010B000EEA428FEE435F0F88582F0EFA428FFE4E2
:1010C00035F0F8E99DF9EA9EFAEB9FFBEC98FCAD50
:1010D00011AE12AF1330E7101582E92DF9EA3EFA8E
:1010E000EB3FFBE43CFC80EDC082D58398C3E93341
:1010F000F9EA33FAEB33FBEC33FCC3E99DEA9EEBF0
:101100009FEC9400B3E413F9D002D0E0C44AFAD0C3
:1011100003D0E0C44BFBD004D0E0F5F0540FC44C36
:10112000FCD082158230F40FD3EC13FCEB13FBEAF6
:1011300013FAE913F90582E930E70A74012AFAE49F
:101140003BFBE43CFC021217FCABF0AA83A98274BF
:101150009EC2D1F58212124E0211FF7901AA82E6D7
:101160008F82B5821318E6B5F00E18E6B58309181C
:10117000E68A82B58202790022B4800FE5F0700A17
:10118000E5837006E58270027F00EFB6801518B621
:10119000001018B6000B18B60006080808760022E2
:1011A00008080822121CADC3749E9582403979004C
:1011B0001212C930D126E9F42401F582EAF4340090
:1011C000F583EBF43400F5F0ECF43400700AE582BA
:1011D000458345F0700122E430E70F22EC20E7144C
:1011E00089828A838BF02230D10AE4F582F583F577
:1011F000F074802274FFF582F583F5F0747F22B9D4
:101200008003EA13B34010EA2401FAE43BFBE43C18
:10121000FC50047C800582BC000EBB000BBA0008A9
:10122000E4F5F0F583F58222A2D1E582138CF092E9
:10123000F78B838A8222E4F583F58275F080F4A22D
:10124000D11322E4F583F58275F0C0747F2278040F
:10125000EC7011E58224F8500AF582E4C9CACBFC8F
:10126000D8EF22EC7820058220E713D5820122C333
:10127000E933F9EA33FAEB33FBEC33FCD8EA1582B5
:1012800022AA82AB83A2F73392D16002D2F7F58211
:10129000ACF0E58124F9F8E6FD08E6FE0886F008E2
:1012A000E6A2F73392D56002D2F7F583AFF022E5DC
:1012B00082C583F582A2D133A2D592D11392D5EC07
:1012C000CFFCEBCEFBEACDFA226040F8258250023B
:1012D00074FFF582E824F8501ECCCBCAF9E4CC2484
:1012E000F85014CBCAF9E4CB24F8500BCAF9E4CA7D
:1012F00024F8500379002224086010F8C3EC13FC92
:10130000EB13FBEA13FAE913F9D8F122AA82741D50
:10131000C0E07413C0E0C054C0558A8222055BE46B
:10132000B55B02055C22AA8274302AFA24C6500AF0
:1013300074072AFA3001034302208A8202130CE563
:1013400082FAC4540FF582C002121326D002740F21
:101350005AF582021326AA56AB57AC58AD59AE5A6D
:10136000756120EE2EFEED235401FF4206EA2AFAB3
:10137000EB33FBEC33FCED33FDC3EE955D4008EE43
:10138000C3955DFE430201D561D98A568B578C58AF
:101390008D598E5A227872E624D075F00AA4FA7814
:1013A00073E624D02AFA78718603BB2D04C3E49A2D
:1013B000FA755D01C3E464808AF063F08095F050B3
:1013C000297561038A0374F62561401C055DE5619A
:1013D000142466F8E5612466F98704A604772E1BB9
:1013E000EBFA6004056180DE8B02EA30E70D786776
:1013F00086037868A6037867762E0AE55F600AE5BB
:101400005F04FB255DF55D8005300C02055D7866A7
:101410008603E4BB2D0104FB70062007033008029D
:10142000055D3005030214DC300657EB600C758255
:101430002DC00212130CD002801C30070C75822BB9
:10144000C00212130CD002800D30080A758220C031
:101450000212130CD00278678604BC2E0C75823001
:10146000C00212130CD002155EAC5E155EC3E55DC2
:101470009C4003021520758230C00212130CD0026A
:1014800080E7AC5E155EC3E55D9C500C758220C0A4
:101490000212130CD00280EA78668604BC2D0C750B
:1014A000822DC00212130CD002801C30070C7582F2
:1014B0002BC00212130CD002800D30080A75822056
:1014C000C00212130CD00278678604BC2E527582BB
:1014D00030C00212130CD002155E8044EB600E7512
:1014E000822DC00212130CD002155E802030070E30
:1014F00075822BC00212130CD002155E800F3008CB
:101500000C758220C00212130CD002155E7867861B
:1015100003BB2E0C758230C00212130CD002155E74
:10152000756101C20EE5612466F88603BB450302BE
:1015300015DDBB2E348A03C3E464808BF063F08036
:1015400095F0500F758230C00312130CD0031B8B23
:101550000280E48B02D20EE55F7038200C03021586
:10156000DD75822E12130C8074300E278A03EB3047
:10157000E71FC3E46480855FF063F08095F0500C52
:10158000758230C00312130CD003155F0B8B0280E1
:10159000DD8B02300E0EC3E46480855FF063F08063
:1015A00095F05021E5612466F886038B82C0021213
:1015B000130CD002300E0EE5612466F88603BB2EB4
:1015C000028002155F155EC3E46480855FF063F0FE
:1015D0008095F04003200E050561021525C3E464E3
:1015E00080855FF063F08095F0500A7582301213A9
:1015F0000C155F80E830050FAA5E155EEA6008757D
:10160000822012130C80F122E55F7003300C0D7400
:1016100007255FFAE55EC39AF55E8006E55E24FA6B
:10162000F55E75610078668602BA2B0F20070C788C
:10163000667620200805756101055E200519AA5E01
:10164000C3E464808AF063F08095F0500A758220CC
:1016500012130C155E80E7C20EE5612466F886025F
:10166000BA00028069BA451F3001027665C3E4649E
:1016700080855FF063F08095F0500A758230121318
:101680000C155F80E8D20EC3E5619402E433FA7072
:1016900014EA700EC3E46480855FF063F08095F017
:1016A0004003300E16E5612466F886028A82121322
:1016B0000CE56124FD5012155F800E7402B56109BE
:1016C000300C0675822E12130C0561021659300576
:1016D00019AA5EC3E464808AF063F08095F0500A32
:1016E00075822012130C155E80E722858254858353
:1016F00055E4F55BF55CAA62AB63AC648A828B83CC
:101700008CF0120CD9FD74012AF562E43BF5638C70
:1017100064EDFA7003021C91BA25028003021C8951
:10172000C205C206C207C208C209C20AC20BC20C65
:10173000C202C203C204755D00755E00755FFFAB37
:1017400062AC63AD648B828C838DF0120CD9FAA3EA
:10175000AB82AC838B628C638D64BA25078A82125C
:10176000130C80928A06BE3000402E8A06EE24C6F4
:10177000402774FFB55F13E55E75F00AA4FEEA2406
:10178000D02EF55E70BFD20680BBE55F75F00AA46F
:10179000FEEA24D02EF55F80ACBA2E0A74FFB55F46
:1017A000A4755F00809F8A06BE6100400E8A06EE27
:1017B000248540075302DFD2018002C201BA200211
:1017C0008075BA2303021846BA2A0302184BBA2BB3
:1017D00002805FBA2D028055BA4202805FBA43038D
:1017E000021890BA44030219CBBA45030219E5BAAC
:1017F00046030219E1BA47030219E9BA490302197B
:10180000CBBA4C02803BBA4E030219EDBA4F030229
:1018100019D2BA5003021964BA53030218B4BA5564
:10182000030219D7BA58030219DC021A17D20502AB
:101830001745D207021745D208021745D20A0217E8
:1018400045D20B021745D20C02174574FFB55F2035
:10185000300A0BE56514F88865865E021745E56574
:1018600024FEF888658606088607188E5E021745EE
:10187000300A0BE56514F88865865F021745E56553
:1018800024FEF888658606088607188E5F021745CD
:10189000300A0AE56514F888658602800FE565243C
:1018A000FEF888658603088604188B028A82121364
:1018B0000C021A1CE56524FDF88865860308860479
:1018C00008860518188B568C578D588B828C838D03
:1018D000F0121E24AB82AC838B6074FFB55F03856E
:1018E000605F20051DC3E560955E5016E55EC395FB
:1018F00060F55EAB5E155EEB600875822012130C1E
:1019000080F18556828557838558F0120CD9FBFAF1
:101910006029AB5F155FC3E464808BF063F0809552
:10192000F050188A8212130CAB56AC57AD580BBB53
:1019300000010C8B568C578D5880C7200503021A66
:101940001CC3E560955E4003021A1CE55EC395600A
:10195000F55EAB5E155EEB7003021A1C75822012F9
:10196000130C80EEE56524FDF8886586030886047F
:1019700008860518188B568C578D58E558FB30E7AC
:10198000047A438013EB546060047A50800AEB3091
:10199000E6047A4980027A588A82C00212130C75D2
:1019A000823A12130C75823012130C75827812135E
:1019B0000CD002BA4902800BBA50028006855782C9
:1019C00012133F85568212133F8051D209755D0A6A
:1019D000804A755D088045755D0A8040755D1080A0
:1019E0003BD2028037D2038033D204802FE56524B6
:1019F000FDF88865860308860408860518188B5646
:101A00008C578D588B828C838DF0E55B121CBFA3A5
:101A1000E55C121CBF80058A8212130C200206208E
:101A20000303300470E56524FCF8886586030886A6
:101A3000040886050886061818188B568C578D588A
:101A40008E59E556E557E558E5598B828C838DF024
:101A5000EE121D0574FFB55F03755F063004277431
:101A60007F5559FB8B5AE55AEB2BFB8B5AE55830C7
:101A7000E7067401455AF55AE55A246840067499F8
:101A8000255A4002D2033003061216080216F61237
:101A900013950216F6E55D70030216F67B6B300AAD
:101AA0002BE56514F88865E6FC3395E0FDFEFF8CB8
:101AB000568D578E588F5920095EAC567D007E009A
:101AC0007F008C568D578E588F59804C300B1FE5F8
:101AD0006524FCF88865860408860508860608865D
:101AE000071818188C568D578E588F59802AE5651F
:101AF00024FEF88865860408860518ED3395E0FE17
:101B0000FF8C568D578E588F5920090CAC56AD5707
:101B10007E007F008E588F59300C43E5564557455F
:101B200058455960397408B55D0C758230C0031290
:101B3000130CD00380287410B55D23758230C00368
:101B400012130CD00330010C758278C00312130CF1
:101B5000D003800A758258C00312130CD0033009D9
:101B600025AC56AD57AE58E559FF30E717C3E49C96
:101B7000FCE49DFDE49EFEE49FFF8C568D578E583D
:101B80008F598002C209756000D20D8B00755A0012
:101B9000C000121356D000200D0DE55AC4FCE6FD1E
:101BA0004CF61888038002A65A0560B20DE556452A
:101BB000574558455970D68803E55E7003755E0138
:101BC00020061A200517E56004FCC3955E500E75CB
:101BD0008220C00312130CD003155E80E930090E79
:101BE00075822DC00312130CD003155E8024E560AE
:101BF000602030070E75822BC00312130CD0031522
:101C00005E800F30080C758220C00312130CD003C5
:101C1000155E20051EAC5E155EC3E5609C50273046
:101C200006047C3080027C208C82C00312130CD00E
:101C30000380E2C3E560955E5009E55EC39560F5FB
:101C40005E8003755E008B00AB601560EB6022B2B6
:101C50000D200D0A08E6C4540FFB8B5A800786033B
:101C6000740F5BF55A855A82C000121326D000808B
:101C7000D72005030216F6AB5E155EEB7003021665
:101C8000F675822012130C80EE8A8212130C021653
:101C9000F6855B82855C8322AA82BA0A08109902C3
:101CA00080FB75990D10990280FB8A9922AA82AB5C
:101CB00083A2F73392D16002D2F7F582ACF02220F2
:101CC000F71030F6118883A88220F507F6A88375EF
:101CD000830022F280F7F022FCABF0AA83A9827481
:101CE0009EF582C2D1EC30E716D2D1E9F42401F995
:101CF000EAF43400FAEBF43400FBECF43400FC12A8
:101D0000124E0211FFC0E0F84582458345F070098C
:101D1000F5F0FBFCFDFE021DD3E823A2F792E0F8EC
:101D2000A982AA83D2F7ABF07C007E07C374979890
:101D3000404074FF2EFE740A89F0A4F985F0827485
:101D40000A8AF0A4FA85F083740A8BF0A4FB740568
:101D500029F9EA3582FAEB3583FB740035F0FCC3D0
:101D6000EC13FCEB13FBEA13FAE913F908EC70EF40
:101D700080BAE8C3947FF88B838EF0E4FBFCFDFE11
:101D8000FF08C3E933F9EA33FAE58333F583EB3B24
:101D9000D4FBEC3CD4FCED3DD4FDEE3ED4FEEF3F55
:101DA000D4FF602D05F074052BD4FBE43CD4FCE497
:101DB0003DD4FDE43ED4FEE43FD4FF758204C3EF7E
:101DC00013FFEE13FEED13FDEC13FCEB13FBD582BA
:101DD000EDD8AF7866D0E020E704762B8002762D30
:101DE000087906E7C4540F4430F608B90603762E86
:101DF00008E7540F4430F60819B902E7764508E5BC
:101E0000F020E704762B8004762DF4040875F00AA0
:101E1000844430F608E5F04430F608E4F6900066B5
:101E200075F04022AA82AB83ACF07D007E008A82EE
:101E30008B838CF0120CD9FFA3AA82AB83EF6007CF
:101E40000DBD00EA0E80E78D828E83220000000027
:00000001FF
