:10000000020003758181120252E582600302006FD3
:10001000780079007A007B007C007D00EC4D601C4C
:1000200088828983E493A3A882A9838A828B83F040
:10003000A3AA82AB831CBCFFE31D80E07582007520
:1000400083007C007D00EC4D600AE4F0A31CBCFF43
:10005000F51D80F27582007583007C007D00EC4DFB
:10006000600AE4F0A31CBCFFF51D80F212025112DD
:10007000059080FE1B5B324A004144432074657347
:10008000742070726F6772616D0A46696C653A2000
:1000900025730A436F6D70696C65643A2025732C73
:1000A0002025730A0A00433A5C55736572735C63DA
:1000B0006F7372335C446F63756D656E74735C4708
:1000C00069744875625C454C45432D3239312D4C7D
:1000D0006162355C45464D385F4144432E63004DB7
:1000E000617220203420323032340032323A3334DC
:1000F0003A3134006668626473686A66676469737B
:100100006866680A005265666572656E63652053AD
:1001100069676E616C20446174612020202020207A
:1001200020207C53616D706C65205369676E616C33
:1001300020446174612020202020202020202020C5
:10014000200A002D2D2D2D2D2D2D2D2D2D2D2D2D3C
:100150002D2D2D2D2D2D2D2D2D2D2D2D2D2D2D2DCF
:100160002D2D2D2D2D2D2D2D2D2D2D2D2D2D2D2DBF
:100170002D2D2D2D2D2D2D2D2D2D2D2D0A005265A2
:100180006620506572696F642854293A202025370B
:100190002E3666207320207C2053706C20506572B0
:1001A000696F642854293A202025372E366620733B
:1001B000200A005265662046726571286629202053
:1001C0003A202025372E366620487A207C2053702E
:1001D0006C204672657128662920203A2020253738
:1001E0002E366620487A0A00566D6178202872659E
:1001F00066292020203A202025342E346620560AF5
:1002000000506861736520446966666572656E6357
:10021000653A2025372E36662064656772656573FA
:100220000A001B5B411B5B411B5B411B5B411B5B72
:10023000411B5B410052663A2532642053703A25D7
:10024000326420487A0056723A25342E346620569D
:10025000002275A7007597DE7597AD75FF8075EF65
:100260000675A71075C12075A70075A90075A900AE
:10027000E5A930E7FB75A90375A903E5A930E7FBFC
:1002800043A41075E10175E20075E340759810759F
:100290008DE6858D8B53890F438920D28ED2997537
:1002A00082002275A700C2EF75B28075BC2075B9B7
:1002B0001E75E80075DF3F75B300D2EF22AA8243B6
:1002C0008E407592B87593FF85929485939575913C
:1002D000047B00C3EB9A500BE59130E7FB53917F11
:1002E0000B80F075910022AA82AB837C007D00C355
:1002F000EC9AED9B502B7E00BE0400501D7582FAD7
:10030000C002C003C004C005C0061202BDD006D0A2
:1003100005D004D003D0020E80DE0CBC00D10D80CD
:10032000CE22AA82AB83ACF0FD7511507512C37555
:100330001300751400C002C003C004C005121025CC
:10034000AE82AF83D005D004D003D002EA3395E06B
:10035000FBFCFD7511507512C37513007514008AEE
:10036000828B838CF0EDC006C0071210B3AA82AC5A
:10037000F0FDD007D0067B00C3EB9A50337C007DA4
:1003800000C3EC9EED9F5025758201C002C003C0E2
:1003900004C005C006C0071202BDD007D006D005B4
:1003A000D004D003D0020CBC00D70D80D40B80C881
:1003B000225389F0438901C28C22AA828511F0055B
:1003C000F07401800225E0D5F0FBFB75A720BA0090
:1003D00002800ABA0102800FBA021E8014EBF4FAFE
:1003E00052F1EB42D48012EBF4FA52F2EB42D58098
:1003F00008EBF4FA52F3EB42CC75A700228582BBDE
:10040000C2EDD2EC30EDFD85BD8285BE83221203A4
:10041000FD120EC5AA82AB83ACF0FDC002C003C0C2
:1004200004C005906C8B75F0537440120F82AA8241
:10043000AB83ACF0FDE58124FCF581E4C0E074FC05
:10044000C0E0747FC0E07446C0E08A828B838CF089
:10045000ED121277AA82AB83ACF0FDE58124FCF5A6
:10046000818A828B838CF0ED22D2A07582281202C1
:10047000BDC2A022AA828AE0A2E79290A2E692914F
:10048000A2E59292A2E49293C002120469758228B6
:100490001202BDD0028AE0A2E39290A2E29291A25F
:1004A000E19292A2E09293020469AA82D2978A8290
:1004B0001204749000020202E7AA82C2978A821292
:1004C00004749000050202E7C2A09000141202E733
:1004D0007582331204B97582331204B975823212EF
:1004E00004B97582281204B975820C1204B9758298
:1004F000011204B99000140202E7AA82AB83ACF0A7
:100500007402B523047DC080027D808D82C002C04C
:1005100003C0041204B99000051202E7D004D0030E
:10052000D0027D007E00ED2AFFEE3BF88C018F8229
:10053000888389F0120E44FF60208F82C002C003BE
:10054000C004C005C0061204AAD006D005D004D04D
:1005500003D0020DBD00CF0E80CC3000248D028E62
:1005600003C3EA9410EB648094805015758220C018
:1005700002C0031204AAD003D0020ABA00E30B801F
:10058000E022C2EDD2EC30EDFD85BD8285BE832236
:100590001204C81203B19001F41202E77474C0E0AF
:1005A0007400C0E07480C0E01211731581158115CC
:1005B0008174EBC0E07400C0E07480C0E074DFC000
:1005C000E07400C0E07480C0E074A6C0E07400C0B5
:1005D000E07480C0E07479C0E07400C0E07480C052
:1005E000E0121173E58124F4F58175110275820220
:1005F0001203BA7511037582021203BA75110475DC
:1006000082021203BA7511057582021203BA7511BE
:10061000017582001203BA1202A3754400754540A9
:1006200075461C754746755800755940755A1C75B6
:100630005B4675BB12C2EDD2EC30EDFD120582E5D2
:10064000828583F045F070F4120582E5828583F09F
:1006500045F060F4752200758A00758C00D28C120A
:100660000582E5828583F045F06009108D0280EFF8
:10067000052280EBC28C8522821210A8AE82AF8345
:10068000A8F0F9C006C007C000C00190000075F0D6
:10069000807447120F82AE82AF83A8F0F9E58124FF
:1006A000FCF581858C82C006C007C000C001121015
:1006B000A8AA82AB83ACF0FDC002C003C004C00591
:1006C00090000075F0807443120F82AA82AB83AC55
:1006D000F0FDE58124FCF581D001D000D007D006E3
:1006E000C002C003C004C0058E828F8388F0E91267
:1006F0001105AA82AB83ACF0FDE58124FCF581AE47
:100700008A7F008E828F83C002C003C004C005129E
:10071000126AAE82AF83A8F0F9D005D004D003D01E
:1007200002C006C007C000C0018A828B838CF0ED36
:10073000121105AA82AB83ACF0FDE58124FCF581A2
:10074000C002C003C004C00590F4FC75F0327434DC
:10075000120F82AA82AB83ACF0FDE58124FCF58107
:10076000752200758A00758C00C002C003C004C0E9
:1007700005900000E4F5F07440120F828582388500
:10078000833985F03AF53BE58124FCF5817417C087
:10079000E074B7C0E07451C0E07439C0E0853882BD
:1007A000853983853AF0E53B120ED1AE82E581248E
:1007B000FCF581EE700E85443885453985463A85CD
:1007C000473B800C853844853945853A46853B470B
:1007D000C038C039C03AC03B90000075F080743F0B
:1007E00012127785823C85833D85F03EF53FE58199
:1007F00024FCF581E4C0E0C0E07480C0E07440C037
:10080000E0853882853983853AF0E53B1212778599
:10081000824085834185F042F543E58124FCF581E2
:10082000C2EDD2EC30EDFD120582E5828583F04504
:10083000F070F4120582E5828583F045F060F4C023
:1008400040C041C042C04390000075F07A74441229
:100850000F82AE82AF83A8F0F9E58124FCF5818E8A
:10086000828F8388F0E912125F1202E775821212FA
:10087000040EAE82AF83A8F0F9C006C007C000C066
:10088000019004F375F035743F120F82858248851C
:10089000834985F04AF54BE58124FCF58175BB1150
:1008A000C2EDD2EC30EDFD120582E5828583F04584
:1008B000F070F4120582E5828583F045F060F475EE
:1008C0002200758A00758C00D28C120582E5828523
:1008D00083F045F06009108D0280EF052280EBC2A5
:1008E0008C8522821210A8AE82AF83A8F0F9C006D0
:1008F000C007C000C00190000075F0807447120F5F
:1009000082AE82AF83A8F0F9E58124FCF581858C65
:1009100082C006C007C000C0011210A8AA82AB8323
:10092000ACF0FDC002C003C004C00590000075F02B
:10093000807443120F82AA82AB83ACF0FDE5812460
:10094000FCF581D001D000D007D006C002C003C0A2
:1009500004C0058E828F8388F0E9121105AA82AB4C
:1009600083ACF0FDE58124FCF581AE8A7F008E82A8
:100970008F83C002C003C004C00512126AAE82AFEA
:1009800083A8F0F9D005D004D003D002C006C00778
:10099000C000C0018A828B838CF0ED121105AA82FF
:1009A000AB83ACF0FDE58124FCF581C002C003C03F
:1009B00004C00590F4FC75F0327434120F82AA82E0
:1009C000AB83ACF0FDE58124FCF581752200758ACE
:1009D00000758C00C002C003C004C005900000E494
:1009E000F5F07440120F8285824C85834D85F04E60
:1009F000F54FE58124FCF5817417C0E074B7C0E0C1
:100A00007451C0E07439C0E0854C82854D83854EB9
:100A1000F0E54F120ED1AE82E58124FCF581EE7037
:100A20000E85584C85594D855A4E855B4F800C85F7
:100A30004C58854D59854E5A854F5BC04CC04DC0B2
:100A40004EC04F90000075F080743F12127785827F
:100A50005085835185F052F553E58124FCF581E4FE
:100A6000C0E0C0E07480C0E07440C0E0854C828586
:100A70004D83854EF0E54F1212778582548583555C
:100A800085F056F557E58124FCF581C2EDD2EC30B6
:100A9000EDFD120582E5828583F045F070F41205C4
:100AA00082E5828583F045F060F4C054C055C0569D
:100AB000C05790000075F07A7444120F82AE82AF76
:100AC00083A8F0F9E58124FCF5818E828F8388F07C
:100AD000E912125F1202E775821112040E75BB1142
:100AE000C2EDD2EC30EDFD120582E5828583F04542
:100AF000F070F4120582E5828583F045F060F4D24F
:100B000080752200758A00758C00D28C75BB12C26C
:100B1000EDD2EC30EDFD120582E5828583F045F0E3
:100B2000601E108D0280EF74F4C0E07400C0E074A9
:100B300080C0E0121173158115811581052280D6C0
:100B4000120582E5828583F045F060F4C280C28C94
:100B50008522821210A8AE82AF83A8F0F9C006C029
:100B600007C000C00190000075F0807447120F822A
:100B7000AE82AF83A8F0F9E58124FCF581858C82F3
:100B8000C006C007C000C0011210A8AA82AB83AC87
:100B9000F0FDC002C003C004C00590000075F080E5
:100BA0007443120F82AA82AB83ACF0FDE58124FC72
:100BB000F581D001D000D007D006C002C003C00428
:100BC000C0058E828F8388F0E9121105AA82AB835B
:100BD000ACF0FDE58124FCF581AE8A7F008E828F2A
:100BE00083C002C003C004C00512126AAE82AF8384
:100BF000A8F0F9D005D004D003D002C006C007C0C9
:100C000000C0018A828B838CF0ED121105AA82ABA1
:100C100083ACF0FDE58124FCF581C002C003C00473
:100C2000C00590F4FC75F0327434120F82AA82ABC6
:100C300083ACF0FDE58124FCF581C002C003C00453
:100C4000C005C038C039C03AC03B90000075F0B450
:100C50007443121277AE82AF83A8F0F9E58124FCC9
:100C6000F581D005D004D003D002C006C007C00073
:100C7000C0018A828B838CF0ED120F8285825C85A5
:100C8000835D85F05EF55FE58124FCF581E4F58AFE
:100C9000F58CF5227405C0E07401C0E07480C0E0FA
:100CA0001211731581158115817443C0E07401C060
:100CB000E07480C0E0121173158115811581C04C5C
:100CC000C04DC04EC04F90000075F07A7444120FB2
:100CD00082AE82AF83A8F0F9E58124FCF581C006DD
:100CE000C007C000C001C038C039C03AC03B900046
:100CF0000075F07A7444120F82AA82AB83ACF0FDC7
:100D0000E58124FCF581C002C003C004C005747EE7
:100D1000C0E07401C0E07480C0E0121173E581246A
:100D2000F5F581C050C051C052C053C03CC03DC059
:100D30003EC03F74B3C0E07401C0E07480C0E012F4
:100D40001173E58124F5F581C048C049C04AC04B04
:100D500074E8C0E07401C0E07480C0E0121173E573
:100D60008124F9F581C05CC05DC05EC05F7401C0C4
:100D7000E07402C0E07480C0E0121173E58124F9D0
:100D8000F5817422C0E07402C0E07480C0E01211EA
:100D9000731581158115818550828551838552F0A7
:100DA000E553120F4E7511E8751203121194AA82C1
:100DB000AB83853C82853D83853EF0E53FC002C024
:100DC00003120F4E7511E8751203121194AC82AD27
:100DD00083C004C0057435C0E07402C0E07480C0F4
:100DE000E07424C0E07400C0E07440C0E012121946
:100DF000E58124F6F581752301D20090002475F079
:100E0000401204FAC048C049C04AC04B7446C0E012
:100E10007402C0E07480C0E07424C0E07400C0E0DC
:100E20007440C0E0121219E58124F6F581752302A1
:100E3000D20090002475F0401204FA9001F41202DE
:100E4000E702063220F71430F6148883A88220F5D2
:100E500007E6A88375830022E280F7E49322E0226C
:100E6000FB7A20E4FCFDFEFFE5822582F582E58326
:100E700033F583E5F033F5F0EB33FB4017DAE98027
:100E800042E5822582F582E58333F583E5F033F58B
:100E9000F0EB33FBEC33FCED33FDEE33FEEF33FFD1
:100EA000EC9511ED9512EE9513EF95144013EC951A
:100EB00011FCED9512FDEE9513FEEF9514FF4382A4
:100EC00001DABEEB22E4AC83AB82FAF9748E021332
:100ED0009FFFA88118181213C7D2D133E6400730FC
:100EE000E70B7582012220E70675820022C2D1122B
:100EF00013A9E97003F5822230D101B3E433F582FE
:100F000022E511451260467A01E51125E0F511E56B
:100F100012334012F512E5829511E58395124003D4
:100F20000A80E6C3E51213F512E51113F511C3E5C6
:100F3000829511F5F0E58395124005F58385F082E1
:100F4000C3E51213F512E51113F511DAE1221213BC
:100F5000F2700AE582458345F0700122E430D11237
:100F6000F4700BE5F0F47006E58330E70122908021
:100F70000022700AE5F07006E58320E70122907FE9
:100F8000FF221214CFBC000302146EEF60FA30D5BA
:100F900002B2D1E583B4FF03021484E582B4FF03F7
:100FA000021484258340072482400B02146E24839C
:100FB000145003021484F582EA8DF0A4A8F0EA8E9E
:100FC000F0A428F8E435F0F9EB8DF0A428E935F029
:100FD000F9E433CA8FF0A429F9EA35F0FAEBF88E78
:100FE000F0A429F9EA35F0FAE433FBEC8DF0A429FA
:100FF000F9EA35F0FAE43BFBE88FF0A42AFAEB3586
:10100000F0FBE433CCFD8EF0A42AFAEB35F0FBE4E0
:101010003CFCED8FF0A42BFBEC35F0FC20E7031239
:10102000149C02144DF9E5114512451345146077DF
:101030007800C308E51420E73BE51125E0F511E54C
:101040001233F512E51333F513E51433F514E58285
:101050009511E5839512E5F09513E9951450D4C3E5
:10106000E51413F514E51313F513E51213F512E562
:101070001113F511E5829511FCE5839512FDE5F05C
:101080009513FEE995144007F98EF08D838C82C389
:10109000E51413F514E51313F513E51213F512E532
:1010A0001113F511D8CEE922E4AC82FBFAF974866B
:1010B00002139FFBC2D530E715D2D5E4C39582F564
:1010C00082E49583F583E495F0F5F0E49BFBE51469
:1010D00030E717B2D5E4C39511F511E49512F51276
:1010E000E49513F513E49514F514EB120E6030D566
:1010F00013FBE4C39582F582E49583F583E495F0D0
:10110000F5F0E49B221214CF7900E583B5820280CA
:101110000D50031214FDE583C39582121517E5D017
:10112000C465D020E117EA2DFAEB3EFBEC3FFC5002
:10113000097401121517EC4480FC02144DC3EA9D9A
:10114000FAEB9EFBEC9FFC500FC3E499F9E49AFA8A
:10115000E49BFBE49CFCB2D112149C02144D021ED1
:10116000E685826E85836F85F07085107190115EC3
:10117000021939C008858108E50824FBF571E508E6
:1011800024FBF8866E08866F08867090115E12192F
:1011900039D00822C2D5E58330E70DD2D5E4C39516
:1011A00082F582E49583F583E51230E70BE4C3957D
:1011B00011F511E49512F512120F0130D50BE4C3AD
:1011C0009582F582E49583F58322AA82AB09AC0A65
:1011D000AD0B8B828C838DF0EA121EFB0509E4B502
:1011E0000902050A2285820985830A85F00B850C90
:1011F0006E850D6F850E70850F719011CA121939A9
:10120000AA82AB83AC09AD0AAE0B8C828D838EF0C3
:10121000E4121EFB8A828B8322C008858108E508C0
:1012200024F8F571E50824FBF8860908860A088683
:101230000BE50824F8F8866E08866F088670901112
:10124000CA121939AA82AB83AC09AD0AAE0B8C82E3
:101250008D838EF0E4121EFB8A828B83D008227F5E
:101260008E121F16F58385F08222AC83AB827A0042
:101270007900748E021F441214CF30D502B2D1BF50
:101280000009BC0003021491021484BC0003021480
:101290006EE583B4FF0BE582B4FF030214910214E0
:1012A0006EE582B4FF03021484C395835007247F44
:1012B000400B02146E2480145003021484C0E0E436
:1012C000CCCBCAF98D118E128F13EF54F0C4F514E4
:1012D0007583068514F0EB84F582E9C4F9EAC4FA53
:1012E000EBC4FBEC540FC47803D6FC18EBD6FB1808
:1012F000EAD6FA8582F0EDA4A8F0FD8582F0EEA48E
:1013000028FEE435F0F88582F0EFA428FFE435F0FC
:10131000F8E99DF9EA9EFAEB9FFBEC98FCAD11AE63
:1013200012AF1330E7101582E92DF9EA3EFAEB3FD0
:10133000FBE43CFC80EDC082D58398C3E933F9EA35
:1013400033FAEB33FBEC33FCC3E99DEA9EEB9FECF5
:101350009400B3E413F9D002D0E0C44AFAD003D029
:10136000E0C44BFBD004D0E0F5F0540FC44CFCD0EB
:1013700082158230F40FD3EC13FCEB13FBEA13FA63
:10138000E913F90582E930E70A74012AFAE43BFB24
:10139000E43CFC021465FCABF0AA83A982749EC2F3
:1013A000D1F58212149C02144D7901AA82E68F8233
:1013B000B5821318E6B5F00E18E6B5830918E68A6B
:1013C00082B58202790022B4800FE5F0700AE583CD
:1013D0007006E58270027F00EFB6801518B6001027
:1013E00018B6000B18B60006080808760022080890
:1013F0000822121F68C3749E958240397900121525
:101400001730D126E9F42401F582EAF43400F5839B
:10141000EBF43400F5F0ECF43400700AE582458317
:1014200045F0700122E430E70F22EC20E7148982B6
:101430008A838BF02230D10AE4F582F583F5F074CB
:10144000802274FFF582F583F5F0747F22B9800362
:10145000EA13B34010EA2401FAE43BFBE43CFC50FD
:10146000047C800582BC000EBB000BBA0008E4F5CA
:10147000F0F583F58222A2D1E582138CF092F78BEE
:10148000838A8222E4F583F58275F080F4A2D11379
:1014900022E4F583F58275F0C0747F227804EC7045
:1014A00011E58224F8500AF582E4C9CACBFCD8EFD2
:1014B00022EC7820058220E713D5820122C3E9338C
:1014C000F9EA33FAEB33FBEC33FCD8EA158222AAB3
:1014D00082AB83A2F73392D16002D2F7F582ACF0EF
:1014E000E58124F9F8E6FD08E6FE0886F008E6A2A4
:1014F000F73392D56002D2F7F583AFF022E582C5CB
:1015000083F582A2D133A2D592D11392D5ECCFFC30
:10151000EBCEFBEACDFA226040F82582500274FF40
:10152000F582E824F8501ECCCBCAF9E4CC24F8505C
:1015300014CBCAF9E4CB24F8500BCAF9E4CA24F856
:10154000500379002224086010F8C3EC13FCEB135D
:10155000FBEA13FAE913F9D8F122AA82746BC0E00E
:101560007415C0E0C060C0618A82220567E4B56777
:1015700002056822AA8274302AFA24C6500A740727
:101580002AFA3001034302208A8202155AE582FAC0
:10159000C4540FF582C002121574D002740F5AF5AC
:1015A00082021574AA62AB63AC64AD65AE66756DFC
:1015B00020EE2EFEED235401FF4206EA2AFAEB3319
:1015C000FBEC33FCED33FDC3EE95694008EEC395AB
:1015D00069FE430201D56DD98A628B638C648D6587
:1015E0008E6622787EE624D075F00AA4FA787FE62B
:1015F00024D02AFA787D8603BB2D04C3E49AFA75B9
:101600006901C3E464808AF063F08095F050297525
:101610006D038A0374F6256D401C0569E56D14247D
:1016200072F8E56D2472F98704A604772E1BEBFA95
:101630006004056D80DE8B02EA30E70D7873860367
:101640007874A6037873762E0AE56B600AE56B045E
:10165000FB2569F5698005300C02056978728603FF
:10166000E4BB2D0104FB7006200703300802056966
:1016700030050302172A300657EB600C75822DC027
:101680000212155AD002801C30070C75822BC00242
:1016900012155AD002800D30080A758220C002123D
:1016A000155AD00278738604BC2E0C758230C002A5
:1016B00012155AD002156AAC6A156AC3E5699C40D6
:1016C0000302176E758230C00212155AD00280E7ED
:1016D000AC6A156AC3E5699C500C758220C0021281
:1016E000155AD00280EA78728604BC2D0C75822DC2
:1016F000C00212155AD002801C30070C75822BC014
:101700000212155AD002800D30080A758220C002DC
:1017100012155AD00278738604BC2E52758230C0DE
:101720000212155AD002156A8044EB600E75822DA4
:10173000C00212155AD002156A802030070E758239
:101740002BC00212155AD002156A800F30080C7592
:101750008220C00212155AD002156A78738603BB24
:101760002E0C758230C00212155AD002156A756DA2
:1017700001C20EE56D2472F88603BB450302182BE7
:10178000BB2E348A03C3E464808BF063F08095F051
:10179000500F758230C00312155AD0031B8B028084
:1017A000E48B02D20EE56B7038200C0302182B7507
:1017B000822E12155A8074300E278A03EB30E71FF1
:1017C000C3E46480856BF063F08095F0500C758203
:1017D00030C00312155AD003156B0B8B0280DD8BC2
:1017E00002300E0EC3E46480856BF063F08095F0E8
:1017F0005021E56D2472F886038B82C00212155ABF
:10180000D002300E0EE56D2472F88603BB2E0280E6
:1018100002156B156AC3E46480856BF063F08095F4
:10182000F04003200E05056D021773C3E464808544
:101830006BF063F08095F0500A75823012155A15DE
:101840006B80E830050FAA6A156AEA600875822085
:1018500012155A80F122E56B7003300C0D740725C8
:101860006BFAE56AC39AF56A8006E56A24FAF56AB6
:10187000756D0078728602BA2B0F20070C7872768D
:1018800020200805756D01056A200519AA6AC3E4C0
:1018900064808AF063F08095F0500A7582201215FA
:1018A0005A156A80E7C20EE56D2472F88602BA0006
:1018B000028069BA451F3001027665C3E464808501
:1018C0006BF063F08095F0500A75823012155A154E
:1018D0006B80E8D20EC3E56D9402E433FA7014EA2B
:1018E000700EC3E46480856BF063F08095F0400374
:1018F000300E16E56D2472F886028A8212155AE5BA
:101900006D24FD5012156B800E7402B56D09300CFC
:101910000675822E12155A056D0218A7300519AAF0
:101920006AC3E464808AF063F08095F0500A75829F
:101930002012155A156A80E722858260858361E44A
:10194000F567F568AA6EAB6FAC708A828B838CF0FA
:10195000120E44FD74012AF56EE43BF56F8C70EDB8
:10196000FA7003021EDFBA25028003021ED7C205E9
:10197000C206C207C208C209C20AC20BC20CC20216
:10198000C203C204756900756A00756BFFAB6EAC6B
:101990006FAD708B828C838DF0120E44FAA3AB82F4
:1019A000AC838B6E8C6F8D70BA25078A8212155AA4
:1019B00080928A06BE3000402E8A06EE24C640275A
:1019C00074FFB56B13E56A75F00AA4FEEA24D02E05
:1019D000F56A70BFD20680BBE56B75F00AA4FEEA1B
:1019E00024D02EF56B80ACBA2E0A74FFB56BA475AB
:1019F0006B00809F8A06BE6100400E8A06EE248539
:101A000040075302DFD2018002C201BA2002807572
:101A1000BA2303021A94BA2A03021A99BA2B028033
:101A20005FBA2D028055BA4202805FBA4303021AA0
:101A3000DEBA4403021C19BA4503021C33BA46033A
:101A4000021C2FBA4703021C37BA4903021C19BAF9
:101A50004C02803BBA4E03021C3BBA4F03021C20CF
:101A6000BA5003021BB2BA5303021B02BA55030257
:101A70001C25BA5803021C2A021C65D205021993C0
:101A8000D207021993D208021993D20A021993D2EB
:101A90000B021993D20C02199374FFB56B20300A14
:101AA0000BE57114F88871866A021993E57124FEBA
:101AB000F888718606088607188E6A021993300A1C
:101AC0000BE57114F88871866B021993E57124FE99
:101AD000F888718606088607188E6B021993300AFB
:101AE0000AE57114F888718602800FE57124FEF80A
:101AF00088718603088604188B028A8212155A029E
:101B00001C6AE57124FDF88871860308860408863E
:101B10000518188B628C638D648B828C838DF01218
:101B20002099AB82AC838B6C74FFB56B03856C6BB7
:101B300020051DC3E56C956A5016E56AC3956CF5E2
:101B40006AAB6A156AEB600875822012155A80F13B
:101B50008562828563838564F0120E44FBFA6029F6
:101B6000AB6B156BC3E464808BF063F08095F05031
:101B7000188A8212155AAB62AC63AD640BBB0001CC
:101B80000C8B628C638D6480C7200503021C6AC3C2
:101B9000E56C956A4003021C6AE56AC3956CF56AB8
:101BA000AB6A156AEB7003021C6A75822012155A23
:101BB00080EEE57124FDF8887186030886040886A6
:101BC0000518188B628C638D64E564FB30E7047A3A
:101BD000438013EB546060047A50800AEB30E604D3
:101BE0007A4980027A588A82C00212155A75823A5E
:101BF00012155A75823012155A75827812155AD0FC
:101C000002BA4902800BBA5002800685638212151F
:101C10008D85628212158D8051D20975690A804ABC
:101C2000756908804575690A8040756910803BD2E6
:101C3000028037D2038033D204802FE57124FDF86F
:101C40008871860308860408860518188B628C63E1
:101C50008D648B828C838DF0E567121EFBA3E56893
:101C6000121EFB80058A8212155A200206200303E9
:101C7000300470E57124FCF8887186030886040836
:101C800086050886061818188B628C638D648E652D
:101C9000E562E563E564E5658B828C838DF0EE1289
:101CA0001F7A74FFB56B03756B06300427747F557C
:101CB00065FB8B66E566EB2BFB8B66E56430E70620
:101CC00074014566F566E5662468400674992566E4
:101CD0004002D2033003061218560219441215E3CB
:101CE000021944E56970030219447B77300A2BE539
:101CF0007114F88871E6FC3395E0FDFEFF8C628D6F
:101D0000638E648F6520095EAC627D007E007F007B
:101D10008C628D638E648F65804C300B1FE571245F
:101D2000FCF8887186040886050886060886071868
:101D300018188C628D638E648F65802AE57124FE8D
:101D4000F88871860408860518ED3395E0FEFF8C4F
:101D5000628D638E648F6520090CAC62AD637E007A
:101D60007F008E648F65300C43E5624563456445B2
:101D70006560397408B5690C758230C00312155A54
:101D8000D00380287410B56923758230C003121502
:101D90005AD00330010C758278C00312155AD00353
:101DA000800A758258C00312155AD003300925AC39
:101DB00062AD63AE64E565FF30E717C3E49CFCE405
:101DC0009DFDE49EFEE49FFF8C628D638E648F65B3
:101DD0008002C209756C00D20D8B00756600C000D0
:101DE0001215A4D000200D0DE566C4FCE6FD4CF6EE
:101DF0001888038002A666056CB20DE5624563454E
:101E000064456570D68803E56A7003756A0120062B
:101E10001A200517E56C04FCC3956A500E758220E4
:101E2000C00312155AD003156A80E930090E758275
:101E30002DC00312155AD003156A8024E56C60206A
:101E400030070E75822BC00312155AD003156A8015
:101E50000F30080C758220C00312155AD003156A82
:101E600020051EAC6A156AC3E56C9C502730060439
:101E70007C3080027C208C82C00312155AD00380F3
:101E8000E2C3E56C956A5009E56AC3956CF56A8012
:101E900003756A008B00AB6C156CEB6022B20D20F1
:101EA0000D0A08E6C4540FFB8B6680078603740F87
:101EB0005BF566856682C000121574D00080D7205D
:101EC0000503021944AB6A156AEB700302194475E5
:101ED000822012155A80EE8A8212155A0219448500
:101EE000678285688322AA82BA0A0810990280FB59
:101EF00075990D10990280FB8A992220F71030F60F
:101F0000118883A88220F507F6A88375830022F242
:101F100080F7F0227F9E121F6830D10302146EC337
:101F2000EF9582500974FFF5F0F583F58222790070
:101F300012151789828A838BF0EC22FCABF0AA83FE
:101F4000A982749EF582C2D1EC30E716D2D1E9F4B1
:101F50002401F9EAF43400FAEBF43400FBECF43435
:101F600000FC12149C02144DAA82AB83A2F7339298
:101F7000D16002D2F7F582ACF022C0E0F84582458C
:101F80008345F07009F5F0FBFCFDFE022048E823D4
:101F9000A2F792E0F8A982AA83D2F7ABF07C007E88
:101FA00007C3749798404074FF2EFE740A89F0A40A
:101FB000F985F082740A8AF0A4FA85F083740A8B9A
:101FC000F0A4FB740529F9EA3582FAEB3583FB743A
:101FD0000035F0FCC3EC13FCEB13FBEA13FAE91336
:101FE000F908EC70EF80BAE8C3947FF88B838EF029
:101FF000E4FBFCFDFEFF08C3E933F9EA33FAE583AD
:1020000033F583EB3BD4FBEC3CD4FCED3DD4FDEE4F
:102010003ED4FEEF3FD4FF602D05F074052BD4FBBA
:10202000E43CD4FCE43DD4FDE43ED4FEE43FD4FFE4
:10203000758204C3EF13FFEE13FEED13FDEC13FCEA
:10204000EB13FBD582EDD8AF7872D0E020E70476B1
:102050002B8002762D087906E7C4540F4430F60829
:10206000B90603762E08E7540F4430F60819B90272
:10207000E7764508E5F020E704762B8004762DF41A
:10208000040875F00A844430F608E5F04430F60898
:10209000E4F690007275F04022AA82AB83ACF07D2A
:1020A000007E008A828B838CF0120E44FFA3AA82EA
:1020B000AB83EF60070DBD00EA0E80E78D828E8353
:1020C00022000000000000000000000000000000EE
:00000001FF
