:10000000020003758181120241E582600302006FE4
:10001000780079007A007B007C007D00EC4D601C4C
:1000200088828983E493A3A882A9838A828B83F040
:10003000A3AA82AB831CBCFFE31D80E07582007520
:1000400083007C007D00EC4D600AE4F0A31CBCFF43
:10005000F51D80F27582007583007C007D00EC4DFB
:10006000600AE4F0A31CBCFFF51D80F212024012EE
:10007000057F80FE1B5B324A004144432074657358
:10008000742070726F6772616D0A46696C653A2000
:1000900025730A436F6D70696C65643A2025732C73
:1000A0002025730A0A00433A5C55736572735C63DA
:1000B0006F7372335C446F63756D656E74735C4708
:1000C00069744875625C454C45432D3239312D4C7D
:1000D0006162355C45464D385F4144432E63004DB7
:1000E000617220203420323032340032313A3335DC
:1000F0003A3338005265666572656E6365205369F0
:10010000676E616C204461746120202020202020D3
:10011000207C53616D706C65205369676E616C2043
:1001200044617461202020202020202020202020D5
:100130000A002D2D2D2D2D2D2D2D2D2D2D2D2D2D3F
:100140002D2D2D2D2D2D2D2D2D2D2D2D2D2D2D2DDF
:100150002D2D2D2D2D2D2D2D2D2D2D2D2D2D2D2DCF
:100160002D2D2D2D2D2D2D2D2D2D2D0A0052656679
:1001700020506572696F642854293A202025372E53
:100180003666207320207C2053706C205065726985
:100190006F642854293A202025372E366620732094
:1001A0000A00526566204672657128662920203A49
:1001B000202025372E366620487A207C2053706C0C
:1001C000204672657128662920203A202025372E86
:1001D000366620487A0A00566D6178202872656676
:1001E000292020203A202025342E346620560A006B
:1001F000506861736520446966666572656E636503
:100200003A2025372E366620646567726565730A65
:10021000001B5B411B5B411B5B411B5B411B5B414B
:100220001B5B410052663A2532642053703A2532F6
:100230006420487A0056723A25342E3466205600DF
:100240002275A7007597DE7597AD75FF8075EF066F
:1002500075A71075C12075A70075A90075A900E5DF
:10026000A930E7FB75A90375A903E5A930E7FB43AE
:10027000A41075E10175E20075E340759810758D65
:10028000E6858D8B53890F438920D28ED299758252
:10029000002275A700C2EF75B28075BC2075B91E2B
:1002A00075E80075DF3F75B300D2EF22AA82438E56
:1002B000407592B87593FF859294859395759104D6
:1002C0007B00C3EB9A500BE59130E7FB53917F0B1A
:1002D00080F075910022AA82AB837C007D00C3EC84
:1002E0009AED9B502B7E00BE0400501D7582FAC013
:1002F00002C003C004C005C0061202ACD006D0057F
:10030000D004D003D0020E80DE0CBC00D10D80CE14
:1003100022AA82AB83ACF0FD7511507512C3751320
:1003200000751400C002C003C004C005120FF2AE75
:1003300082AF83D005D004D003D002EA3395E0FB2E
:10034000FCFD7511507512C37513007514008A8277
:100350008B838CF0EDC006C007121080AA82ACF02F
:10036000FDD007D0067B00C3EB9A50337C007D00A4
:10037000C3EC9EED9F5025758201C002C003C004EE
:10038000C005C006C0071202ACD007D006D005D009
:1003900004D003D0020CBC00D70D80D40B80C8223F
:1003A0005389F0438901C28C22AA828511F005F09D
:1003B0007401800225E0D5F0FBFB75A720BA00028E
:1003C000800ABA0102800FBA021E8014EBF4FA52BE
:1003D000F1EB42D48012EBF4FA52F2EB42D58008F2
:1003E000EBF4FA52F3EB42CC75A700228582BBC234
:1003F000EDD2EC30EDFD85BD8285BE83221203EC8B
:10040000120E92AA82AB83ACF0FDC002C003C004FE
:10041000C005906C8B75F0537440120F4FAA82ABDD
:1004200083ACF0FDE58124FCF581E4C0E074FCC000
:10043000E0747FC0E07446C0E08A828B838CF0ED6C
:10044000121244AA82AB83ACF0FDE58124FCF58155
:100450008A828B838CF0ED22D2A07582281202ACA6
:10046000C2A022AA828AE0A2E79290A2E69291A27A
:10047000E59292A2E49293C0021204587582281267
:1004800002ACD0028AE0A2E39290A2E29291A2E1B1
:100490009292A2E09293020458AA82D2978A821280
:1004A00004639000020202D6AA82C2978A821204D2
:1004B000639000050202D6C2A09000141202D67505
:1004C00082331204A87582331204A8758232120492
:1004D000A87582281204A875820C1204A8758201DE
:1004E0001204A89000140202D6AA82AB83ACF07466
:1004F00002B523047DC080027D808D82C002C003CE
:10050000C0041204A89000051202D6D004D003D073
:10051000027D007E00ED2AFFEE3BF88C018F828881
:100520008389F0120E11FF60208F82C002C003C0C9
:1005300004C005C006120499D006D005D004D0032B
:10054000D0020DBD00CF0E80CC3000248D028E0372
:10055000C3EA9410EB648094805015758220C00229
:10056000C003120499D003D0020ABA00E30B80E062
:1005700022C2EDD2EC30EDFD85BD8285BE83221214
:1005800004B71203A09001F41202D67474C0E07490
:1005900000C0E07480C0E012114015811581158102
:1005A00074EBC0E07400C0E07480C0E074DFC0E0B1
:1005B0007400C0E07480C0E074A6C0E07400C0E0C5
:1005C0007480C0E07479C0E07400C0E07480C0E062
:1005D000121140E58124F4F5817511027582021231
:1005E00003A97511037582021203A975110475829E
:1005F000021203A97511057582021203A975110172
:100600007582001203A91202927544007545407567
:10061000461C754746755800755940755A1C755BE0
:100620004675BB12C2EDD2EC30EDFD120571E582CC
:100630008583F045F070F4120571E5828583F045FD
:10064000F060F4752200758A00758C00D28C12055A
:1006500071E5828583F045F06009108D0280EF0519
:100660002280EBC28C852282121075AE82AF83A8E5
:10067000F0F9C006C007C000C00190000075F0800E
:100680007447120F4FAE82AF83A8F0F9E58124FCC6
:10069000F581858C82C006C007C000C001121075AC
:1006A000AA82AB83ACF0FDC002C003C004C00590B9
:1006B000000075F0807443120F4FAA82AB83ACF038
:1006C000FDE58124FCF581D001D000D007D006C023
:1006D00002C003C004C0058E828F8388F0E9121027
:1006E000D2AA82AB83ACF0FDE58124FCF581AE8A11
:1006F0007F008E828F83C002C003C004C005121227
:1007000037AE82AF83A8F0F9D005D004D003D00271
:10071000C006C007C000C0018A828B838CF0ED1236
:1007200010D2AA82AB83ACF0FDE58124FCF581C038
:1007300002C003C004C00590F4FC75F0327434129A
:100740000F4FAA82AB83ACF0FDE58124FCF58175E7
:100750002200758A00758C00C002C003C004C00569
:10076000900000E4F5F07440120F4F8582388583C5
:100770003985F03AF53BE58124FCF5817417C0E03A
:1007800074B7C0E07451C0E07439C0E08538828528
:100790003983853AF0E53B120E9EAE82E58124FC5A
:1007A000F581EE700E85443885453985463A854792
:1007B0003B800C853844853945853A46853B47C0A2
:1007C00038C039C03AC03B90000075F080743F12C9
:1007D000124485823C85833D85F03EF53FE58124CA
:1007E000FCF581E4C0E0C0E07480C0E07440C0E08B
:1007F000853882853983853AF0E53B12124485823B
:100800004085834185F042F543E58124FCF581C2B2
:10081000EDD2EC30EDFD120571E5828583F045F0F7
:1008200070F4120571E5828583F045F060F4C040F4
:10083000C041C042C04390000075F07A7444120F6A
:100840004FAE82AF83A8F0F9E58124FCF5818E825A
:100850008F8388F0E912122C1202D67582121203CD
:10086000FDAE82AF83A8F0F9C006C007C000C0018A
:100870009004F375F035743F120F4F8582488583DD
:100880004985F04AF54BE58124FCF58175BB11C221
:10089000EDD2EC30EDFD120571E5828583F045F077
:1008A00070F4120571E5828583F045F060F47522DD
:1008B00000758A00758C00D28C120571E5828583E3
:1008C000F045F06009108D0280EF052280EBC28CAC
:1008D000852282121075AE82AF83A8F0F9C006C0DF
:1008E00007C000C00190000075F0807447120F4FE0
:1008F000AE82AF83A8F0F9E58124FCF581858C8276
:10090000C006C007C000C001121075AA82AB83AC3C
:10091000F0FDC002C003C004C00590000075F08067
:100920007443120F4FAA82AB83ACF0FDE58124FC27
:10093000F581D001D000D007D006C002C003C004AA
:10094000C0058E828F8388F0E91210D2AA82AB8311
:10095000ACF0FDE58124FCF581AE8A7F008E828FAC
:1009600083C002C003C004C005121237AE82AF8339
:10097000A8F0F9D005D004D003D002C006C007C04B
:1009800000C0018A828B838CF0ED1210D2AA82AB58
:1009900083ACF0FDE58124FCF581C002C003C004F6
:1009A000C00590F4FC75F0327434120F4FAA82AB7C
:1009B00083ACF0FDE58124FCF581752200758A0089
:1009C000758C00C002C003C004C005900000E4F5AF
:1009D000F07440120F4F85824C85834D85F04EF5A3
:1009E0004FE58124FCF5817417C0E074B7C0E07452
:1009F00051C0E07439C0E0854C82854D83854EF04E
:100A0000E54F120E9EAE82E58124FCF581EE700E5C
:100A100085584C85594D855A4E855B4F800C854CC9
:100A200058854D59854E5A854F5BC04CC04DC04EC0
:100A3000C04F90000075F080743F121244858250C0
:100A400085835185F052F553E58124FCF581E4C09E
:100A5000E0C0E07480C0E07440C0E0854C82854D09
:100A600083854EF0E54F1212448582548583558567
:100A7000F056F557E58124FCF581C2EDD2EC30ED5E
:100A8000FD120571E5828583F045F070F412057161
:100A9000E5828583F045F060F4C054C055C056C06F
:100AA0005790000075F07A7444120F4FAE82AF83F6
:100AB000A8F0F9E58124FCF5818E828F8388F0E926
:100AC00012122C1202D67582111203FD75BB12C2CE
:100AD000EDD2EC30EDFD120571E5828583F045F035
:100AE00070F4120571E5828583F045F060F475229B
:100AF00000758A00758C00D28C75BB11C2EDD2ECEA
:100B000030EDFD120571E5828583F045F070F41239
:100B10000571E5828583F045F060F4C28C85228200
:100B2000121075AE82AF83A8F0F9C006C007C000EE
:100B3000C00190000075F0807447120F4FAE82AF75
:100B400083A8F0F9E58124FCF581858C82C006C07C
:100B500007C000C001121075AA82AB83ACF0FDC0C3
:100B600002C003C004C00590000075F080744312F9
:100B70000F4FAA82AB83ACF0FDE58124FCF581D058
:100B800001D000D007D006C002C003C004C0058E4B
:100B9000828F8388F0E91210D2AA82AB83ACF0FD79
:100BA000E58124FCF581AE8A7F008E828F83C002AE
:100BB000C003C004C005121237AE82AF83A8F0F99B
:100BC000D005D004D003D002C006C007C000C001C9
:100BD0008A828B838CF0ED1210D2AA82AB83ACF0A8
:100BE000FDE58124FCF581C002C003C004C005906E
:100BF000F4FC75F0327434120F4FAA82AB83ACF060
:100C0000FDE58124FCF581C002C003C004C005C01D
:100C10004CC04DC04EC04F90000075F0B4744312EC
:100C20001244AE82AF83A8F0F9E58124FCF581D0AF
:100C300005D004D003D002C006C007C000C0018A9E
:100C4000828B838CF0ED120F4F85825C85835D85EE
:100C5000F05EF55FE58124FCF581E4F522F58AF587
:100C60008C74F4C0E07400C0E07480C0E0121140E5
:100C70001581158115817432C0E07401C0E0748063
:100C8000C0E0121140158115811581C04CC04DC0C6
:100C90004EC04F90000075F07A7444120F4FAE8230
:100CA000AF83A8F0F9E58124FCF581C006C007C038
:100CB00000C001C038C039C03AC03B90000075F098
:100CC0007A7444120F4FAA82AB83ACF0FDE5812405
:100CD000FCF581C002C003C004C005746DC0E0749F
:100CE00001C0E07480C0E0121140E58124F5F58177
:100CF000C050C051C052C053C03CC03DC03EC03FB8
:100D000074A2C0E07401C0E07480C0E0121140E53C
:100D10008124F5F581C048C049C04AC04B74D7C092
:100D2000E07401C0E07480C0E0121140E58124F954
:100D3000F581C05CC05DC05EC05F74F0C0E074014E
:100D4000C0E07480C0E0121140E58124F9F581749F
:100D500011C0E07402C0E07480C0E012114015813F
:100D6000158115818550828551838552F0E5531296
:100D70000F1B7511E8751203121161AA82AB8385EE
:100D80003C82853D83853EF0E53FC002C003120FE3
:100D90001B7511E8751203121161AC82AD83C0049A
:100DA000C0057424C0E07402C0E07480C0E0742404
:100DB000C0E07400C0E07440C0E01211E6E5812498
:100DC000F6F581752301D20090002475F0401204DD
:100DD000E9C048C049C04AC04B7435C0E07402C085
:100DE000E07480C0E07424C0E07400C0E07440C0CF
:100DF000E01211E6E58124F6F581752302D2009018
:100E0000002475F0401204E99001F41202D60206A3
:100E10002120F71430F6148883A88220F507E6A86D
:100E20008375830022E280F7E49322E022FB7A209C
:100E3000E4FCFDFEFFE5822582F582E58333F58340
:100E4000E5F033F5F0EB33FB4017DAE98042E58259
:100E50002582F582E58333F583E5F033F5F0EB3356
:100E6000FBEC33FCED33FDEE33FEEF33FFEC95117D
:100E7000ED9512EE9513EF95144013EC9511FCEDE2
:100E80009512FDEE9513FEEF9514FF438201DABE35
:100E9000EB22E4AC83AB82FAF9748E02136CFFA8E8
:100EA000811818121394D2D133E6400730E70B753E
:100EB00082012220E70675820022C2D1121376E950
:100EC0007003F5822230D101B3E433F58222E511BB
:100ED000451260467A01E51125E0F511E51233402F
:100EE00012F512E5829511E583951240030A80E61A
:100EF000C3E51213F512E51113F511C3E58295113F
:100F0000F5F0E58395124005F58385F082C3E5127F
:100F100013F512E51113F511DAE1221213BF700A6D
:100F2000E582458345F0700122E430D112F4700B64
:100F3000E5F0F47006E58330E7012290800022702E
:100F40000AE5F07006E58320E70122907FFF221278
:100F5000149CBC000302143BEF60FA30D502B2D1FE
:100F6000E583B4FF03021451E582B4FF0302145178
:100F7000258340072482400B02143B248314500332
:100F8000021451F582EA8DF0A4A8F0EA8EF0A428AC
:100F9000F8E435F0F9EB8DF0A428E935F0F9E43305
:100FA000CA8FF0A429F9EA35F0FAEBF88EF0A429FB
:100FB000F9EA35F0FAE433FBEC8DF0A429F9EA35CF
:100FC000F0FAE43BFBE88FF0A42AFAEB35F0FBE4FF
:100FD00033CCFD8EF0A42AFAEB35F0FBE43CFCEDBB
:100FE0008FF0A42BFBEC35F0FC20E7031214690210
:100FF000141AF9E51145124513451460777800C3BA
:1010000008E51420E73BE51125E0F511E51233F57D
:1010100012E51333F513E51433F514E5829511E564
:10102000839512E5F09513E9951450D4C3E5141394
:10103000F514E51313F513E51213F512E51113F585
:1010400011E5829511FCE5839512FDE5F09513FEFF
:10105000E995144007F98EF08D838C82C3E5141353
:10106000F514E51313F513E51213F512E51113F555
:1010700011D8CEE922E4AC82FBFAF9748602136C33
:10108000FBC2D530E715D2D5E4C39582F582E4954D
:1010900083F583E495F0F5F0E49BFBE51430E71766
:1010A000B2D5E4C39511F511E49512F512E4951348
:1010B000F513E49514F514EB120E2D30D513FBE463
:1010C000C39582F582E49583F583E495F0F5F0E429
:1010D0009B2212149C7900E583B58202800D500397
:1010E0001214CAE583C395821214E4E5D0C465D016
:1010F00020E117EA2DFAEB3EFBEC3FFC50097401AE
:101100001214E4EC4480FC02141AC3EA9DFAEB9E2C
:10111000FBEC9FFC500FC3E499F9E49AFAE49BFBC3
:10112000E49CFCB2D112146902141A021EB3858227
:101130006E85836F85F07085107190112B021906F2
:10114000C008858108E50824FBF571E50824FBF853
:10115000866E08866F08867090112B121906D008CB
:1011600022C2D5E58330E70DD2D5E4C39582F5825E
:10117000E49583F583E51230E70BE4C39511F5118F
:10118000E49512F512120ECE30D50BE4C39582F51C
:1011900082E49583F58322AA82AB09AC0AAD0B8B5E
:1011A000828C838DF0EA121EC80509E4B509020598
:1011B0000A2285820985830A85F00B850C6E850DD0
:1011C0006F850E70850F71901197121906AA82AB68
:1011D00083AC09AD0AAE0B8C828D838EF0E4121EB7
:1011E000C88A828B8322C008858108E50824F8F527
:1011F00071E50824FBF8860908860A08860BE508CD
:1012000024F8F8866E08866F088670901197121978
:1012100006AA82AB83AC09AD0AAE0B8C828D838E9D
:10122000F0E4121EC88A828B83D008227F8E121EA1
:10123000E3F58385F08222AC83AB827A0079007477
:101240008E021F1112149C30D502B2D1BF0009BC0E
:10125000000302145E021451BC000302143BE58338
:10126000B4FF0BE582B4FF0302145E02143BE58277
:10127000B4FF03021451C395835007247F400B022F
:10128000143B2480145003021451C0E0E4CCCBCAB8
:10129000F98D118E128F13EF54F0C4F51475830677
:1012A0008514F0EB84F582E9C4F9EAC4FAEBC4FBD7
:1012B000EC540FC47803D6FC18EBD6FB18EAD6FA28
:1012C0008582F0EDA4A8F0FD8582F0EEA428FEE46E
:1012D00035F0F88582F0EFA428FFE435F0F8E99DB9
:1012E000F9EA9EFAEB9FFBEC98FCAD11AE12AF133E
:1012F00030E7101582E92DF9EA3EFAEB3FFBE43CBA
:10130000FC80EDC082D58398C3E933F9EA33FAEB68
:1013100033FBEC33FCC3E99DEA9EEB9FEC9400B3F6
:10132000E413F9D002D0E0C44AFAD003D0E0C44BB1
:10133000FBD004D0E0F5F0540FC44CFCD0821582F1
:1013400030F40FD3EC13FCEB13FBEA13FAE913F9B7
:101350000582E930E70A74012AFAE43BFBE43CFC2D
:10136000021432FCABF0AA83A982749EC2D1F5822A
:1013700012146902141A7901AA82E68F82B58213C7
:1013800018E6B5F00E18E6B5830918E68A82B5822C
:1013900002790022B4800FE5F0700AE5837006E55B
:1013A0008270027F00EFB6801518B6001018B600E4
:1013B0000B18B60006080808760022080808221252
:1013C0001F35C3749E9582403979001214E430D1E0
:1013D00026E9F42401F582EAF43400F583EBF434D1
:1013E00000F5F0ECF43400700AE582458345F070B6
:1013F0000122E430E70F22EC20E71489828A838BF4
:10140000F02230D10AE4F582F583F5F0748022747D
:10141000FFF582F583F5F0747F22B98003EA13B3F8
:101420004010EA2401FAE43BFBE43CFC50047C80DD
:101430000582BC000EBB000BBA0008E4F5F0F58392
:10144000F58222A2D1E582138CF092F78B838A82F7
:1014500022E4F583F58275F080F4A2D11322E4F53D
:1014600083F58275F0C0747F227804EC7011E582F8
:1014700024F8500AF582E4C9CACBFCD8EF22EC78F4
:1014800020058220E713D5820122C3E933F9EA332C
:10149000FAEB33FBEC33FCD8EA158222AA82AB8349
:1014A000A2F73392D16002D2F7F582ACF0E5812445
:1014B000F9F8E6FD08E6FE0886F008E6A2F73392A2
:1014C000D56002D2F7F583AFF022E582C583F582BD
:1014D000A2D133A2D592D11392D5ECCFFCEBCEFBA7
:1014E000EACDFA226040F82582500274FFF582E8C6
:1014F00024F8501ECCCBCAF9E4CC24F85014CBCA43
:10150000F9E4CB24F8500BCAF9E4CA24F850037963
:10151000002224086010F8C3EC13FCEB13FBEA1361
:10152000FAE913F9D8F122AA827438C0E07415C020
:10153000E0C060C0618A82220567E4B56702056881
:1015400022AA8274302AFA24C6500A74072AFA3072
:1015500001034302208A82021527E582FAC4540F50
:10156000F582C002121541D002740F5AF58202159D
:1015700041AA62AB63AC64AD65AE66756D20EE2EBC
:10158000FEED235401FF4206EA2AFAEB33FBEC336B
:10159000FCED33FDC3EE95694008EEC39569FE434B
:1015A0000201D56DD98A628B638C648D658E66224B
:1015B000787EE624D075F00AA4FA787FE624D02A53
:1015C000FA787D8603BB2D04C3E49AFA756901C3DA
:1015D000E464808AF063F08095F05029756D038A89
:1015E0000374F6256D401C0569E56D142472F8E559
:1015F0006D2472F98704A604772E1BEBFA600405AC
:101600006D80DE8B02EA30E70D787386037874A66E
:10161000037873762E0AE56B600AE56B04FB256997
:10162000F5698005300C02056978728603E4BB2DEC
:101630000104FB700620070330080205693005032A
:101640000216F7300657EB600C75822DC00212159A
:1016500027D002801C30070C75822BC00212152780
:10166000D002800D30080A758220C002121527D0E2
:101670000278738604BC2E0C758230C002121527C6
:10168000D002156AAC6A156AC3E5699C400302176B
:101690003B758230C002121527D00280E7AC6A1574
:1016A0006AC3E5699C500C758220C002121527D0D0
:1016B0000280EA78728604BC2D0C75822DC002125D
:1016C0001527D002801C30070C75822BC002121522
:1016D00027D002800D30080A758220C0021215271B
:1016E000D00278738604BC2E52758230C002121567
:1016F00027D002156A8044EB600E75822DC002125D
:101700001527D002156A802030070E75822BC00283
:10171000121527D002156A800F30080C758220C080
:1017200002121527D002156A78738603BB2E0C753A
:101730008230C002121527D002156A756D01C20EE3
:10174000E56D2472F88603BB45030217F8BB2E34FF
:101750008A03C3E464808BF063F08095F0500F75CA
:101760008230C003121527D0031B8B0280E48B024A
:10177000D20EE56B7038200C030217F875822E121A
:1017800015278074300E278A03EB30E71FC3E4640B
:1017900080856BF063F08095F0500C758230C0034B
:1017A000121527D003156B0B8B0280DD8B02300ED8
:1017B0000EC3E46480856BF063F08095F05021E502
:1017C0006D2472F886038B82C002121527D0023076
:1017D0000E0EE56D2472F88603BB2E028002156B97
:1017E000156AC3E46480856BF063F08095F0400374
:1017F000200E05056D021740C3E46480856BF0631D
:10180000F08095F0500A758230121527156B80E82C
:1018100030050FAA6A156AEA60087582201215273A
:1018200080F122E56B7003300C0D7407256BFAE52F
:101830006AC39AF56A8006E56A24FAF56A756D004E
:1018400078728602BA2B0F20070C78727620200857
:1018500005756D01056A200519AA6AC3E464808ACA
:10186000F063F08095F0500A758220121527156AF2
:1018700080E7C20EE56D2472F88602BA0002806924
:10188000BA451F3001027665C3E46480856BF0635E
:10189000F08095F0500A758230121527156B80E89C
:1018A000D20EC3E56D9402E433FA7014EA700EC3ED
:1018B000E46480856BF063F08095F04003300E1691
:1018C000E56D2472F886028A82121527E56D24FDE3
:1018D0005012156B800E7402B56D09300C067582BE
:1018E0002E121527056D021874300519AA6AC3E473
:1018F00064808AF063F08095F0500A75822012159A
:1019000027156A80E722858260858361E4F567F5A3
:1019100068AA6EAB6FAC708A828B838CF0120E114A
:10192000FD74012AF56EE43BF56F8C70EDFA7003DF
:10193000021EACBA25028003021EA4C205C206C262
:1019400007C208C209C20AC20BC20CC202C203C249
:1019500004756900756A00756BFFAB6EAC6FAD7096
:101960008B828C838DF0120E11FAA3AB82AC838B29
:101970006E8C6F8D70BA25078A8212152780928A25
:1019800006BE3000402E8A06EE24C6402774FFB5FE
:101990006B13E56A75F00AA4FEEA24D02EF56A708E
:1019A000BFD20680BBE56B75F00AA4FEEA24D02EF8
:1019B000F56B80ACBA2E0A74FFB56BA4756B008012
:1019C0009F8A06BE6100400E8A06EE2485400753BA
:1019D00002DFD2018002C201BA20028075BA23035D
:1019E000021A61BA2A03021A66BA2B02805FBA2D64
:1019F000028055BA4202805FBA4303021AABBA446E
:101A000003021BE6BA4503021C00BA4603021BFC94
:101A1000BA4703021C04BA4903021BE6BA4C02800F
:101A20003BBA4E03021C08BA4F03021BEDBA500327
:101A3000021B7FBA5303021ACFBA5503021BF2BA34
:101A40005803021BF7021C32D205021960D20702AA
:101A50001960D208021960D20A021960D20B021969
:101A600060D20C02196074FFB56B20300A0BE5716F
:101A700014F88871866A021960E57124FEF888718D
:101A80008606088607188E6A021960300A0BE5710F
:101A900014F88871866B021960E57124FEF888716C
:101AA0008606088607188E6B021960300A0AE571EF
:101AB00014F888718602800FE57124FEF88871861B
:101AC00003088604188B028A82121527021C37E548
:101AD0007124FDF8887186030886040886051818A5
:101AE0008B628C638D648B828C838DF0122066AB4D
:101AF00082AC838B6C74FFB56B03856C6B20051D0A
:101B0000C3E56C956A5016E56AC3956CF56AAB6AD5
:101B1000156AEB600875822012152780F1856282B4
:101B20008563838564F0120E11FBFA6029AB6B1597
:101B30006BC3E464808BF063F08095F050188A8268
:101B4000121527AB62AC63AD640BBB00010C8B625A
:101B50008C638D6480C7200503021C37C3E56C9538
:101B60006A4003021C37E56AC3956CF56AAB6A15D7
:101B70006AEB7003021C3775822012152780EEE590
:101B80007124FDF8887186030886040886051818F4
:101B90008B628C638D64E564FB30E7047A438013C9
:101BA000EB546060047A50800AEB30E6047A498096
:101BB000027A588A82C00212152775823A121527B6
:101BC000758230121527758278121527D002BA490E
:101BD00002800BBA5002800685638212155A856214
:101BE0008212155A8051D20975690A804A756908AE
:101BF000804575690A8040756910803BD202803744
:101C0000D2038033D204802FE57124FDF8887186D9
:101C10000308860408860518188B628C638D648B14
:101C2000828C838DF0E567121EC8A3E568121EC87A
:101C300080058A82121527200206200303300470D3
:101C4000E57124FCF8887186030886040886050877
:101C500086061818188B628C638D648E65E562E5C4
:101C600063E564E5658B828C838DF0EE121F47740B
:101C7000FFB56B03756B06300427747F5565FB8BCE
:101C800066E566EB2BFB8B66E56430E70674014581
:101C900066F566E56624684006749925664002D2BA
:101CA000033003061218230219111215B00219117C
:101CB000E56970030219117B77300A2BE57114F87E
:101CC0008871E6FC3395E0FDFEFF8C628D638E64C7
:101CD0008F6520095EAC627D007E007F008C628D86
:101CE000638E648F65804C300B1FE57124FCF8888F
:101CF0007186040886050886060886071818188C59
:101D0000628D638E648F65802AE57124FEF8887188
:101D1000860408860518ED3395E0FEFF8C628D631E
:101D20008E648F6520090CAC62AD637E007F008EEF
:101D3000648F65300C43E5624563456445656039F1
:101D40007408B5690C758230C003121527D0038062
:101D5000287410B56923758230C003121527D0038B
:101D600030010C758278C003121527D003800A75E4
:101D70008258C003121527D003300925AC62AD6329
:101D8000AE64E565FF30E717C3E49CFCE49DFDE429
:101D90009EFEE49FFF8C628D638E648F658002C21D
:101DA00009756C00D20D8B00756600C000121571AC
:101DB000D000200D0DE566C4FCE6FD4CF618880346
:101DC0008002A666056CB20DE56245634564456513
:101DD00070D68803E56A7003756A0120061A20052B
:101DE00017E56C04FCC3956A500E758220C003127F
:101DF0001527D003156A80E930090E75822DC003BE
:101E0000121527D003156A8024E56C602030070E78
:101E100075822BC003121527D003156A800F300876
:101E20000C758220C003121527D003156A20051EE9
:101E3000AC6A156AC3E56C9C50273006047C308080
:101E4000027C208C82C003121527D00380E2C3E5F8
:101E50006C956A5009E56AC3956CF56A8003756AEA
:101E6000008B00AB6C156CEB6022B20D200D0A08E4
:101E7000E6C4540FFB8B6680078603740F5BF56620
:101E8000856682C000121541D00080D7200503026C
:101E90001911AB6A156AEB700302191175822012D1
:101EA000152780EE8A82121527021911856782850F
:101EB000688322AA82BA0A0810990280FB75990DDC
:101EC00010990280FB8A992220F71030F61188833E
:101ED000A88220F507F6A88375830022F280F7F028
:101EE000227F9E121F3530D10302143BC3EF95822F
:101EF000500974FFF5F0F583F5822279001214E49D
:101F000089828A838BF0EC22FCABF0AA83A98274CD
:101F10009EF582C2D1EC30E716D2D1E9F42401F962
:101F2000EAF43400FAEBF43400FBECF43400FC1275
:101F3000146902141AAA82AB83A2F73392D1600209
:101F4000D2F7F582ACF022C0E0F84582458345F037
:101F50007009F5F0FBFCFDFE022015E823A2F792C4
:101F6000E0F8A982AA83D2F7ABF07C007E07C374A5
:101F70009798404074FF2EFE740A89F0A4F985F00A
:101F800082740A8AF0A4FA85F083740A8BF0A4FBA9
:101F9000740529F9EA3582FAEB3583FB740035F0D4
:101FA000FCC3EC13FCEB13FBEA13FAE913F908EC9E
:101FB00070EF80BAE8C3947FF88B838EF0E4FBFC6B
:101FC000FDFEFF08C3E933F9EA33FAE58333F5830D
:101FD000EB3BD4FBEC3CD4FCED3DD4FDEE3ED4FE1B
:101FE000EF3FD4FF602D05F074052BD4FBE43CD407
:101FF000FCE43DD4FDE43ED4FEE43FD4FF7582040E
:10200000C3EF13FFEE13FEED13FDEC13FCEB13FB1C
:10201000D582EDD8AF7872D0E020E704762B80022D
:10202000762D087906E7C4540F4430F608B9060344
:10203000762E08E7540F4430F60819B902E77645C2
:1020400008E5F020E704762B8004762DF40408756B
:10205000F00A844430F608E5F04430F608E4F690DF
:10206000007275F04022AA82AB83ACF07D007E0046
:102070008A828B838CF0120E11FFA3AA82AB83EFAE
:1020800060070DBD00EA0E80E78D828E832200007E
:00000001FF
