:10000000020003758185120209E582600302006F18
:10001000780079007A007B007C007D00EC4D601C4C
:1000200088828983E493A3A882A9838A828B83F040
:10003000A3AA82AB831CBCFFE31D80E07582007520
:1000400083007C007D00EC4D600AE4F0A31CBCFF43
:10005000F51D80F27582007583007C007D00EC4DFB
:10006000600AE4F0A31CBCFFF51D80F21202081226
:10007000054780FE1B5B324A004144432074657390
:10008000742070726F6772616D0A46696C653A2000
:1000900025730A436F6D70696C65643A2025732C73
:1000A0002025730A0A00433A5C454C4543323931F6
:1000B0005C4C6162355C45464D385F4144432E637C
:1000C000004D617220203420323032340030303A1A
:1000D00032393A3435005265666572656E63652063
:1000E0005369676E616C2044617461202020202078
:1000F0002020207C53616D706C65205369676E61B0
:100100006C204461746120202020202020202020A9
:1001100020200A002D2D2D2D2D2D2D2D2D2D2D2D79
:100120002D2D2D2D2D2D2D2D2D2D2D2D2D2D2D2DFF
:100130002D2D2D2D2D2D2D2D2D2D2D2D2D2D2D2DEF
:100140002D2D2D2D2D2D2D2D2D2D2D2D2D0A00520A
:10015000656620506572696F642854293A2020250D
:10016000372E3666207320207C2053706C2050651B
:1001700072696F642854293A202025372E3666206C
:1001800073200A0052656620467265712866292030
:10019000203A202025372E366620487A207C2053AE
:1001A000706C204672657128662920203A2020252F
:1001B000372E366620487A0A00566D6178202872FC
:1001C0006566292020203A202025342E34662056CA
:1001D0000A0025372E36660A001B5B411B5B411B5C
:1001E0005B411B5B411B5B411B5B410052663A2537
:1001F00032642053703A25326420487A0056723AAD
:1002000025342E34662056002275A7007597DE75BA
:1002100097AD75FF8075EF0675A71075C12075A79E
:100220000075A90075A900E5A930E7FB75A903755C
:10023000A903E5A930E7FB43A41075E10175E200CD
:1002400075E340759810758DE6858D8B53890F4346
:100250008920D28ED2997582002275A700C2EF75CF
:10026000B28075BC2075B91E75E80075DF3F75B3A7
:1002700000D2EF22AA82438E407592B87593FF8513
:1002800092948593957591047B00C3EB9A500BE58E
:100290009130E7FB53917F0B80F075910022AA8289
:1002A000AB837C007D00C3EC9AED9B502B7E00BE9F
:1002B0000400501D7582FAC002C003C004C005C00E
:1002C00006120274D006D005D004D003D0020E80EE
:1002D000DE0CBC00D10D80CE22AA82AB83ACF0FD37
:1002E0007511507512C3751300751400C002C00358
:1002F000C004C005120D87AE82AF83D005D004D0F4
:1003000003D002EA3395E0FBFCFD7511507512C372
:100310007513007514008A828B838CF0EDC006C0C3
:1003200007120E15AA82ACF0FDD007D0067B00C3E1
:10033000EB9A50337C007D00C3EC9EED9F502575F9
:100340008201C002C003C004C005C006C00712027B
:1003500074D007D006D005D004D003D0020CBC0066
:10036000D70D80D40B80C8225389F0438901C28CF9
:1003700022AA828511F005F07401800225E0D5F0F3
:10038000FBFB75A720BA0002800ABA0102800FBAEF
:10039000021E8014EBF4FA52F1EB42D48012EBF41B
:1003A000FA52F2EB42D58008EBF4FA52F3EB42CC6E
:1003B00075A700228582BBC2EDD2EC30EDFD85BD74
:1003C0008285BE83221203B4120C27AA82AB83ACAF
:1003D000F0FDC002C003C004C005906C8B75F053E3
:1003E0007440120CE4AA82AB83ACF0FDE58124FCDE
:1003F000F581E4C0E074FCC0E0747FC0E07446C0E6
:10040000E08A828B838CF0ED120FD9AA82AB83AC89
:10041000F0FDE58124FCF5818A828B838CF0ED224E
:10042000D2A0758228120274C2A022AA828AE0A2F7
:10043000E79290A2E69291A2E59292A2E49293C0F2
:1004400002120420758228120274D0028AE0A2E30C
:100450009290A2E29291A2E19292A2E0929302047F
:1004600020AA82D2978A8212042B90000202029E56
:10047000AA82C2978A8212042B90000502029EC2B1
:10048000A090001412029E7582331204707582339C
:10049000120470758232120470758228120470750D
:1004A000820C120470758201120470900014020212
:1004B0009EAA82AB83ACF07402B523047DC0800297
:1004C0007D808D82C002C003C004120470900005BC
:1004D00012029ED004D003D0027D007E00ED2AFFE0
:1004E000EE3BF88C018F82888389F0120BA6FF60A7
:1004F000208F82C002C003C004C005C00612046180
:10050000D006D005D004D003D0020DBD00CF0E80A0
:10051000CC3000248D028E03C3EA9410EB648094E7
:10052000805015758220C002C003120461D003D030
:10053000020ABA00E30B80E022C2EDD2EC30EDFDFE
:1005400085BD8285BE832212047F1203689001F468
:1005500012029E7474C0E07400C0E07480C0E012A7
:100560000ED515811581158174CDC0E07400C0E0F1
:100570007480C0E074C1C0E07400C0E07480C0E06A
:1005800074A6C0E07400C0E07480C0E07479C0E07C
:100590007400C0E07480C0E0120ED5E58124F4F54B
:1005A0008175110275820212037175110375820241
:1005B00012037175110475820212037175110575AC
:1005C0008202120371751101758200120371120209
:1005D0005A75540075554075561C75574675600020
:1005E00075614075621C75634675BB12C2EDD2EC35
:1005F00030EDFD120539E5828583F045F070F41287
:100600000539E5828583F045F060F4752200758A2E
:1006100000758C00D28C120539E5828583F045F097
:100620006009108D0280EF052280EBC28C8522824A
:10063000120E0AAE82AF83A8F0F9C006C007C00050
:10064000C00190000075F0807447120CE4AE82AFD8
:1006500083A8F0F9E58124FCF581858C82C006C071
:1006600007C000C001120E0AAA82AB83ACF0FDC025
:1006700002C003C004C00590000075F080744312EE
:100680000CE4AA82AB83ACF0FDE58124FCF581D0BB
:1006900001D000D007D006C002C003C004C0058E40
:1006A000828F8388F0E9120E67AA82AB83ACF0FDDB
:1006B000E58124FCF581AE8A7F008E828F83C002A3
:1006C000C003C004C005120FCCAE82AF83A8F0F9FE
:1006D000D005D004D003D002C006C007C000C001BE
:1006E0008A828B838CF0ED120E67AA82AB83ACF00A
:1006F000FDE58124FCF581C002C003C004C0059063
:10070000F4FC75F0327434120CE4AA82AB83ACF0C2
:10071000FDE58124FCF581752200758A00758C0049
:10072000C002C003C004C005900000E4F5F07440AE
:10073000120CE485824885834985F04AF54BE581B2
:1007400024FCF5817417C0E074B7C0E07451C0E0B8
:100750007439C0E0854882854983854AF0E54B12AB
:100760000C33AE82E58124FCF581EE700E85544891
:1007700085554985564A85574B800C85485485498F
:1007800055854A56854B57C048C049C04AC04B9012
:10079000000075F080743F120FD985824C85834D1F
:1007A00085F04EF54FE58124FCF581E4C0E0C0E022
:1007B0007480C0E07440C0E0854882854983854AE2
:1007C000F0E54B120FD985825085835185F052F5A3
:1007D00053E58124FCF581C2EDD2EC30EDFD12052C
:1007E00039E5828583F045F070F4120539E582859C
:1007F00083F045F060F4C050C051C052C053900027
:100800000075F07A7444120CE4AE82AF83A8F0F95C
:10081000E58124FCF5818E828F8388F0E9120FC177
:1008200012029E7582121203C585825885835985EE
:10083000F05AF55B75BB11C2EDD2EC30EDFD12053F
:1008400039E5828583F045F070F4120539E582853B
:1008500083F045F060F4752200758A00758C00D233
:100860008C120539E5828583F045F06009108D0210
:1008700080EF052280EBC28C852282120E0AAE82A6
:10088000AF83A8F0F9C006C007C000C00190000007
:1008900075F0807447120CE4AE82AF83A8F0F9E5DE
:1008A0008124FCF581858C82C006C007C000C00190
:1008B000120E0AAA82AB83ACF0FDC002C003C004D2
:1008C000C00590000075F0807443120CE4AA82AB5E
:1008D00083ACF0FDE58124FCF581D001D000D00788
:1008E000D006C002C003C004C0058E828F8388F08A
:1008F000E9120E67AA82AB83ACF0FDE58124FCF51A
:1009000081AE8A7F008E828F83C002C003C004C084
:1009100005120FCCAE82AF83A8F0F9D005D004D079
:1009200003D002C006C007C000C0018A828B838C3E
:10093000F0ED120E67AA82AB83ACF0FDE58124FCDA
:10094000F581C002C003C004C00590F4FC75F0320C
:100950007434120CE4AA82AB83ACF0FDE58124FC74
:10096000F581752200758A00758C00C002C003C035
:1009700004C005900000E4F5F07440120CE4AA8273
:10098000AB83ACF0FDE58124FCF581C002C003C05F
:1009900004C0057417C0E074B7C0E07451C0E074BF
:1009A00039C0E08A828B838CF0ED120C33AE82E585
:1009B0008124FCF581D005D004D003D002EE700A6A
:1009C000AA60AB61AC62AD6380088A608B618C62A7
:1009D0008D63C002C003C004C005C002C003C004D0
:1009E000C00590000075F080743F120FD985825CBD
:1009F00085835D85F05EF55FE58124FCF58174D625
:100A0000C0E07400C0E07480C0E0120ED5158115FE
:100A10008115817414C0E07401C0E07480C0E012DC
:100A20000ED515811581158190000075F07A7444FA
:100A3000120CE4AA82AB83ACF0FDE58124FCF581C5
:100A4000C002C003C004C005C048C049C04AC04B72
:100A500090000075F07A7444120CE4AE82AF83A863
:100A6000F0F9E58124FCF581C006C007C000C00193
:100A7000744FC0E07401C0E07480C0E0120ED5E590
:100A80008124F5F581C05CC05DC05EC05FC04CC014
:100A90004DC04EC04F7484C0E07401C0E07480C08B
:100AA000E0120ED5E58124F5F581C058C059C05A31
:100AB000C05B74B9C0E07401C0E07480C0E0120E85
:100AC000D5E58124F9F581C050C051C052C053749E
:100AD000D2C0E07401C0E07480C0E0120ED5E581A0
:100AE00024F9F58174D9C0E07401C0E07480C0E0DD
:100AF000120ED5158115811581855C82855D8385F2
:100B00005EF0E55F120CB07511E8751203120EF677
:100B1000AA82AB83854C82854D83854EF0E54FC01C
:100B200002C003120CB07511E8751203120EF6AC78
:100B300082AD83C004C00574ECC0E07401C0E074F1
:100B400080C0E07434C0E07400C0E07440C0E012C3
:100B50000F7BE58124F6F581752301D200900034E6
:100B600075F0401204B1C058C059C05AC05B74FD42
:100B7000C0E07401C0E07480C0E07434C0E0740070
:100B8000C0E07440C0E0120F7BE58124F6F581756A
:100B90002302D20090003475F0401204B19001F4A9
:100BA00012029E0205E920F71430F6148883A88209
:100BB00020F507E6A88375830022E280F7E49322FC
:100BC000E022FB7A20E4FCFDFEFFE5822582F5822F
:100BD000E58333F583E5F033F5F0EB33FB4017DACB
:100BE000E98042E5822582F582E58333F583E5F0ED
:100BF00033F5F0EB33FBEC33FCED33FDEE33FEEF7E
:100C000033FFEC9511ED9512EE9513EF951440130B
:100C1000EC9511FCED9512FDEE9513FEEF9514FF8A
:100C2000438201DABEEB22E4AC83AB82FAF9748E24
:100C3000021101FFA8811818121129D2D133E64000
:100C40000730E70B7582012220E70675820022C279
:100C5000D112110BE97003F5822230D101B3E433D4
:100C6000F58222E511451260467A01E51125E0F58D
:100C700011E512334012F512E5829511E5839512C4
:100C800040030A80E6C3E51213F512E51113F511CE
:100C9000C3E5829511F5F0E58395124005F583854E
:100CA000F082C3E51213F512E51113F511DAE12212
:100CB000121154700AE582458345F0700122E43038
:100CC000D112F4700BE5F0F47006E58330E70122F1
:100CD00090800022700AE5F07006E58320E701228B
:100CE000907FFF22121231BC00030211D0EF60FA94
:100CF00030D502B2D1E583B4FF030211E6E582B438
:100D0000FF030211E6258340072482400B0211D025
:100D100024831450030211E6F582EA8DF0A4A8F0B2
:100D2000EA8EF0A428F8E435F0F9EB8DF0A428E978
:100D300035F0F9E433CA8FF0A429F9EA35F0FAEB7B
:100D4000F88EF0A429F9EA35F0FAE433FBEC8DF0E3
:100D5000A429F9EA35F0FAE43BFBE88FF0A42AFA7B
:100D6000EB35F0FBE433CCFD8EF0A42AFAEB35F042
:100D7000FBE43CFCED8FF0A42BFBEC35F0FC20E712
:100D8000031211FE0211AFF9E51145124513451486
:100D900060777800C308E51420E73BE51125E0F50E
:100DA00011E51233F512E51333F513E51433F51499
:100DB000E5829511E5839512E5F09513E9951450B8
:100DC000D4C3E51413F514E51313F513E51213F565
:100DD00012E51113F511E5829511FCE5839512FDDD
:100DE000E5F09513FEE995144007F98EF08D838C9C
:100DF00082C3E51413F514E51313F513E51213F587
:100E000012E51113F511D8CEE922E4AC82FBFAF910
:100E10007486021101FBC2D530E715D2D5E4C39523
:100E200082F582E49583F583E495F0F5F0E49BFB8D
:100E3000E51430E717B2D5E4C39511F511E4951226
:100E4000F512E49513F513E49514F514EB120BC2A7
:100E500030D513FBE4C39582F582E49583F583E4F2
:100E600095F0F5F0E49B221212317900E583B5820A
:100E700002800D500312125FE583C395821212792E
:100E8000E5D0C465D020E117EA2DFAEB3EFBEC3F3C
:100E9000FC50097401121279EC4480FC0211AFC3BA
:100EA000EA9DFAEB9EFBEC9FFC500FC3E499F9E43A
:100EB0009AFAE49BFBE49CFCB2D11211FE0211AF42
:100EC000021C4885827285837385F0748510759045
:100ED0000EC002169BC008858108E50824FBF57545
:100EE000E50824FBF88672088673088674900EC0A5
:100EF00012169BD00822C2D5E58330E70DD2D5E487
:100F0000C39582F582E49583F583E51230E70BE41F
:100F1000C39511F511E49512F512120C6330D50B3F
:100F2000E4C39582F582E49583F58322AA82AB0916
:100F3000AC0AAD0B8B828C838DF0EA121C5D050927
:100F4000E4B50902050A2285820985830A85F00B2A
:100F5000850C72850D73850E74850F75900F2C129C
:100F6000169BAA82AB83AC09AD0AAE0B8C828D8333
:100F70008EF0E4121C5D8A828B8322C00885810872
:100F8000E50824F8F575E50824FBF8860908860AC3
:100F900008860BE50824F8F88672088673088674BC
:100FA000900F2C12169BAA82AB83AC09AD0AAE0B34
:100FB0008C828D838EF0E4121C5D8A828B83D00834
:100FC000227F8E121C78F58385F08222AC83AB825F
:100FD0007A007900748E021CA612123130D502B24A
:100FE000D1BF0009BC00030211F30211E6BC0003EB
:100FF0000211D0E583B4FF0BE582B4FF030211F3C5
:101000000211D0E582B4FF030211E6C395835007B5
:10101000247F400B0211D024801450030211E6C03B
:10102000E0E4CCCBCAF98D118E128F13EF54F0C4CB
:10103000F5147583068514F0EB84F582E9C4F9EAAA
:10104000C4FAEBC4FBEC540FC47803D6FC18EBD6FF
:10105000FB18EAD6FA8582F0EDA4A8F0FD8582F0AF
:10106000EEA428FEE435F0F88582F0EFA428FFE432
:1010700035F0F8E99DF9EA9EFAEB9FFBEC98FCADA0
:1010800011AE12AF1330E7101582E92DF9EA3EFADE
:10109000EB3FFBE43CFC80EDC082D58398C3E93391
:1010A000F9EA33FAEB33FBEC33FCC3E99DEA9EEB40
:1010B0009FEC9400B3E413F9D002D0E0C44AFAD014
:1010C00003D0E0C44BFBD004D0E0F5F0540FC44C87
:1010D000FCD082158230F40FD3EC13FCEB13FBEA47
:1010E00013FAE913F90582E930E70A74012AFAE4F0
:1010F0003BFBE43CFC0211C7FCABF0AA83A9827461
:101100009EC2D1F5821211FE0211AF7901AA82E6C8
:101110008F82B5821318E6B5F00E18E6B58309186C
:10112000E68A82B58202790022B4800FE5F0700A67
:10113000E5837006E58270027F00EFB6801518B671
:10114000001018B6000B18B6000608080876002232
:1011500008080822121CCAC3749E9582403979007F
:1011600012127930D126E9F42401F582EAF4340030
:10117000F583EBF43400F5F0ECF43400700AE5820A
:10118000458345F0700122E430E70F22EC20E7149C
:1011900089828A838BF02230D10AE4F582F583F5C7
:1011A000F074802274FFF582F583F5F0747F22B924
:1011B0008003EA13B34010EA2401FAE43BFBE43C69
:1011C000FC50047C800582BC000EBB000BBA0008FA
:1011D000E4F5F0F583F58222A2D1E582138CF0923A
:1011E000F78B838A8222E4F583F58275F080F4A27E
:1011F000D11322E4F583F58275F0C0747F22780460
:10120000EC7011E58224F8500AF582E4C9CACBFCDF
:10121000D8EF22EC7820058220E713D5820122C383
:10122000E933F9EA33FAEB33FBEC33FCD8EA158205
:1012300022AA82AB83A2F73392D16002D2F7F58261
:10124000ACF0E58124F9F8E6FD08E6FE0886F00832
:10125000E6A2F73392D56002D2F7F583AFF022E52C
:1012600082C583F582A2D133A2D592D11392D5EC57
:10127000CFFCEBCEFBEACDFA226040F8258250028B
:1012800074FFF582E824F8501ECCCBCAF9E4CC24D4
:10129000F85014CBCAF9E4CB24F8500BCAF9E4CACD
:1012A00024F8500379002224086010F8C3EC13FCE2
:1012B000EB13FBEA13FAE913F9D8F122AA8274CDF1
:1012C000C0E07412C0E0C064C0658A8222056BE48D
:1012D000B56B02056C22AA8274302AFA24C6500A21
:1012E00074072AFA3001034302208A820212BCE505
:1012F00082FAC4540FF582C0021212D6D002740FC3
:101300005AF5820212D6AA66AB67AC68AD69AE6ABE
:10131000757120EE2EFEED235401FF4206EA2AFAF3
:10132000EB33FBEC33FCED33FDC3EE956D4008EE83
:10133000C3956DFE430201D571D98A668B678C68AF
:101340008D698E6A227882E624D075F00AA4FA7834
:1013500083E624D02AFA78818603BB2D04C3E49A5D
:10136000FA756D01C3E464808AF063F08095F050F3
:10137000297571038A0374F62571401C056DE571AA
:10138000142476F8E5712476F98704A604772E1BD9
:10139000EBFA6004057180DE8B02EA30E70D7877A6
:1013A00086037878A6037877762E0AE56F600AE5DB
:1013B0006F04FB256DF56D8005300C02056D7876A8
:1013C0008603E4BB2D0104FB7006200703300802EE
:1013D000056D30050302148C300657EB600C7582E6
:1013E0002DC0021212BCD002801C30070C75822B5B
:1013F000C0021212BCD002800D30080A758220C0D3
:10140000021212BCD00278778604BC2E0C75823092
:10141000C0021212BCD002156EAC6E156EC3E56D23
:101420009C40030214D0758230C0021212BCD0025C
:1014300080E7AC6E156EC3E56D9C500C758220C0C4
:10144000021212BCD00280EA78768604BC2D0C759C
:10145000822DC0021212BCD002801C30070C758293
:101460002BC0021212BCD002800D30080A758220F7
:10147000C0021212BCD00278778604BC2E5275824C
:1014800030C0021212BCD002156E8044EB600E75A3
:10149000822DC0021212BCD002156E802030070EC1
:1014A00075822BC0021212BCD002156E800F30085C
:1014B0000C758220C0021212BCD002156E7877869D
:1014C00003BB2E0C758230C0021212BCD002156E06
:1014D000757101C20EE5712476F88603BB450302DF
:1014E000158DBB2E348A03C3E464808BF063F080D7
:1014F00095F0500F758230C0031212BCD0031B8BC5
:101500000280E48B02D20EE56F7038200C030215C6
:101510008D75822E1212BC8074300E278A03EB3038
:10152000E71FC3E46480856FF063F08095F0500C92
:10153000758230C0031212BCD003156F0B8B028072
:10154000DD8B02300E0EC3E46480856FF063F080A3
:1015500095F05021E5712476F886038B82C0021243
:1015600012BCD002300E0EE5712476F88603BB2E35
:10157000028002156F156EC3E46480856FF063F01E
:101580008095F04003200E0505710214D5C3E46474
:1015900080856FF063F08095F0500A7582301212EA
:1015A000BC156F80E830050FAA6E156EEA600875ED
:1015B00082201212BC80F122E56F7003300C0D7492
:1015C00007256FFAE56EC39AF56E8006E56E24FA7C
:1015D000F56E75710078768602BA2B0F20070C78AD
:1015E000767620200805757101056E200519AA6E12
:1015F000C3E464808AF063F08095F0500A7582201D
:101600001212BC156E80E7C20EE5712476F88602D0
:10161000BA00028069BA451F3001027665C3E464EE
:1016200080856FF063F08095F0500A758230121259
:10163000BC156F80E8D20EC3E5719402E433FA70F2
:1016400014EA700EC3E46480856FF063F08095F057
:101650004003300E16E5712476F886028A82121253
:10166000BCE57124FD5012156F800E7402B571092E
:10167000300C0675822E1212BC0571021609300557
:1016800019AA6EC3E464808AF063F08095F0500A72
:101690007582201212BC156E80E7228582648583D4
:1016A00065E4F56BF56CAA72AB73AC748A828B83BC
:1016B0008CF0120BA6FD74012AF572E43BF5738CD5
:1016C00074EDFA7003021C41BA25028003021C3932
:1016D000C205C206C207C208C209C20AC20BC20CB6
:1016E000C202C203C204756D00756E00756FFFAB58
:1016F00072AC73AD748B828C838DF0120BA6FAA33F
:10170000AB82AC838B728C738D74BA25078A82127C
:1017100012BC80928A06BE3000402E8A06EE24C695
:10172000402774FFB56F13E56E75F00AA4FEEA2436
:10173000D02EF56E70BFD20680BBE56F75F00AA49F
:10174000FEEA24D02EF56F80ACBA2E0A74FFB56F76
:10175000A4756F00809F8A06BE6100400E8A06EE67
:10176000248540075302DFD2018002C201BA200261
:101770008075BA23030217F6BA2A030217FBBA2BA5
:1017800002805FBA2D028055BA4202805FBA4303DD
:10179000021840BA440302197BBA4503021995BAEC
:1017A0004603021991BA4703021999BA490302196B
:1017B0007BBA4C02803BBA4E0302199DBA4F03021A
:1017C0001982BA5003021914BA5303021864BA55A5
:1017D00003021987BA580302198C0219C7D20502ED
:1017E00016F5D2070216F5D2080216F5D20A02162D
:1017F000F5D20B0216F5D20C0216F574FFB56F2068
:10180000300A0BE57514F88875866E0216F5E575D5
:1018100024FEF888758606088607188E6E0216F56F
:10182000300A0BE57514F88875866F0216F5E575B4
:1018300024FEF888758606088607188E6F0216F54E
:10184000300A0AE57514F888758602800FE575245C
:10185000FEF888758603088604188B028A821212A5
:10186000BC0219CCE57524FDF8887586030886044A
:1018700008860518188B668C678D688B828C838D23
:10188000F0121DFBAB82AC838B7074FFB56F0385C8
:10189000706F20051DC3E570956E5016E56EC395FB
:1018A00070F56EAB6E156EEB60087582201212BC7F
:1018B00080F18566828567838568F0120BA6FBFA46
:1018C0006029AB6F156FC3E464808BF063F0809583
:1018D000F050188A821212BCAB66AC67AD680BBBC5
:1018E00000010C8B668C678D6880C7200503021988
:1018F000CCC3E570956E40030219CCE56EC39570BC
:10190000F56EAB6E156EEB70030219CC758220126A
:1019100012BC80EEE57524FDF88875860308860400
:1019200008860518188B668C678D68E568FB30E7BC
:10193000047A438013EB546060047A50800AEB30E1
:10194000E6047A4980027A588A82C0021212BC7573
:10195000823A1212BC7582301212BC758278121251
:10196000BCD002BA4902800BBA5002800685678259
:101970001212EF8566821212EF8051D209756D0A3C
:10198000804A756D088045756D0A8040756D1080C0
:101990003BD2028037D2038033D204802FE57524F6
:1019A000FDF88875860308860408860518188B6676
:1019B0008C678D688B828C838DF0E56B121C5DA328
:1019C000E56C121C5D80058A821212BC2002062082
:1019D0000303300470E57524FCF8887586030886D7
:1019E000040886050886061818188B668C678D68AB
:1019F0008E69E566E567E568E5698B828C838DF025
:101A0000EE121CDC74FFB56F03756F06300427748B
:101A10007F5569FB8B6AE56AEB2BFB8B6AE56830C7
:101A2000E7067401456AF56AE56A24684006749918
:101A3000256A4002D2033003061215B80216A61218
:101A400013450216A6E56D70030216A67B7B300ACD
:101A50002BE57514F88875E6FC3395E0FDFEFF8CE8
:101A6000668D678E688F6920095EAC667D007E009A
:101A70007F008C668D678E688F69804C300B1FE508
:101A80007524FCF88875860408860508860608868D
:101A9000071818188C668D678E688F69802AE5751F
:101AA00024FEF88875860408860518ED3395E0FE57
:101AB000FF8C668D678E688F6920090CAC66AD67F8
:101AC0007E007F008E688F69300C43E56645674570
:101AD00068456960397408B56D0C758230C00312B1
:101AE00012BCD00380287410B56D23758230C003FA
:101AF0001212BCD00330010C758278C0031212BCE4
:101B0000D003800A758258C0031212BCD00330097A
:101B100025AC66AD67AE68E569FF30E717C3E49CA6
:101B2000FCE49DFDE49EFEE49FFF8C668D678E685D
:101B30008F698002C209757000D20D8B00756A0032
:101B4000C000121306D000200D0DE56AC4FCE6FDAE
:101B50004CF61888038002A66A0570B20DE566454A
:101B6000674568456970D68803E56E7003756E0138
:101B700020061A200517E57004FCC3956E500E75FB
:101B80008220C0031212BCD003156E80E930090E0A
:101B900075822DC0031212BCD003156E8024E5702F
:101BA000602030070E75822BC0031212BCD00315C3
:101BB0006E800F30080C758220C0031212BCD00357
:101BC000156E20051EAC6E156EC3E5709C50273057
:101BD00006047C3080027C208C82C0031212BCD0B0
:101BE0000380E2C3E570956E5009E56EC39570F50C
:101BF0006E8003756E008B00AB701570EB6022B2C7
:101C00000D200D0A08E6C4540FFB8B6A800786037B
:101C1000740F5BF56A856A82C0001212D6D000800C
:101C2000D72005030216A6AB6E156EEB70030216E5
:101C3000A67582201212BC80EE8A821212BC021695
:101C4000A6856B82856C8322AA82BA0A0810990243
:101C500080FB75990D10990280FB8A992220F7105C
:101C600030F6118883A88220F507F6A883758300D3
:101C700022F280F7F0227F9E121CCA30D10302119B
:101C8000D0C3EF9582500974FFF5F0F583F58222F9
:101C9000790012127989828A838BF0EC22FCABF0F6
:101CA000AA83A982749EF582C2D1EC30E716D2D104
:101CB000E9F42401F9EAF43400FAEBF43400FBEC23
:101CC000F43400FC1211FE0211AFAA82AB83A2F71A
:101CD0003392D16002D2F7F582ACF022C0E0F84531
:101CE00082458345F07009F5F0FBFCFDFE021DAA5C
:101CF000E823A2F792E0F8A982AA83D2F7ABF07C9E
:101D0000007E07C3749798404074FF2EFE740A89C2
:101D1000F0A4F985F082740A8AF0A4FA85F083743D
:101D20000A8BF0A4FB740529F9EA3582FAEB3583B6
:101D3000FB740035F0FCC3EC13FCEB13FBEA13FA65
:101D4000E913F908EC70EF80BAE8C3947FF88B834D
:101D50008EF0E4FBFCFDFEFF08C3E933F9EA33FA39
:101D6000E58333F583EB3BD4FBEC3CD4FCED3DD475
:101D7000FDEE3ED4FEEF3FD4FF602D05F074052B41
:101D8000D4FBE43CD4FCE43DD4FDE43ED4FEE43F8B
:101D9000D4FF758204C3EF13FFEE13FEED13FDECC9
:101DA00013FCEB13FBD582EDD8AF7876D0E020E7BB
:101DB00004762B8002762D087906E7C4540F443050
:101DC000F608B90603762E08E7540F4430F60819D2
:101DD000B902E7764508E5F020E704762B80047623
:101DE0002DF4040875F00A844430F608E5F0443018
:101DF000F608E4F690007675F04022AA82AB83AC38
:101E0000F07D007E008A828B838CF0120BA6FFA3EC
:101E1000AA82AB83EF60070DBD00EA0E80E78D82DA
:101E20008E8322000000000000000000000000007F
:00000001FF
