:100000000200037581691200F9E582600302006F46
:10001000780079007A007B007C007D00EC4D601C4C
:1000200088828983E493A3A882A9838A828B83F040
:10003000A3AA82AB831CBCFFE31D80E07582007520
:1000400083007C007D00EC4D600AE4F0A31CBCFF43
:10005000F51D80F27582007583007C007D00EC4DFB
:10006000600AE4F0A31CBCFFF51D80F21200F81238
:1000700003A880FE1B5B324A004144432074657331
:10008000742070726F6772616D0A46696C653A2000
:1000900025730A436F6D70696C65643A2025732C73
:1000A0002025730A0A00433A5C454C4543323931F6
:1000B0005C4C6162355C45464D385F4144432E637C
:1000C000004D617220203320323032340031383A12
:1000D00032393A30350054286D73293A2025372EAD
:1000E00039660D0054286D73293A2025660066286C
:1000F000487A293A202566002275A7007597DE7593
:1001000097AD75FF8075EF0675A71075C12075A7AF
:100110000075A90075A900E5A930E7FB75A903756D
:10012000A903E5A930E7FB43A41075E10175E200DE
:1001300075E340759810758DE6858D8B53890F4357
:100140008920D28ED2997582002275A700C2EF75E0
:10015000B28075BC2075B91E75E80075DF3F75B3B8
:1001600000D2EF22AA82438E407592B87593FF8524
:1001700092948593957591047B00C3EB9A500BE59F
:100180009130E7FB53917F0B80F075910022AA829A
:10019000AB837C007D00C3EC9AED9B502B7E00BEB0
:1001A0000400501D7582FAC002C003C004C005C01F
:1001B00006120164D006D005D004D003D0020E8010
:1001C000DE0CBC00D10D80CE225389F0438901C2E0
:1001D0008C22AA828511F005F07401800225E0D5F9
:1001E000F0FBFB75A720BA0002800ABA0102800F5B
:1001F000BA021E8014EBF4FA52F1EB42D48012EBF7
:10020000F4FA52F2EB42D58008EBF4FA52F3EB42E7
:10021000CC75A700228582BBC2EDD2EC30EDFD8506
:10022000BD8285BE83221202151206B9AA82AB8353
:10023000ACF0FDC002C003C004C005906C8B75F02B
:100240005374401206C5AA82AB83ACF0FDE581244D
:10025000FCF581E4C0E074FCC0E0747FC0E074464B
:10026000C0E08A828B838CF0ED1208A4AA82AB8353
:10027000ACF0FDE58124FCF5818A828B838CF0ED66
:1002800022D2A0758228120164C2A022AA828AE02A
:10029000A2E79290A2E69291A2E59292A2E49293B2
:1002A000C002120281758228120164D0028AE0A283
:1002B000E39290A2E29291A2E19292A2E092930242
:1002C0000281AA82D2978A8212028C9000020201D5
:1002D0008EAA82C2978A8212028C90000502018E39
:1002E000C2A090001412018E7582331202D1758261
:1002F000331202D17582321202D17582281202D1D4
:1003000075820C1202D17582011202D19000140282
:10031000018EAA82AB83ACF07402B523047DC08049
:10032000027D808D82C002C003C0041202D1900001
:100330000512018ED004D003D0027D007E00ED2A8C
:10034000FFEE3BF88C018F82888389F012069DFFB7
:1003500060208F82C002C003C004C005C006120224
:10036000C2D006D005D004D003D0020DBD00CF0E00
:1003700080CC3000248D028E03C3EA9410EB64809D
:1003800094805015758220C002C0031202C2D003AF
:10039000D0020ABA00E30B80E022C2EDD2EC30EDCD
:1003A000FD85BD8285BE83221202E01201C9900143
:1003B000F412018E7474C0E07400C0E07480C0E078
:1003C0001207E115811581158174CDC0E07400C05C
:1003D000E07480C0E074C1C0E07400C0E07480C00C
:1003E000E074A6C0E07400C0E07480C0E07479C01E
:1003F000E07400C0E07480C0E01207E1E58124F4FD
:10040000F5817511027582021201D2751103758290
:10041000021201D27511047582021201D275110502
:100420007582021201D27511017582001201D21279
:10043000014A75BB00C2EDD2EC30EDFD12039AE526
:10044000828583F045F070F412039AE5828583F08B
:1004500045F060F4752200758A00758C00D28C120C
:10046000039AE5828583F045F06009108D0280EFE4
:10047000052280EBC28C852282120768AA82AB8398
:10048000ACF0FDC002C003C004C00590000075F0D0
:100490008074471206C5AA82AB83ACF0FDE58124C7
:1004A000FCF581858C82C002C003C004C005120720
:1004B00068AE82AF83A8F0F9C006C007C000C001D3
:1004C00090000075F08074431206C5AE82AF83A819
:1004D000F0F9E58124FCF581D005D004D003D002E9
:1004E000C006C007C000C0018A828B838CF0ED1269
:1004F0000773AA82AB83ACF0FDE58124FCF581AEE5
:100500008A7F008E828F83C002C003C004C00512A0
:100510000897AE82AF83A8F0F9D005D004D003D0FD
:1005200002C006C007C000C0018A828B838CF0ED38
:10053000120773AA82AB83ACF0FDE58124FCF58140
:10054000C002C003C004C00590F4FC75F0327434DE
:100550001206C5AA82AB83ACF0FDE58124FCF581CF
:10056000752200758A00758C00C002C003C004C0EB
:1005700005900000E4F5F074401206C5AA82AB8332
:10058000ACF0FDE58124FCF581C002C003C004C0CD
:1005900005C002C003C004C00590000075F080745F
:1005A0003F1208A4AE82AF83A8F0F9E58124FCF5E0
:1005B00081D005D004D003D002C006C007C000C05F
:1005C00001C002C003C004C00590000075F07A7439
:1005D000441206C5AA82AB83ACF0FDE58124FCF58C
:1005E00081D001D000D007D006C002C003C004C033
:1005F00005C006C007C000C001C002C003C004C0DF
:100600000574D6C0E07400C0E07480C0E01207E159
:10061000E58124F9F5819001F412018ED001D0001A
:10062000D007D006D005D004D003D002C006C00742
:10063000C000C001C002C003C004C00574E4C0E033
:100640007400C0E07480C0E07434C0E07400C0E0A6
:100650007440C0E0120851E58124F6F5817523014C
:10066000D20090003475F04012031274EEC0E074B2
:1006700000C0E07480C0E07434C0E07400C0E07476
:1006800040C0E0120851E58124F6F581752302D2BD
:100690000090003475F04012031202043220F71467
:1006A00030F6148883A88220F507E6A883758300B6
:1006B00022E280F7E49322E022E4AC83AB82FAF9F1
:1006C000748E0209CC120A58BC00030209F7EF60CD
:1006D000FA30D502B2D1E583B4FF03020A0DE582F8
:1006E000B4FF03020A0D258340072482400B020950
:1006F000F72483145003020A0DF582EA8DF0A4A8B2
:10070000F0EA8EF0A428F8E435F0F9EB8DF0A42897
:10071000E935F0F9E433CA8FF0A429F9EA35F0FAA3
:10072000EBF88EF0A429F9EA35F0FAE433FBEC8D0E
:10073000F0A429F9EA35F0FAE43BFBE88FF0A42AAB
:10074000FAEB35F0FBE433CCFD8EF0A42AFAEB355E
:10075000F0FBE43CFCED8FF0A42BFBEC35F0FC202F
:10076000E703120A250209D6E4AC82FBFAF9748683
:100770000209CC120A587900E583B58202800D5037
:1007800003120A86E583C39582120AA0E5D0C465E8
:10079000D020E117EA2DFAEB3EFBEC3FFC50097448
:1007A00001120AA0EC4480FC0209D6C3EA9DFAEBD0
:1007B0009EFBEC9FFC500FC3E499F9E49AFAE49B8A
:1007C000FBE49CFCB2D1120A250209D602146F8503
:1007D000825685835785F0588510599007CC020EB4
:1007E000C2C008858108E50824FBF559E50824FB0B
:1007F000F886560886570886589007CC120EC2D045
:100800000822AA82AB09AC0AAD0B8B828C838DF0D7
:10081000EA1214840509E4B50902050A2285820951
:1008200085830A85F00B850C56850D57850E5885F6
:100830000F59900802120EC2AA82AB83AC09AD0A0E
:10084000AE0B8C828D838EF0E41214848A828B83AB
:1008500022C008858108E50824F8F559E50824FB3D
:10086000F8860908860A08860BE50824F8F88656F3
:10087000088657088658900802120EC2AA82AB83D7
:10088000AC09AD0AAE0B8C828D838EF0E412148419
:100890008A828B83D00822AC83AB827A0079007481
:1008A0008E0214A6120A5830D502B2D1BF0009BC7C
:1008B0000003020A1A020A0DBC00030209F7E583CD
:1008C000B4FF0BE582B4FF03020A1A0209F7E582BE
:1008D000B4FF03020A0DC395835007247F400B0227
:1008E00009F72480145003020A0DC0E0E4CCCBCAFF
:1008F000F98D118E128F13EF54F0C4F51475830621
:100900008514F0EB84F582E9C4F9EAC4FAEBC4FB80
:10091000EC540FC47803D6FC18EBD6FB18EAD6FAD1
:100920008582F0EDA4A8F0FD8582F0EEA428FEE417
:1009300035F0F88582F0EFA428FFE435F0F8E99D62
:10094000F9EA9EFAEB9FFBEC98FCAD11AE12AF13E7
:1009500030E7101582E92DF9EA3EFAEB3FFBE43C63
:10096000FC80EDC082D58398C3E933F9EA33FAEB12
:1009700033FBEC33FCC3E99DEA9EEB9FEC9400B3A0
:10098000E413F9D002D0E0C44AFAD003D0E0C44B5B
:10099000FBD004D0E0F5F0540FC44CFCD08215829B
:1009A00030F40FD3EC13FCEB13FBEA13FAE913F961
:1009B0000582E930E70A74012AFAE43BFBE43CFCD7
:1009C0000209EEFCABF0AA83A982749EC2D1F58223
:1009D000120A250209D6B98003EA13B34010EA24AB
:1009E00001FAE43BFBE43CFC50047C800582BC0043
:1009F0000EBB000BBA0008E4F5F0F583F58222A2E5
:100A0000D1E582138CF092F78B838A8222E4F583FE
:100A1000F58275F080F4A2D11322E4F583F5827596
:100A2000F0C0747F227804EC7011E58224F8500A3B
:100A3000F582E4C9CACBFCD8EF22EC7820058220ED
:100A4000E713D5820122C3E933F9EA33FAEB33FB2A
:100A5000EC33FCD8EA158222AA82AB83A2F7339248
:100A6000D16002D2F7F582ACF0E58124F9F8E6FD19
:100A700008E6FE0886F008E6A2F73392D56002D2B7
:100A8000F7F583AFF022E582C583F582A2D133A2C8
:100A9000D592D11392D5ECCFFCEBCEFBEACDFA2266
:100AA0006040F82582500274FFF582E824F8501E59
:100AB000CCCBCAF9E4CC24F85014CBCAF9E4CB244B
:100AC000F8500BCAF9E4CA24F8500379002224082C
:100AD0006010F8C3EC13FCEB13FBEA13FAE913F90B
:100AE000D8F122AA8274F4C0E0740AC0E0C048C001
:100AF000498A8222054FE4B54F02055022AA82742A
:100B0000302AFA24C6500A74072AFA300103430235
:100B1000208A82020AE3E582FAC4540FF582C002F9
:100B2000120AFDD002740F5AF582020AFDAA4AABDE
:100B30004BAC4CAD4DAE4E755520EE2EFEED235414
:100B400001FF4206EA2AFAEB33FBEC33FCED33FDFE
:100B5000C3EE95514008EEC39551FE430201D555B1
:100B6000D98A4A8B4B8C4C8D4D8E4E227866E6246A
:100B7000D075F00AA4FA7867E624D02AFA78658658
:100B800003BB2D04C3E49AFA755101C3E464808A5F
:100B9000F063F08095F050297555038A0374F625AB
:100BA00055401C0551E55514245AF8E555245AF9C9
:100BB0008704A604772E1BEBFA6004055580DE8BB4
:100BC00002EA30E70D785B8603785CA603785B76F3
:100BD0002E0AE553600AE55304FB2551F5518005C3
:100BE000300C020551785A8603E4BB2D0104FB70DA
:100BF000062007033008020551300503020CB3300C
:100C00000657EB600C75822DC002120AE3D00280F9
:100C10001C30070C75822BC002120AE3D002800D33
:100C200030080A758220C002120AE3D002785B867F
:100C300004BC2E0C758230C002120AE3D002155299
:100C4000AC521552C3E5519C4003020CF77582303B
:100C5000C002120AE3D00280E7AC521552C3E5513C
:100C60009C500C758220C002120AE3D00280EA7800
:100C70005A8604BC2D0C75822DC002120AE3D002E4
:100C8000801C30070C75822BC002120AE3D0028050
:100C90000D30080A758220C002120AE3D002785B88
:100CA0008604BC2E52758230C002120AE3D00215AF
:100CB000528044EB600E75822DC002120AE3D0020E
:100CC0001552802030070E75822BC002120AE3D025
:100CD000021552800F30080C758220C002120AE300
:100CE000D0021552785B8603BB2E0C758230C00291
:100CF000120AE3D0021552755501C20EE555245A69
:100D0000F88603BB4503020DB4BB2E348A03C3E44B
:100D100064808BF063F08095F0500F758230C003D3
:100D2000120AE3D0031B8B0280E48B02D20EE55340
:100D30007038200C03020DB475822E120AE3807401
:100D4000300E278A03EB30E71FC3E464808553F03D
:100D500063F08095F0500C758230C003120AE3D026
:100D60000315530B8B0280DD8B02300E0EC3E4643F
:100D7000808553F063F08095F05021E555245AF8B2
:100D800086038B82C002120AE3D002300E0EE555B4
:100D9000245AF88603BB2E02800215531552C3E471
:100DA00064808553F063F08095F04003200E0505C4
:100DB00055020CFCC3E464808553F063F08095F029
:100DC000500A758230120AE3155380E830050FAAE5
:100DD000521552EA6008758220120AE380F122E57A
:100DE000537003300C0D74072553FAE552C39AF57E
:100DF000528006E55224FAF552755500785A86025B
:100E0000BA2B0F20070C785A76202008057555015B
:100E10000552200519AA52C3E464808AF063F08069
:100E200095F0500A758220120AE3155280E7C20E2F
:100E3000E555245AF88602BA00028069BA451F3087
:100E400001027665C3E464808553F063F08095F019
:100E5000500A758230120AE3155380E8D20EC3E5BA
:100E6000559402E433FA7014EA700EC3E46480858A
:100E700053F063F08095F04003300E16E555245A88
:100E8000F886028A82120AE3E55524FD50121553B2
:100E9000800E7402B55509300C0675822E120AE3D5
:100EA0000555020E30300519AA52C3E464808AF059
:100EB00063F08095F0500A758220120AE315528083
:100EC000E722858248858349E4F54FF550AA56AB61
:100ED00057AC588A828B838CF012069DFD74012AD0
:100EE000F556E43BF5578C58EDFA7003021468BAD6
:100EF00025028003021460C205C206C207C208C2EE
:100F000009C20AC20BC20CC202C203C2047551005C
:100F10007552007553FFAB56AC57AD588B828C831E
:100F20008DF012069DFAA3AB82AC838B568C578D45
:100F300058BA25078A82120AE380928A06BE3000D8
:100F4000402E8A06EE24C6402774FFB55313E5529F
:100F500075F00AA4FEEA24D02EF55270BFD20680A6
:100F6000BBE55375F00AA4FEEA24D02EF55380ACFD
:100F7000BA2E0A74FFB553A4755300809F8A06BE2B
:100F80006100400E8A06EE248540075302DFD2013D
:100F90008002C201BA20028075BA230302101DBA72
:100FA0002A03021022BA2B02805FBA2D028055BAA2
:100FB0004202805FBA4303021067BA44030211A2DF
:100FC000BA45030211BCBA46030211B8BA4703027C
:100FD00011C0BA49030211A2BA4C02803BBA4E03B7
:100FE0000211C4BA4F030211A9BA500302113BBA4D
:100FF000530302108BBA55030211AEBA5803021103
:10100000B30211EED205020F1CD207020F1CD20848
:10101000020F1CD20A020F1CD20B020F1CD20C02B0
:101020000F1C74FFB55320300A0BE55914F888598A
:101030008652020F1CE55924FEF888598606088658
:1010400007188E52020F1C300A0BE55914F8885904
:101050008653020F1CE55924FEF888598606088637
:1010600007188E53020F1C300A0AE55914F88859E4
:101070008602800FE55924FEF88859860308860405
:10108000188B028A82120AE30211F3E55924FDF853
:101090008859860308860408860518188B4A8C4BE5
:1010A0008D4C8B828C838DF01215E9AB82AC838BD7
:1010B0005474FFB5530385545320051DC3E554955F
:1010C000525016E552C39554F552AB521552EB608F
:1010D00008758220120AE380F1854A82854B838558
:1010E0004CF012069DFBFA6029AB531553C3E46420
:1010F000808BF063F08095F050188A82120AE3AB7F
:101100004AAC4BAD4C0BBB00010C8B4A8C4B8D4C4D
:1011100080C72005030211F3C3E554955240030232
:1011200011F3E552C39554F552AB521552EB7003CF
:101130000211F3758220120AE380EEE55924FDF8CE
:101140008859860308860408860518188B4A8C4B34
:101150008D4CE54CFB30E7047A438013EB54606020
:10116000047A50800AEB30E6047A4980027A588A81
:1011700082C002120AE375823A120AE375823012C3
:101180000AE3758278120AE3D002BA4902800BBAE8
:1011900050028006854B82120B16854A82120B166E
:1011A0008051D20975510A804A75510880457551A0
:1011B0000A8040755110803BD2028037D2038033C1
:1011C000D204802FE55924FDF88859860308860447
:1011D00008860518188B4A8C4B8D4C8B828C838D1E
:1011E000F0E54F121484A3E55012148480058A821E
:1011F000120AE3200206200303300470E55924FCA0
:10120000F888598603088604088605088606181893
:10121000188B4A8C4B8D4C8E4DE54AE54BE54CE5E1
:101220004D8B828C838DF0EE1214CA74FFB553037C
:10123000755306300427747F554DFB8B4EE54EEBFE
:101240002BFB8B4EE54C30E7067401454EF54EE521
:101250004E246840067499254E4002D2033003069E
:10126000120DDF020ECD120B6C020ECDE551700394
:10127000020ECD7B5F300A2BE55914F88859E6FC45
:101280003395E0FDFEFF8C4A8D4B8E4C8F4D20092F
:101290005EAC4A7D007E007F008C4A8D4B8E4C8F69
:1012A0004D804C300B1FE55924FCF8885986040802
:1012B00086050886060886071818188C4A8D4B8EF6
:1012C0004C8F4D802AE55924FEF8885986040886FB
:1012D0000518ED3395E0FEFF8C4A8D4B8E4C8F4DFB
:1012E00020090CAC4AAD4B7E007F008E4C8F4D30F8
:1012F0000C43E54A454B454C454D60397408B551A2
:101300000C758230C003120AE3D00380287410B534
:101310005123758230C003120AE3D00330010C75EB
:101320008278C003120AE3D003800A758258C00392
:10133000120AE3D003300925AC4AAD4BAE4CE54D63
:10134000FF30E717C3E49CFCE49DFDE49EFEE49FB0
:10135000FF8C4A8D4B8E4C8F4D8002C20975540014
:10136000D20D8B00754E00C000120B2DD000200D49
:101370000DE54EC4FCE6FD4CF61888038002A64E2F
:101380000554B20DE54A454B454C454D70D6880392
:10139000E552700375520120061A200517E5540422
:1013A000FCC39552500E758220C003120AE3D0038D
:1013B000155280E930090E75822DC003120AE3D060
:1013C0000315528024E554602030070E75822BC02F
:1013D00003120AE3D0031552800F30080C758220E7
:1013E000C003120AE3D003155220051EAC52155259
:1013F000C3E5549C50273006047C3080027C208C4E
:1014000082C003120AE3D00380E2C3E55495525030
:1014100009E552C39554F55280037552008B00AB19
:10142000541554EB6022B20D200D0A08E6C4540F87
:10143000FB8B4E80078603740F5BF54E854E82C092
:1014400000120AFDD00080D7200503020ECDAB525A
:101450001552EB7003020ECD758220120AE380EE66
:101460008A82120AE3020ECD854F8285508322AA1A
:1014700082BA0A0810990280FB75990D10990280B2
:10148000FB8A992220F71030F6118883A88220F574
:1014900007F6A88375830022F280F7F022FCABF0F8
:1014A000AA83A982749EF582C2D1EC30E716D2D10C
:1014B000E9F42401F9EAF43400FAEBF43400FBEC2B
:1014C000F43400FC120A250209D6C0E0F845824532
:1014D0008345F07009F5F0FBFCFDFE021598E8234A
:1014E000A2F792E0F8A982AA83D2F7ABF07C007E43
:1014F00007C3749798404074FF2EFE740A89F0A4C5
:10150000F985F082740A8AF0A4FA85F083740A8B54
:10151000F0A4FB740529F9EA3582FAEB3583FB74F4
:101520000035F0FCC3EC13FCEB13FBEA13FAE913F0
:10153000F908EC70EF80BAE8C3947FF88B838EF0E3
:10154000E4FBFCFDFEFF08C3E933F9EA33FAE58367
:1015500033F583EB3BD4FBEC3CD4FCED3DD4FDEE0A
:101560003ED4FEEF3FD4FF602D05F074052BD4FB75
:10157000E43CD4FCE43DD4FDE43ED4FEE43FD4FF9F
:10158000758204C3EF13FFEE13FEED13FDEC13FCA5
:10159000EB13FBD582EDD8AF785AD0E020E7047684
:1015A0002B8002762D087906E7C4540F4430F608E4
:1015B000B90603762E08E7540F4430F60819B9022D
:1015C000E7764508E5F020E704762B8004762DF4D5
:1015D000040875F00A844430F608E5F04430F60853
:1015E000E4F690005A75F04022AA82AB83ACF07DFD
:1015F000007E008A828B838CF012069DFFA3AA8254
:10160000AB83EF60070DBD00EA0E80E78D828E830D
:1016100022000000000000000000000000000000A8
:00000001FF
