:10000000020003758131120112E582600302006F64
:10001000780079007A007B007C007D00EC4D601C4C
:1000200088828983E493A3A882A9838A828B83F040
:10003000A3AA82AB831CBCFFE31D80E07582007520
:1000400083007C007D00EC4D600AE4F0A31CBCFF43
:10005000F51D80F27582007583007C007D00EC4DFB
:10006000600AE4F0A31CBCFFF51D80F2120111121E
:1000700001CB80FE1B5B324A0045464D382050655F
:1000800072696F64206D6561737572656D656E74FC
:100090002061742070696E2050302E312075736994
:1000A0006E672054696D657220302E0A46696C6552
:1000B0003A2025730A436F6D70696C65643A202598
:1000C000732C2025730A0A00433A5C454C454332A1
:1000D00039315C4C6162355C5265666572656E6390
:1000E000655C506572696F6445464D382E63004DFE
:1000F000617220203320323032340031343A3533CB
:100100003A3038000D543D2566206D7320202020A4
:10011000002275A7007597DE7597AD43FF8075EFD8
:100120000275A71075C12075A70075A90075A900F3
:10013000E5A930E7FB75A90375A903E5A930E7FB3D
:1001400043A41075E10175E20075E34075981085D0
:100150008E8E758DE6858D8B53890F438920D28EC7
:10016000D29975820022AA82438E407592B8759307
:10017000FF8592948593957591047B00C3EB9A500B
:100180000BE59130E7FB53917F0B80F075910022D6
:10019000AA82AB83BA0004BB0001227582F9C002B7
:1001A000C0031201667582F91201667582F91201A7
:1001B000667582FA120166D003D0021ABAFF011BDB
:1001C00080D25389F0438901C28C221201C290016E
:1001D000F41201907474C0E07400C0E07480C0E058
:1001E00012049515811581158174FBC0E07400C05F
:1001F000E07480C0E074EFC0E07400C0E07480C0C0
:10020000E074C8C0E07400C0E07480C0E07479C0DD
:10021000E07400C0E07480C0E0120495E58124F42D
:10022000F581758A00758C00C28D7509002081FDED
:100230003081FDD28C308109108D0280F805098053
:10024000F4208109108D0280F8050980F4C28C85A4
:10025000098212041CAA82AB83ACF0FDC002C00369
:10026000C004C00590000075F0807447120379AA9D
:1002700082AB83ACF0FDE58124FCF581858C82C0E6
:1002800002C003C004C00512041CAE82AF83A8F0F4
:10029000F9C006C007C000C00190000075F080746E
:1002A00043120379AE82AF83A8F0F9E58124FCF50F
:1002B00081D005D004D003D002C006C007C000C062
:1002C000018A828B838CF0ED120427AA82AB83AC67
:1002D000F0FDE58124FCF581AE8A7F008E828F835C
:1002E000C002C003C004C0051204B6AE82AF83A82A
:1002F000F0F9D005D004D003D002C006C007C0007A
:10030000C0018A828B838CF0ED120427AA82AB8312
:10031000ACF0FDE58124FCF581C002C003C004C03F
:100320000590F4FC75F0327434120379AA82AB8321
:10033000ACF0FDE58124FCF581C002C003C004C01F
:100340000590000075F07A7444120379AA82AB8399
:10035000ACF0FDE58124FCF581C002C003C004C0FF
:10036000057404C0E07401C0E07480C0E01204951C
:10037000E58124F9F581020222120545BC00030241
:1003800004E4EF60FA30D502B2D1E583B4FF030292
:1003900004FAE582B4FF030204FA258340072482AD
:1003A000400B0204E424831450030204FAF582EAA9
:1003B0008DF0A4A8F0EA8EF0A428F8E435F0F9EB6B
:1003C0008DF0A428E935F0F9E433CA8FF0A429F9B7
:1003D000EA35F0FAEBF88EF0A429F9EA35F0FAE400
:1003E00033FBEC8DF0A429F9EA35F0FAE43BFBE8A5
:1003F0008FF0A42AFAEB35F0FBE433CCFD8EF0A4A9
:100400002AFAEB35F0FBE43CFCED8FF0A42BFBEC7F
:1004100035F0FC20E7031205120204C3E4AC82FBB2
:10042000FAF9748602057C1205457900E583B582E8
:1004300002800D5003120586E583C395821205A044
:10044000E5D0C465D020E117EA2DFAEB3EFBEC3F86
:10045000FC500974011205A0EC4480FC0204C3C3E3
:10046000EA9DFAEB9EFBEC9FFC500FC3E499F9E484
:100470009AFAE49BFBE49CFCB2D11205120204C37D
:10048000020F6F85821985831A85F01B850A1C90DF
:1004900004800209C2C008858108E50824FBF51C18
:1004A000E50824FBF8861908861A08861B90048044
:1004B0001209C2D00822AC83AB827A007900748E14
:1004C000020F8DB98003EA13B34010EA2401FAE465
:1004D0003BFBE43CFC50047C800582BC000EBB006E
:1004E0000BBA0008E4F5F0F583F58222A2D1E5828B
:1004F000138CF092F78B838A8222E4F583F5827560
:10050000F080F4A2D11322E4F583F58275F0C07473
:100510007F227804EC7011E58224F8500AF582E419
:10052000C9CACBFCD8EF22EC7820058220E713D58E
:10053000820122C3E933F9EA33FAEB33FBEC33FCF3
:10054000D8EA158222AA82AB83A2F73392D1600245
:10055000D2F7F582ACF0E58124F9F8E6FD08E6FE75
:100560000886F008E6A2F73392D56002D2F7F58349
:10057000AFF022FCABF0AA83A982749EC2D1F582AF
:100580001205120204C3E582C583F582A2D133A20B
:10059000D592D11392D5ECCFFCEBCEFBEACDFA226B
:1005A0006040F82582500274FFF582E824F8501E5E
:1005B000CCCBCAF9E4CC24F85014CBCAF9E4CB2450
:1005C000F8500BCAF9E4CA24F85003790022240831
:1005D0006010F8C3EC13FCEB13FBEA13FAE913F910
:1005E000D8F122AA8274F4C0E07405C0E0C00BC048
:1005F0000C8A82220512E4B51202051322AA827423
:10060000302AFA24C6500A74072AFA30000343023B
:10061000208A820205E3E582FAC4540FF582C00203
:100620001205FDD002740F5AF5820205FDAA0DAB2A
:100630000EAC0FAD10AE11751820EE2EFEED23544A
:1006400001FF4206EA2AFAEB33FBEC33FCED33FD03
:10065000C3EE95144008EEC39514FE430201D5186D
:10066000D98A0D8B0E8C0F8D108E1122782EE624D8
:10067000D075F00AA4FA782FE624D02AFA782D86CD
:1006800003BB2D04C3E49AFA751401C3E464808AA1
:10069000F063F08095F050297518038A0374F625ED
:1006A00018401C0514E518142422F8E5182422F932
:1006B0008704A604772E1BEBFA6004051880DE8BF6
:1006C00002EA30E70D782386037824A603782376A0
:1006D0002E0AE516600AE51604FB2514F5148005BC
:1006E000300B02051478228603E4BB2D0104FB7055
:1006F0000620060330070205143004030207B33056
:100700000557EB600C75822DC0021205E3D0028004
:100710001C30060C75822BC0021205E3D002800D3E
:1007200030070A758220C0021205E3D002782386C2
:1007300004BC2E0C758230C0021205E3D0021515E0
:10074000AC151515C3E5149C40030207F7758230FC
:10075000C0021205E3D00280E7AC151515C3E514FD
:100760009C500C758220C0021205E3D00280EA780A
:10077000228604BC2D0C75822DC0021205E3D00226
:10078000801C30060C75822BC0021205E3D002805B
:100790000D30070A758220C0021205E3D0027823CB
:1007A0008604BC2E52758230C0021205E3D00215B9
:1007B000158044EB600E75822DC0021205E3D00255
:1007C0001515802030060E75822BC0021205E3D06D
:1007D000021515800F30070C758220C0021205E348
:1007E000D002151578238603BB2E0C758230C0020B
:1007F0001205E3D0021515751801C20DE518242263
:10080000F88603BB45030208B4BB2E348A03C3E455
:1008100064808BF063F08095F0500F758230C003D8
:100820001205E3D0031B8B0280E48B02D20DE51688
:100830007038200B030208B475822E1205E3807411
:10084000300D278A03EB30E71FC3E464808516F080
:1008500063F08095F0500C758230C0031205E3D030
:100860000315160B8B0280DD8B02300D0EC3E46482
:10087000808516F063F08095F05021E5182422F869
:1008800086038B82C0021205E3D002300D0EE518FC
:100890002422F88603BB2E02800215161515C3E428
:1008A00064808516F063F08095F04003200D050507
:1008B000180207FCC3E464808516F063F08095F0AD
:1008C000500A7582301205E3151680E830040FAA2D
:1008D000151515EA60087582201205E380F122E5FE
:1008E000167003300B0D74072516FAE515C39AF53B
:1008F000158006E51524FAF515751800782286028C
:10090000BA2B0F20060C78227620200705751801D7
:100910000515200419AA15C3E464808AF063F080E9
:1009200095F0500A7582201205E3151580E7C20D77
:10093000E5182422F88602BA00028069BA451F3001
:1009400000027665C3E464808516F063F08095F05C
:10095000500A7582301205E3151680E8D20DC3E502
:10096000189402E433FA7014EA700EC3E4648085CC
:1009700016F063F08095F04003300D16E518242240
:10098000F886028A821205E3E51824FD5012151636
:10099000800E7402B51809300B0675822E1205E31D
:1009A0000518020930300419AA15C3E464808AF0DE
:1009B00063F08095F0500A7582201205E3151580CA
:1009C000E72285820B85830CE4F512F513AA19AB97
:1009D0001AAC1B8A828B838CF0120FB1FD74012A32
:1009E000F519E43BF51A8C1BEDFA7003020F68BA97
:1009F00025028003020F60C204C205C206C207C2FC
:100A000008C209C20AC20BC201C202C203751400A5
:100A10007515007516FFAB19AC1AAD1B8B828C8354
:100A20008DF0120FB1FAA3AB82AC838B198C1A8DA7
:100A30001BBA25078A821205E380928A06BE30001F
:100A4000402E8A06EE24C6402774FFB51613E5151E
:100A500075F00AA4FEEA24D02EF51570BFD20580E9
:100A6000BBE51675F00AA4FEEA24D02EF51680AC7C
:100A7000BA2E0A74FFB516A4751600809F8A06BEAA
:100A80006100400E8A06EE248540075302DFD20043
:100A90008002C200BA20028075BA2303020B1DBA7D
:100AA0002A03020B22BA2B02805FBA2D028055BAAC
:100AB0004202805FBA4303020B67BA4403020CA2EE
:100AC000BA4503020CBCBA4603020CB8BA4703028B
:100AD0000CC0BA4903020CA2BA4C02803BBA4E03C6
:100AE000020CC4BA4F03020CA9BA5003020C3BBA61
:100AF0005303020B8BBA5503020CAEBA5803020C17
:100B0000B3020CEED204020A1CD206020A1CD2075F
:100B1000020A1CD209020A1CD20A020A1CD20B02C7
:100B20000A1C74FFB5162030090BE51C14F8881C4C
:100B30008615020A1CE51C24FEF8881C8606088619
:100B400007188E15020A1C30090BE51C14F8881CC6
:100B50008616020A1CE51C24FEF8881C86060886F8
:100B600007188E16020A1C30090AE51C14F8881CA6
:100B70008602800FE51C24FEF8881C860308860484
:100B8000188B028A821205E3020CF3E51C24FDF89F
:100B9000881C860308860408860518188B0D8C0EA1
:100BA0008D0F8B828C838DF0121105AB82AC838B01
:100BB0001774FFB5160385171620041DC3E5179596
:100BC000155016E515C39517F515AB151515EB6002
:100BD000087582201205E380F1850D82850E8385DC
:100BE0000FF0120FB1FBFA6029AB161516C3E464BF
:100BF000808BF063F08095F050188A821205E3AB89
:100C00000DAC0EAD0F0BBB00010C8B0D8C0E8D0FC0
:100C100080C7200403020CF3C3E5179515400302B7
:100C20000CF3E515C39517F515AB151515EB70030A
:100C3000020CF37582201205E380EEE51C24FDF81A
:100C4000881C860308860408860518188B0D8C0EF0
:100C50008D0FE50FFB30E7047A438013EB5460609F
:100C6000047A50800AEB30E6047A4980027A588A86
:100C700082C0021205E375823A1205E375823012D2
:100C800005E37582781205E3D002BA4902800BBAF7
:100C900050028006850E82120616850D82120616F7
:100CA0008051D20875140A804A751408804575145D
:100CB0000A8040751410803BD2018037D202803305
:100CC000D203802FE51C24FDF8881C8603088604C7
:100CD00008860518188B0D8C0E8D0F8B828C838DDA
:100CE000F0E5121210ECA3E5131210EC80058A82D5
:100CF0001205E3200106200203300370E51C24FCEA
:100D0000F8881C86030886040886050886061818D5
:100D1000188B0D8C0E8D0F8E10E50DE50EE50FE591
:100D2000108B828C838DF0EE120FCD74FFB51603FD
:100D3000751606300327747F5510FB8B11E511EBF8
:100D40002BFB8B11E50F30E70674014511F511E51A
:100D50001124684006749925114002D2023002061F
:100D60001208DF0209CD12066C0209CDE5147003EA
:100D70000209CD7B2730092BE51C14F8881CE6FC02
:100D80003395E0FDFEFF8C0D8D0E8E0F8F10200829
:100D90005EAC0D7D007E007F008C0D8D0E8E0F8F62
:100DA00010804C300A1FE51C24FCF8881C860408BF
:100DB00086050886060886071818188C0D8D0E8E75
:100DC0000F8F10802AE51C24FEF8881C86040886F4
:100DD0000518ED3395E0FEFF8C0D8D0E8E0F8F10F4
:100DE00020080CAC0DAD0E7E007F008E0F8F1030F2
:100DF0000B43E50D450E450F451060397408B514D9
:100E00000C758230C0031205E3D00380287410B53E
:100E10001423758230C0031205E3D00330000C7533
:100E20008278C0031205E3D003800A758258C0039C
:100E30001205E3D003300825AC0DAD0EAE0FE51062
:100E4000FF30E717C3E49CFCE49DFDE49EFEE49FB5
:100E5000FF8C0D8D0E8E0F8F108002C2087517004B
:100E6000D20C8B00751100C00012062DD000200C92
:100E70000DE511C4FCE6FD4CF61888038002A611AE
:100E80000517B20CE50D450E450F451070D68803C9
:100E9000E515700375150120051A200417E51704E0
:100EA000FCC39515500E758220C0031205E3D003D4
:100EB000151580E930080E75822DC0031205E3D0A8
:100EC0000315158024E517602030060E75822BC0AF
:100ED000031205E3D0031515800F30070C7582202F
:100EE000C0031205E3D003151520041EAC1515151B
:100EF000C3E5179C50273005047C3080027C208C91
:100F000082C0031205E3D00380E2C3E517951550B4
:100F100009E515C39517F51580037515008B00AB12
:100F2000171517EB6022B20C200C0A08E6C4540F08
:100F3000FB8B1180078603740F5BF511851182C04E
:100F4000001205FDD00080D72004030209CDAB15A7
:100F50001515EB70030209CD7582201205E380EEB2
:100F60008A821205E30209CD85128285138322AAA3
:100F700082BA0A0810990280FB75990D10990280B7
:100F8000FB8A9922FCABF0AA83A982749EF582C2E7
:100F9000D1EC30E716D2D1E9F42401F9EAF43400B7
:100FA000FAEBF43400FBECF43400FC1205120204FA
:100FB000C320F71430F6148883A88220F507E6A82A
:100FC0008375830022E280F7E49322E022C0E0F8F8
:100FD0004582458345F07009F5F0FBFCFDFE0210EB
:100FE0009BE823A2F792E0F8A982AA83D2F7ABF09C
:100FF0007C007E07C3749798404074FF2EFE740AED
:1010000089F0A4F985F082740A8AF0A4FA85F08345
:10101000740A8BF0A4FB740529F9EA3582FAEB35E2
:1010200083FB740035F0FCC3EC13FCEB13FBEA13F9
:10103000FAE913F908EC70EF80BAE8C3947FF88BF3
:10104000838EF0E4FBFCFDFEFF08C3E933F9EA33CD
:10105000FAE58333F583EB3BD4FBEC3CD4FCED3D6C
:10106000D4FDEE3ED4FEEF3FD4FF602D05F07405B5
:101070002BD4FBE43CD4FCE43DD4FDE43ED4FEE4BC
:101080003FD4FF758204C3EF13FFEE13FEED13FD93
:10109000EC13FCEB13FBD582EDD8AF7822D0E02027
:1010A000E704762B8002762D087906E7C4540F44B6
:1010B00030F608B90603762E08E7540F4430F608D8
:1010C00019B902E7764508E5F020E704762B80049D
:1010D000762DF4040875F00A844430F608E5F044EF
:1010E00030F608E4F690002275F0402220F7103028
:1010F000F6118883A88220F507F6A883758300225D
:10110000F280F7F022AA82AB83ACF07D007E008AE9
:10111000828B838CF0120FB1FFA3AA82AB83EF60A6
:10112000070DBD00EA0E80E78D828E83220000004D
:00000001FF
