:100000000200037581731200E8E582600302006F4D
:10001000780079007A007B007C007D00EC4D601C4C
:1000200088828983E493A3A882A9838A828B83F040
:10003000A3AA82AB831CBCFFE31D80E07582007520
:1000400083007C007D00EC4D600AE4F0A31CBCFF43
:10005000F51D80F27582007583007C007D00EC4DFB
:10006000600AE4F0A31CBCFFF51D80F21200E71249
:1000700003F880FE1B5B324A0041444320746573E1
:10008000742070726F6772616D0A46696C653A2000
:1000900025730A436F6D70696C65643A2025732C73
:1000A0002025730A0A00433A5C454C4543323931F6
:1000B0005C4C6162355C5265666572656E63655C59
:1000C000726566312E63004D61722020332032301C
:1000D00032340031353A32333A313400252E346629
:1000E0000D0025662F72002275A7007597DE7597A3
:1000F000AD75FF8075EF0675A71075C12075A70057
:1001000075A90075A900E5A930E7FB75A90375A9D4
:1001100003E5A930E7FB43A41075E10175E2007522
:10012000E340759810758DE6858D8B53890F438953
:1001300020D28ED2997582002275A700C2EF75B2C7
:100140008075BC2075B91E75E80075DF3F75B3007A
:10015000D2EF22AA82438E407592B87593FF8592A2
:10016000948593957591047B00C3EB9A500BE591B0
:1001700030E7FB53917F0B80F075910022AA82AB90
:10018000837C007D00C3EC9AED9B502B7E00BE0467
:1001900000501D7582FAC002C003C004C005C0062D
:1001A000120153D006D005D004D003D0020E80DE59
:1001B0000CBC00D10D80CE225389F0438901C28C42
:1001C00022AA828511F005F07401800225E0D5F0A5
:1001D000FBFB75A720BA0002800ABA0102800FBAA1
:1001E000021E8014EBF4FA52F1EB42D48012EBF4CD
:1001F000FA52F2EB42D58008EBF4FA52F3EB42CC20
:1002000075A700228582BBC2EDD2EC30EDFD85BD25
:100210008285BE8322120204120626AA82AB83AC18
:10022000F0FDC002C003C004C005906C8B75F05394
:100230007440120632AA82AB83ACF0FDE58124FC47
:10024000F581E4C0E074FCC0E0747FC0E07446C097
:10025000E08A828B838CF0ED120811AA82AB83AC0A
:10026000F0FDE58124FCF5818A828B838CF0ED2200
:10027000D2A0758228120153C2A022AA828AE0A2CB
:10028000E79290A2E69291A2E59292A2E49293C0A4
:1002900002120270758228120153D0028AE0A2E392
:1002A0009290A2E29291A2E19292A2E09293020233
:1002B00070AA82D2978A8212027B90000202017D8C
:1002C000AA82C2978A8212027B90000502017DC237
:1002D000A090001412017D7582331202C075823322
:1002E0001202C07582321202C07582281202C075D5
:1002F000820C1202C07582011202C0900014020129
:100300007DAA82AB83ACF07402B523047DC0800269
:100310007D808D82C002C003C0041202C09000051F
:1003200012017DD004D003D0027D007E00ED2AFFB3
:10033000EE3BF88C018F82888389F012060AFF60F9
:10034000208F82C002C003C004C005C0061202B1E3
:10035000D006D005D004D003D0020DBD00CF0E8052
:10036000CC3000248D028E03C3EA9410EB64809499
:10037000805015758220C002C0031202B1D003D094
:10038000020ABA00E30B80E022AA82AB83ACF074CD
:1003900002B5240774C04525FD800574804525FD00
:1003A0008D82C002C003C0041202C0D004D003D0AA
:1003B000027D007E00ED2AFFEE3BF88C018F8288E3
:1003C0008389F012060AFF60208F82C002C003C03A
:1003D00004C005C0061202B1D006D005D004D00377
:1003E000D0020DBD00CF0E80CC22C2EDD2EC30ED9C
:1003F000FD85BD8285BE83221202CF1201B8900115
:10040000F412017D7474C0E07400C0E07480C0E038
:1004100012074E15811581158174D3C0E07400C098
:10042000E07480C0E074C7C0E07400C0E07480C0B5
:10043000E074A6C0E07400C0E07480C0E07479C0CD
:10044000E07400C0E07480C0E012074EE58124F43F
:10045000F5817511027582021201C1751103758251
:10046000021201C17511047582021201C1751105D4
:100470007582021201C17511017582001201C1124B
:10048000013975BB00C2EDD2EC30EDFD758A007507
:100490008C001203EAE5828583F045F070F41203C4
:1004A000EAE5828583F045F060F4D28C1203EAE538
:1004B000828583F045F070F4C28C858C821206D55B
:1004C000AA82AB83ACF0FDC002C003C004C005909B
:1004D000000075F080744312063285824E85834F8A
:1004E00085F050F551E58124FCF581AE8A7F008EC0
:1004F000828F83120804AE82AF83AAF0FBC006C0CD
:1005000007C002C003854E82854F838550F0E551B8
:100510001206E085824A85834B85F04CF54DE581D6
:1005200024FCF581E4C0E0C0E0C0E07440C0E08598
:100530004A82854B83854CF0E54D120811AE82AF9F
:1005400083AAF0FBE58124FCF581EBB2E78E828F74
:10055000838AF0120930858222C04AC04BC04CC049
:100560004D74DCC0E07400C0E07480C0E012074E3F
:10057000E58124F9F58175820F120215AA82AB83F9
:10058000ACF0FD8A268B278C288D297582101202EB
:1005900015AA82AB83ACF0FD8A2A8B2B8C2C8D2D77
:1005A000758211120215AA82AB83ACF0FD8A2E8BE4
:1005B0002F8C308D31758212120215AA82AB83AC5A
:1005C000F0FD8A328B338C348D359001F412017D2D
:1005D000C04AC04BC04CC04D74E2C0E07400C0E0E3
:1005E0007480C0E07436C0E07400C0E07440C0E0C5
:1005F0001207BEE58124F6F581752301D200900033
:100600003675F04012030102048220F71430F6140C
:100610008883A88220F507E6A88375830022E280FC
:10062000F7E49322E022E4AC83AB82FAF9748E0201
:1006300009411209CDBC000302096CEF60FA30D504
:1006400002B2D1E583B4FF03020982E582B4FF035D
:10065000020982258340072482400B02096C24830F
:10066000145003020982F582EA8DF0A4A8F0EA8E04
:10067000F0A428F8E435F0F9EB8DF0A428E935F082
:10068000F9E433CA8FF0A429F9EA35F0FAEBF88ED1
:10069000F0A429F9EA35F0FAE433FBEC8DF0A42953
:1006A000F9EA35F0FAE43BFBE88FF0A42AFAEB35DF
:1006B000F0FBE433CCFD8EF0A42AFAEB35F0FBE43A
:1006C0003CFCED8FF0A42BFBEC35F0FC20E7031293
:1006D000099A02094BE4AC82FBFAF97486020941DB
:1006E0001209CD7900E583B58202800D500312090D
:1006F000FBE583C39582120A15E5D0C465D020E1DD
:1007000017EA2DFAEB3EFBEC3FFC50097401120A8C
:1007100015EC4480FC02094BC3EA9DFAEB9EFBEC0E
:100720009FFC500FC3E499F9E49AFAE49BFBE49C24
:10073000FCB2D112099A02094B0213E4858260854A
:10074000836185F062851063900739020E37C00817
:10075000858108E50824FBF563E50824FBF886603D
:10076000088661088662900739120E37D00822AADF
:1007700082AB09AC0AAD0B8B828C838DF0EA12132D
:10078000F90509E4B50902050A2285820985830A6B
:1007900085F00B850C60850D61850E62850F639079
:1007A000076F120E37AA82AB83AC09AD0AAE0B8C71
:1007B000828D838EF0E41213F98A828B8322C00823
:1007C000858108E50824F8F563E50824FBF8860927
:1007D00008860A08860BE50824F8F8866008866112
:1007E00008866290076F120E37AA82AB83AC09AD00
:1007F0000AAE0B8C828D838EF0E41213F98A828B01
:1008000083D00822AC83AB827A007900748E021404
:100810001B1209CD30D502B2D1BF0009BC000302C2
:10082000098F020982BC000302096CE583B4FF0B47
:10083000E582B4FF0302098F02096CE582B4FF036D
:10084000020982C395835007247F400B02096C2460
:1008500080145003020982C0E0E4CCCBCAF98D11A8
:100860008E128F13EF54F0C4F5147583068514F0BF
:10087000EB84F582E9C4F9EAC4FAEBC4FBEC540F4B
:10088000C47803D6FC18EBD6FB18EAD6FA8582F0BA
:10089000EDA4A8F0FD8582F0EEA428FEE435F0F882
:1008A0008582F0EFA428FFE435F0F8E99DF9EA9E8F
:1008B000FAEB9FFBEC98FCAD11AE12AF1330E710D2
:1008C0001582E92DF9EA3EFAEB3FFBE43CFC80EDB2
:1008D000C082D58398C3E933F9EA33FAEB33FBECF2
:1008E00033FCC3E99DEA9EEB9FEC9400B3E413F95B
:1008F000D002D0E0C44AFAD003D0E0C44BFBD0040D
:10090000D0E0F5F0540FC44CFCD082158230F40FC7
:10091000D3EC13FCEB13FBEA13FAE913F90582E9B4
:1009200030E70A74012AFAE43BFBE43CFC02096369
:100930007F86121441F58222FCABF0AA83A982744F
:100940009EC2D1F58212099A02094BB98003EA13BB
:10095000B34010EA2401FAE43BFBE43CFC50047C85
:10096000800582BC000EBB000BBA0008E4F5F0F570
:1009700083F58222A2D1E582138CF092F78B838AD1
:100980008222E4F583F58275F080F4A2D11322E48B
:10099000F583F58275F0C0747F227804EC7011E560
:1009A0008224F8500AF582E4C9CACBFCD8EF22ECC5
:1009B0007820058220E713D5820122C3E933F9EAC2
:1009C00033FAEB33FBEC33FCD8EA158222AA82AB74
:1009D00083A2F73392D16002D2F7F582ACF0E581C1
:1009E00024F9F8E6FD08E6FE0886F008E6A2F733EB
:1009F00092D56002D2F7F583AFF022E582C583F588
:100A000082A2D133A2D592D11392D5ECCFFCEBCEFA
:100A1000FBEACDFA226040F82582500274FFF5828D
:100A2000E824F8501ECCCBCAF9E4CC24F85014CBFF
:100A3000CAF9E4CB24F8500BCAF9E4CA24F85003ED
:100A400079002224086010F8C3EC13FCEB13FBEAD6
:100A500013FAE913F9D8F122AA827469C0E0740A82
:100A6000C0E0C052C0538A82220559E4B55902053C
:100A70005A22AA8274302AFA24C6500A74072AFA23
:100A80003001034302208A82020A58E582FAC454E4
:100A90000FF582C002120A72D002740F5AF5820258
:100AA0000A72AA54AB55AC56AD57AE58755F20EEDE
:100AB0002EFEED235401FF4206EA2AFAEB33FBEC4B
:100AC00033FCED33FDC3EE955B4008EEC3955BFE52
:100AD000430201D55FD98A548B558C568D578E5859
:100AE000227870E624D075F00AA4FA7871E624D052
:100AF0002AFA786F8603BB2D04C3E49AFA755B016A
:100B0000C3E464808AF063F08095F05029755F0338
:100B10008A0374F6255F401C055BE55F142464F8C6
:100B2000E55F2464F98704A604772E1BEBFA6004C2
:100B3000055F80DE8B02EA30E70D78658603786614
:100B4000A6037865762E0AE55D600AE55D04FB255F
:100B50005BF55B8005300C02055B78648603E4BBC3
:100B60002D0104FB7006200703300802055B3005E9
:100B700003020C28300657EB600C75822DC0021260
:100B80000A58D002801C30070C75822BC002120A52
:100B900058D002800D30080A758220C002120A580F
:100BA000D00278658604BC2E0C758230C002120A11
:100BB00058D002155CAC5C155CC3E55B9C4003023D
:100BC0000C6C758230C002120A58D00280E7AC5C0F
:100BD000155CC3E55B9C500C758220C002120A585C
:100BE000D00280EA78648604BC2D0C75822DC00288
:100BF000120A58D002801C30070C75822BC00212DA
:100C00000A58D002800D30080A758220C002120AEC
:100C100058D00278658604BC2E52758230C002120C
:100C20000A58D002155C8044EB600E75822DC0021C
:100C3000120A58D002155C802030070E75822BC036
:100C400002120A58D002155C800F30080C75822001
:100C5000C002120A58D002155C78658603BB2E0CC0
:100C6000758230C002120A58D002155C755F01C24D
:100C70000EE55F2464F88603BB4503020D29BB2EF5
:100C8000348A03C3E464808BF063F08095F0500FE6
:100C9000758230C003120A58D0031B8B0280E48B8C
:100CA00002D20EE55D7038200C03020D2975822EEC
:100CB000120A588074300E278A03EB30E71FC3E412
:100CC0006480855DF063F08095F0500C758230C0D3
:100CD00003120A58D003155D0B8B0280DD8B0230A6
:100CE0000E0EC3E46480855DF063F08095F05021C2
:100CF000E55F2464F886038B82C002120A58D00292
:100D0000300E0EE55F2464F88603BB2E02800215C8
:100D10005D155CC3E46480855DF063F08095F04010
:100D200003200E05055F020C71C3E46480855DF04D
:100D300063F08095F0500A758230120A58155D8074
:100D4000E830050FAA5C155CEA6008758220120A7B
:100D50005880F122E55D7003300C0D7407255DFAB3
:100D6000E55CC39AF55C8006E55C24FAF55C755F8A
:100D70000078648602BA2B0F20070C786476202056
:100D80000805755F01055C200519AA5CC3E4648051
:100D90008AF063F08095F0500A758220120A581587
:100DA0005C80E7C20EE55F2464F88602BA00028028
:100DB00069BA451F3001027665C3E46480855DF041
:100DC00063F08095F0500A758230120A58155D80E4
:100DD000E8D20EC3E55F9402E433FA7014EA700EB1
:100DE000C3E46480855DF063F08095F04003300ECD
:100DF00016E55F2464F886028A82120A58E55F24A9
:100E0000FD5012155D800E7402B55F09300C067539
:100E1000822E120A58055F020DA5300519AA5CC37F
:100E2000E464808AF063F08095F0500A75822012A5
:100E30000A58155C80E722858252858353E4F55970
:100E4000F55AAA60AB61AC628A828B838CF0120681
:100E50000AFD74012AF560E43BF5618C62EDFA70DD
:100E6000030213DDBA250280030213D5C205C206B0
:100E7000C207C208C209C20AC20BC20CC202C20324
:100E8000C204755B00755C00755DFFAB60AC61AD65
:100E9000628B828C838DF012060AFAA3AB82AC833C
:100EA0008B608C618D62BA25078A82120A58809203
:100EB0008A06BE3000402E8A06EE24C6402774FF04
:100EC000B55D13E55C75F00AA4FEEA24D02EF55C4E
:100ED00070BFD20680BBE55D75F00AA4FEEA24D09F
:100EE0002EF55D80ACBA2E0A74FFB55DA4755D0069
:100EF000809F8A06BE6100400E8A06EE2485400768
:100F00005302DFD2018002C201BA20028075BA23E7
:100F100003020F92BA2A03020F97BA2B02805FBA1C
:100F20002D028055BA4202805FBA4303020FDCBA39
:100F30004403021117BA4503021131BA46030211E4
:100F40002DBA4703021135BA4903021117BA4C02F0
:100F5000803BBA4E03021139BA4F0302111EBA5038
:100F6000030210B0BA5303021000BA550302112352
:100F7000BA5803021128021163D205020E91D2075A
:100F8000020E91D208020E91D20A020E91D20B02E9
:100F90000E91D20C020E9174FFB55D20300A0BE564
:100FA0006314F88863865C020E91E56324FEF8887A
:100FB000638606088607188E5C020E91300A0BE5E0
:100FC0006314F88863865D020E91E56324FEF88859
:100FD000638606088607188E5D020E91300A0AE5C0
:100FE0006314F888638602800FE56324FEF8886343
:100FF0008603088604188B028A82120A5802116836
:10100000E56324FDF88863860308860408860518CE
:10101000188B548C558D568B828C838DF0121585D0
:10102000AB82AC838B5E74FFB55D03855E5D20058E
:101030001DC3E55E955C5016E55CC3955EF55CAB43
:101040005C155CEB6008758220120A5880F18554AB
:10105000828555838556F012060AFBFA6029AB5D3E
:10106000155DC3E464808BF063F08095F050188ABE
:1010700082120A58AB54AC55AD560BBB00010C8B19
:10108000548C558D5680C7200503021168C3E55E58
:10109000955C4003021168E55CC3955EF55CAB5C52
:1010A000155CEB7003021168758220120A5880EEFD
:1010B000E56324FDF888638603088604088605181E
:1010C000188B548C558D56E556FB30E7047A4380D7
:1010D00013EB546060047A50800AEB30E6047A49DE
:1010E00080027A588A82C002120A5875823A120A1D
:1010F00058758230120A58758278120A58D002BA8E
:101100004902800BBA50028006855582120A8B85EF
:101110005482120A8B8051D209755B0A804A755B32
:10112000088045755B0A8040755B10803BD2028069
:1011300037D2038033D204802FE56324FDF888631F
:10114000860308860408860518188B548C558D561E
:101150008B828C838DF0E5591213F9A3E55A121393
:10116000F980058A82120A582002062003033004FF
:1011700070E56324FCF88863860308860408860506
:101180000886061818188B548C558D568E57E554C2
:10119000E555E556E5578B828C838DF0EE1214668B
:1011A00074FFB55D03755D06300427747F5557FBEA
:1011B0008B58E558EB2BFB8B58E55630E70674014E
:1011C0004558F558E558246840067499255840025A
:1011D000D203300306120D54020E42120AE1020E2F
:1011E00042E55B7003020E427B69300A2BE5631413
:1011F000F88863E6FC3395E0FDFEFF8C548D558E38
:10120000568F5720095EAC547D007E007F008C54C1
:101210008D558E568F57804C300B1FE56324FCF89C
:101220008863860408860508860608860718181845
:101230008C548D558E568F57802AE56324FEF8888E
:1012400063860408860518ED3395E0FEFF8C548D07
:10125000558E568F5720090CAC54AD557E007F003B
:101260008E568F57300C43E55445554556455760CB
:10127000397408B55B0C758230C003120A58D0036C
:1012800080287410B55B23758230C003120A58D0D1
:101290000330010C758278C003120A58D003800A0B
:1012A000758258C003120A58D003300925AC54ADDA
:1012B00055AE56E557FF30E717C3E49CFCE49DFDAF
:1012C000E49EFEE49FFF8C548D558E568F5780020E
:1012D000C209755E00D20D8B00755800C000120A5D
:1012E000A2D000200D0DE558C4FCE6FD4CF6188890
:1012F000038002A658055EB20DE554455545564596
:101300005770D68803E55C7003755C0120061A20CF
:101310000517E55E04FCC3955C500E758220C00382
:10132000120A58D003155C80E930090E75822DC071
:1013300003120A58D003155C8024E55E6020300754
:101340000E75822BC003120A58D003155C800F3033
:10135000080C758220C003120A58D003155C2005C2
:101360001EAC5C155CC3E55E9C50273006047C30E7
:1013700080027C208C82C003120A58D00380E2C312
:10138000E55E955C5009E55CC3955EF55C80037590
:101390005C008B00AB5E155EEB6022B20D200D0A87
:1013A00008E6C4540FFB8B5880078603740F5BF567
:1013B00058855882C000120A72D00080D7200503D9
:1013C000020E42AB5C155CEB7003020E427582208C
:1013D000120A5880EE8A82120A58020E42855982F9
:1013E000855A8322AA82BA0A0810990280FB75994D
:1013F0000D10990280FB8A992220F71030F611888F
:1014000083A88220F507F6A88375830022F280F76F
:10141000F022FCABF0AA83A982749EF582C2D1ECC3
:1014200030E716D2D1E9F42401F9EAF43400FAEBFA
:10143000F43400FBECF43400FC12099A02094B7FEF
:101440009E1215AD30D10302096CC3EF958250098D
:1014500074FFF5F0F583F582227900120A1589826E
:101460008A838BF0EC22C0E0F84582458345F0701A
:1014700009F5F0FBFCFDFE021534E823A2F792E02B
:10148000F8A982AA83D2F7ABF07C007E07C37497D9
:1014900098404074FF2EFE740A89F0A4F985F0820A
:1014A000740A8AF0A4FA85F083740A8BF0A4FB74A2
:1014B0000529F9EA3582FAEB3583FB740035F0FC37
:1014C000C3EC13FCEB13FBEA13FAE913F908EC7015
:1014D000EF80BAE8C3947FF88B838EF0E4FBFCFDC9
:1014E000FEFF08C3E933F9EA33FAE58333F583EB0A
:1014F0003BD4FBEC3CD4FCED3DD4FDEE3ED4FEEF02
:101500003FD4FF602D05F074052BD4FBE43CD4FCE4
:10151000E43DD4FDE43ED4FEE43FD4FF758204C331
:10152000EF13FFEE13FEED13FDEC13FCEB13FBD5F5
:1015300082EDD8AF7864D0E020E704762B80027685
:101540002D087906E7C4540F4430F608B90603762F
:101550002E08E7540F4430F60819B902E77645081B
:10156000E5F020E704762B8004762DF4040875F06E
:101570000A844430F608E5F04430F608E4F69000BA
:101580006475F04022AA82AB83ACF07D007E008AB5
:10159000828B838CF012060AFFA3AA82AB83EF60D2
:1015A000070DBD00EA0E80E78D828E8322AA82ABF2
:1015B00083A2F73392D16002D2F7F582ACF0220019
:00000001FF
